{
  "address": "0xBcF20645Ed5836975c72F99455cC6E837a5ec69E",
  "abi": [
    {
      "inputs": [
        {
          "internalType": "address",
          "name": "forwarder_",
          "type": "address"
        }
      ],
      "stateMutability": "nonpayable",
      "type": "constructor"
    },
    {
      "anonymous": false,
      "inputs": [
        {
          "indexed": false,
          "internalType": "address",
          "name": "previousAdmin",
          "type": "address"
        },
        {
          "indexed": false,
          "internalType": "address",
          "name": "newAdmin",
          "type": "address"
        }
      ],
      "name": "AdminChanged",
      "type": "event"
    },
    {
      "anonymous": false,
      "inputs": [
        {
          "indexed": true,
          "internalType": "address",
          "name": "owner",
          "type": "address"
        },
        {
          "indexed": true,
          "internalType": "address",
          "name": "approved",
          "type": "address"
        },
        {
          "indexed": true,
          "internalType": "uint256",
          "name": "tokenId",
          "type": "uint256"
        }
      ],
      "name": "Approval",
      "type": "event"
    },
    {
      "anonymous": false,
      "inputs": [
        {
          "indexed": true,
          "internalType": "address",
          "name": "owner",
          "type": "address"
        },
        {
          "indexed": true,
          "internalType": "address",
          "name": "operator",
          "type": "address"
        },
        {
          "indexed": false,
          "internalType": "bool",
          "name": "approved",
          "type": "bool"
        }
      ],
      "name": "ApprovalForAll",
      "type": "event"
    },
    {
      "anonymous": false,
      "inputs": [
        {
          "indexed": true,
          "internalType": "address",
          "name": "beacon",
          "type": "address"
        }
      ],
      "name": "BeaconUpgraded",
      "type": "event"
    },
    {
      "anonymous": false,
      "inputs": [
        {
          "indexed": false,
          "internalType": "uint8",
          "name": "version",
          "type": "uint8"
        }
      ],
      "name": "Initialized",
      "type": "event"
    },
    {
      "anonymous": false,
      "inputs": [
        {
          "indexed": true,
          "internalType": "address",
          "name": "previousOwner",
          "type": "address"
        },
        {
          "indexed": true,
          "internalType": "address",
          "name": "newOwner",
          "type": "address"
        }
      ],
      "name": "OwnershipTransferred",
      "type": "event"
    },
    {
      "anonymous": false,
      "inputs": [
        {
          "indexed": true,
          "internalType": "address",
          "name": "from",
          "type": "address"
        },
        {
          "indexed": true,
          "internalType": "address",
          "name": "to",
          "type": "address"
        },
        {
          "indexed": true,
          "internalType": "uint256",
          "name": "tokenId",
          "type": "uint256"
        }
      ],
      "name": "Transfer",
      "type": "event"
    },
    {
      "anonymous": false,
      "inputs": [
        {
          "indexed": true,
          "internalType": "address",
          "name": "implementation",
          "type": "address"
        }
      ],
      "name": "Upgraded",
      "type": "event"
    },
    {
      "inputs": [
        {
          "internalType": "uint256",
          "name": "",
          "type": "uint256"
        }
      ],
      "name": "answersUri",
      "outputs": [
        {
          "internalType": "string",
          "name": "",
          "type": "string"
        }
      ],
      "stateMutability": "view",
      "type": "function"
    },
    {
      "inputs": [
        {
          "internalType": "address",
          "name": "to",
          "type": "address"
        },
        {
          "internalType": "uint256",
          "name": "tokenId",
          "type": "uint256"
        }
      ],
      "name": "approve",
      "outputs": [],
      "stateMutability": "nonpayable",
      "type": "function"
    },
    {
      "inputs": [
        {
          "internalType": "address",
          "name": "owner",
          "type": "address"
        }
      ],
      "name": "balanceOf",
      "outputs": [
        {
          "internalType": "uint256",
          "name": "",
          "type": "uint256"
        }
      ],
      "stateMutability": "view",
      "type": "function"
    },
    {
      "inputs": [
        {
          "internalType": "uint256",
          "name": "tokenId",
          "type": "uint256"
        }
      ],
      "name": "getApproved",
      "outputs": [
        {
          "internalType": "address",
          "name": "",
          "type": "address"
        }
      ],
      "stateMutability": "view",
      "type": "function"
    },
    {
      "inputs": [],
      "name": "getBattlePass",
      "outputs": [],
      "stateMutability": "nonpayable",
      "type": "function"
    },
    {
      "inputs": [
        {
          "internalType": "address",
          "name": "user",
          "type": "address"
        }
      ],
      "name": "getBattlePass",
      "outputs": [],
      "stateMutability": "nonpayable",
      "type": "function"
    },
    {
      "inputs": [
        {
          "internalType": "uint256",
          "name": "tokenId",
          "type": "uint256"
        }
      ],
      "name": "getVotingPower",
      "outputs": [
        {
          "internalType": "uint256",
          "name": "",
          "type": "uint256"
        }
      ],
      "stateMutability": "view",
      "type": "function"
    },
    {
      "inputs": [
        {
          "internalType": "string",
          "name": "name_",
          "type": "string"
        },
        {
          "internalType": "string",
          "name": "symbol_",
          "type": "string"
        },
        {
          "internalType": "string",
          "name": "version_",
          "type": "string"
        },
        {
          "internalType": "string",
          "name": "description_",
          "type": "string"
        }
      ],
      "name": "initialize",
      "outputs": [],
      "stateMutability": "nonpayable",
      "type": "function"
    },
    {
      "inputs": [
        {
          "internalType": "address",
          "name": "owner",
          "type": "address"
        },
        {
          "internalType": "address",
          "name": "operator",
          "type": "address"
        }
      ],
      "name": "isApprovedForAll",
      "outputs": [
        {
          "internalType": "bool",
          "name": "",
          "type": "bool"
        }
      ],
      "stateMutability": "view",
      "type": "function"
    },
    {
      "inputs": [
        {
          "internalType": "address",
          "name": "forwarder",
          "type": "address"
        }
      ],
      "name": "isTrustedForwarder",
      "outputs": [
        {
          "internalType": "bool",
          "name": "",
          "type": "bool"
        }
      ],
      "stateMutability": "view",
      "type": "function"
    },
    {
      "inputs": [],
      "name": "name",
      "outputs": [
        {
          "internalType": "string",
          "name": "",
          "type": "string"
        }
      ],
      "stateMutability": "view",
      "type": "function"
    },
    {
      "inputs": [],
      "name": "owner",
      "outputs": [
        {
          "internalType": "address",
          "name": "",
          "type": "address"
        }
      ],
      "stateMutability": "view",
      "type": "function"
    },
    {
      "inputs": [
        {
          "internalType": "uint256",
          "name": "tokenId",
          "type": "uint256"
        }
      ],
      "name": "ownerOf",
      "outputs": [
        {
          "internalType": "address",
          "name": "",
          "type": "address"
        }
      ],
      "stateMutability": "view",
      "type": "function"
    },
    {
      "inputs": [],
      "name": "proxiableUUID",
      "outputs": [
        {
          "internalType": "bytes32",
          "name": "",
          "type": "bytes32"
        }
      ],
      "stateMutability": "view",
      "type": "function"
    },
    {
      "inputs": [],
      "name": "renderEngine",
      "outputs": [
        {
          "internalType": "address",
          "name": "",
          "type": "address"
        }
      ],
      "stateMutability": "view",
      "type": "function"
    },
    {
      "inputs": [],
      "name": "renounceOwnership",
      "outputs": [],
      "stateMutability": "nonpayable",
      "type": "function"
    },
    {
      "inputs": [
        {
          "internalType": "address",
          "name": "from",
          "type": "address"
        },
        {
          "internalType": "address",
          "name": "to",
          "type": "address"
        },
        {
          "internalType": "uint256",
          "name": "tokenId",
          "type": "uint256"
        }
      ],
      "name": "safeTransferFrom",
      "outputs": [],
      "stateMutability": "nonpayable",
      "type": "function"
    },
    {
      "inputs": [
        {
          "internalType": "address",
          "name": "from",
          "type": "address"
        },
        {
          "internalType": "address",
          "name": "to",
          "type": "address"
        },
        {
          "internalType": "uint256",
          "name": "tokenId",
          "type": "uint256"
        },
        {
          "internalType": "bytes",
          "name": "data",
          "type": "bytes"
        }
      ],
      "name": "safeTransferFrom",
      "outputs": [],
      "stateMutability": "nonpayable",
      "type": "function"
    },
    {
      "inputs": [
        {
          "internalType": "address",
          "name": "operator",
          "type": "address"
        },
        {
          "internalType": "bool",
          "name": "approved",
          "type": "bool"
        }
      ],
      "name": "setApprovalForAll",
      "outputs": [],
      "stateMutability": "nonpayable",
      "type": "function"
    },
    {
      "inputs": [
        {
          "internalType": "address",
          "name": "newEngine",
          "type": "address"
        }
      ],
      "name": "setRenderEngin",
      "outputs": [],
      "stateMutability": "nonpayable",
      "type": "function"
    },
    {
      "inputs": [
        {
          "internalType": "address",
          "name": "signer",
          "type": "address"
        },
        {
          "internalType": "bool",
          "name": "valid",
          "type": "bool"
        }
      ],
      "name": "setSigner",
      "outputs": [],
      "stateMutability": "nonpayable",
      "type": "function"
    },
    {
      "inputs": [
        {
          "internalType": "address",
          "name": "",
          "type": "address"
        }
      ],
      "name": "signers",
      "outputs": [
        {
          "internalType": "bool",
          "name": "",
          "type": "bool"
        }
      ],
      "stateMutability": "view",
      "type": "function"
    },
    {
      "inputs": [
        {
          "internalType": "bytes4",
          "name": "interfaceId",
          "type": "bytes4"
        }
      ],
      "name": "supportsInterface",
      "outputs": [
        {
          "internalType": "bool",
          "name": "",
          "type": "bool"
        }
      ],
      "stateMutability": "view",
      "type": "function"
    },
    {
      "inputs": [],
      "name": "symbol",
      "outputs": [
        {
          "internalType": "string",
          "name": "",
          "type": "string"
        }
      ],
      "stateMutability": "view",
      "type": "function"
    },
    {
      "inputs": [
        {
          "internalType": "uint256",
          "name": "tokenId",
          "type": "uint256"
        }
      ],
      "name": "tokenURI",
      "outputs": [
        {
          "internalType": "string",
          "name": "",
          "type": "string"
        }
      ],
      "stateMutability": "view",
      "type": "function"
    },
    {
      "inputs": [
        {
          "internalType": "address",
          "name": "from",
          "type": "address"
        },
        {
          "internalType": "address",
          "name": "to",
          "type": "address"
        },
        {
          "internalType": "uint256",
          "name": "tokenId",
          "type": "uint256"
        }
      ],
      "name": "transferFrom",
      "outputs": [],
      "stateMutability": "nonpayable",
      "type": "function"
    },
    {
      "inputs": [
        {
          "internalType": "address",
          "name": "newOwner",
          "type": "address"
        }
      ],
      "name": "transferOwnership",
      "outputs": [],
      "stateMutability": "nonpayable",
      "type": "function"
    },
    {
      "inputs": [
        {
          "internalType": "uint256",
          "name": "tokenId",
          "type": "uint256"
        },
        {
          "internalType": "string",
          "name": "uri",
          "type": "string"
        }
      ],
      "name": "updateAnswerUri",
      "outputs": [],
      "stateMutability": "nonpayable",
      "type": "function"
    },
    {
      "inputs": [
        {
          "internalType": "uint256",
          "name": "tokenId",
          "type": "uint256"
        },
        {
          "internalType": "uint256",
          "name": "power",
          "type": "uint256"
        },
        {
          "internalType": "uint256",
          "name": "deadline",
          "type": "uint256"
        },
        {
          "internalType": "bytes",
          "name": "signature",
          "type": "bytes"
        }
      ],
      "name": "updatePower",
      "outputs": [],
      "stateMutability": "nonpayable",
      "type": "function"
    },
    {
      "inputs": [
        {
          "internalType": "uint256",
          "name": "tokenId",
          "type": "uint256"
        },
        {
          "internalType": "uint256",
          "name": "power",
          "type": "uint256"
        },
        {
          "internalType": "uint256",
          "name": "deadline",
          "type": "uint256"
        }
      ],
      "name": "updatePower",
      "outputs": [],
      "stateMutability": "nonpayable",
      "type": "function"
    },
    {
      "inputs": [
        {
          "internalType": "address",
          "name": "newImplementation",
          "type": "address"
        }
      ],
      "name": "upgradeTo",
      "outputs": [],
      "stateMutability": "nonpayable",
      "type": "function"
    },
    {
      "inputs": [
        {
          "internalType": "address",
          "name": "newImplementation",
          "type": "address"
        },
        {
          "internalType": "bytes",
          "name": "data",
          "type": "bytes"
        }
      ],
      "name": "upgradeToAndCall",
      "outputs": [],
      "stateMutability": "payable",
      "type": "function"
    }
  ],
  "transactionHash": "0x13e315a18a99ed2ca72cfdf71174ed81a0ff7a5ee4c0929c785c5172b1d5bffe",
  "args": [
    "0xE140DdB5aC69e81358571C0401aF66476490d093"
  ],
  "numDeployments": 3,
  "solcInputHash": "bee0938c67500661d8f791f79e616851",
  "bytecode": "0x60c06040523060a0523480156200001557600080fd5b5060405162003b5838038062003b5883398101604081905262000038916200004a565b6001600160a01b03166080526200007c565b6000602082840312156200005d57600080fd5b81516001600160a01b03811681146200007557600080fd5b9392505050565b60805160a051613a93620000c560003960008181610c9b01528181610d3101528181610e8b01528181610f21015261101c0152600081816103ed01526124e50152613a936000f3fe6080604052600436106101e35760003560e01c806370a0823111610102578063b88d4fde11610095578063ce56d14b11610064578063ce56d14b146105b9578063d84a500a146105d9578063e985e9c5146105f9578063f2fde38b1461064357600080fd5b8063b88d4fde14610544578063ba93f88914610564578063bab4dde014610579578063c87b56dd1461059957600080fd5b806395d89b41116100d157806395d89b41146104c15780639c6d2976146104d6578063a22cb46514610504578063a523d35e1461052457600080fd5b806370a082311461043d578063715018a61461045d578063736c0d5b146104725780638da5cb5b146104a357600080fd5b806331cb61051161017a5780634f1ef286116101495780634f1ef2861461039a57806352d1902d146103ad578063572b6c05146103d05780636352211e1461041d57600080fd5b806331cb61051461031a5780633659cfe61461033a57806342842e0e1461035a57806348c7ac941461037a57600080fd5b80631ab51883116101b65780631ab51883146102995780631ee0df90146102ba57806323b872dd146102da5780632432d413146102fa57600080fd5b806301ffc9a7146101e857806306fdde031461021d578063081812fc1461023f578063095ea7b314610277575b600080fd5b3480156101f457600080fd5b50610208610203366004612ef0565b610663565b60405190151581526020015b60405180910390f35b34801561022957600080fd5b50610232610748565b6040516102149190612f5d565b34801561024b57600080fd5b5061025f61025a366004612f70565b6107db565b6040516001600160a01b039091168152602001610214565b34801561028357600080fd5b50610297610292366004612fa5565b610803565b005b3480156102a557600080fd5b506101945461025f906001600160a01b031681565b3480156102c657600080fd5b506102976102d5366004613011565b61094b565b3480156102e657600080fd5b506102976102f5366004613072565b610b34565b34801561030657600080fd5b50610232610315366004612f70565b610bc2565b34801561032657600080fd5b506102976103353660046130ae565b610c5d565b34801561034657600080fd5b506102976103553660046130ea565b610c91565b34801561036657600080fd5b50610297610375366004613072565b610e2e565b34801561038657600080fd5b506102976103953660046130ea565b610e49565b6102976103a83660046131ca565b610e81565b3480156103b957600080fd5b506103c261100f565b604051908152602001610214565b3480156103dc57600080fd5b506102086103eb3660046130ea565b7f00000000000000000000000000000000000000000000000000000000000000006001600160a01b0390811691161490565b34801561042957600080fd5b5061025f610438366004612f70565b6110d4565b34801561044957600080fd5b506103c26104583660046130ea565b61113a565b34801561046957600080fd5b506102976111d5565b34801561047e57600080fd5b5061020861048d3660046130ea565b6101966020526000908152604090205460ff1681565b3480156104af57600080fd5b506065546001600160a01b031661025f565b3480156104cd57600080fd5b506102326111e9565b3480156104e257600080fd5b506103c26104f1366004612f70565b6000908152610197602052604090205490565b34801561051057600080fd5b5061029761051f3660046130ae565b6111f9565b34801561053057600080fd5b5061029761053f366004613218565b61120b565b34801561055057600080fd5b5061029761055f3660046132dc565b611428565b34801561057057600080fd5b506102976114bd565b34801561058557600080fd5b50610297610594366004613344565b611544565b3480156105a557600080fd5b506102326105b4366004612f70565b611622565b3480156105c557600080fd5b506102976105d4366004613370565b611739565b3480156105e557600080fd5b506102976105f43660046130ea565b6117c3565b34801561060557600080fd5b506102086106143660046133bc565b6001600160a01b0391821660009081526101326020908152604080832093909416825291909152205460ff1690565b34801561064f57600080fd5b5061029761065e3660046130ea565b611842565b60007fffffffff0000000000000000000000000000000000000000000000000000000082167f80ac58cd0000000000000000000000000000000000000000000000000000000014806106f657507fffffffff0000000000000000000000000000000000000000000000000000000082167f5b5e139f00000000000000000000000000000000000000000000000000000000145b8061074257507f01ffc9a7000000000000000000000000000000000000000000000000000000007fffffffff000000000000000000000000000000000000000000000000000000008316145b92915050565b606061012d8054610758906133ef565b80601f0160208091040260200160405190810160405280929190818152602001828054610784906133ef565b80156107d15780601f106107a6576101008083540402835291602001916107d1565b820191906000526020600020905b8154815290600101906020018083116107b457829003601f168201915b5050505050905090565b60006107e6826118cf565b50600090815261013160205260409020546001600160a01b031690565b600061080e826110d4565b9050806001600160a01b0316836001600160a01b03160361089c5760405162461bcd60e51b815260206004820152602160248201527f4552433732313a20617070726f76616c20746f2063757272656e74206f776e6560448201527f720000000000000000000000000000000000000000000000000000000000000060648201526084015b60405180910390fd5b806001600160a01b03166108ae611934565b6001600160a01b031614806108ca57506108ca81610614611934565b61093c5760405162461bcd60e51b815260206004820152603e60248201527f4552433732313a20617070726f76652063616c6c6572206973206e6f7420746f60448201527f6b656e206f776e6572206e6f7220617070726f76656420666f7220616c6c00006064820152608401610893565b6109468383611943565b505050565b610953611934565b6001600160a01b0316610965866110d4565b6001600160a01b0316146109bb5760405162461bcd60e51b815260206004820152601a60248201527f503132417263616e613a206e6f7420746f6b656e206f776e65720000000000006044820152606401610893565b428311610a0a5760405162461bcd60e51b815260206004820152601760248201527f503132417263616e613a206f75746461746564207369670000000000000000006044820152606401610893565b6000610aac83838080601f01602080910402602001604051908101604052809392919081815260200183838082843760009201919091525050604080517f3cfb1c50437bb2e0aaf2c6e1cc667ef8281e73877eb4a30d99a348b424d2281860208201529081018b9052606081018a905260808101899052610aa6925060a0019050604051602081830303815290604052805190602001206119bf565b90611a28565b6001600160a01b0381166000908152610196602052604090205490915060ff161515600114610b1d5760405162461bcd60e51b815260206004820152601e60248201527f503132417263616e613a20736967206e6f742066726f6d207369676e657200006044820152606401610893565b505050600092835250610197602052604090912055565b610b45610b3f611934565b82611a4c565b610bb75760405162461bcd60e51b815260206004820152602e60248201527f4552433732313a2063616c6c6572206973206e6f7420746f6b656e206f776e6560448201527f72206e6f7220617070726f7665640000000000000000000000000000000000006064820152608401610893565b610946838383611acc565b6101986020526000908152604090208054610bdc906133ef565b80601f0160208091040260200160405190810160405280929190818152602001828054610c08906133ef565b8015610c555780601f10610c2a57610100808354040283529160200191610c55565b820191906000526020600020905b815481529060010190602001808311610c3857829003601f168201915b505050505081565b610c65611ca9565b6001600160a01b0391909116600090815261019660205260409020805460ff1916911515919091179055565b6001600160a01b037f0000000000000000000000000000000000000000000000000000000000000000163003610d2f5760405162461bcd60e51b815260206004820152602c60248201527f46756e6374696f6e206d7573742062652063616c6c6564207468726f7567682060448201527f64656c656761746563616c6c00000000000000000000000000000000000000006064820152608401610893565b7f00000000000000000000000000000000000000000000000000000000000000006001600160a01b0316610d8a7f360894a13ba1a3210667c828492db98dca3e2076cc3735a920a3ca505d382bbc546001600160a01b031690565b6001600160a01b031614610e065760405162461bcd60e51b815260206004820152602c60248201527f46756e6374696f6e206d7573742062652063616c6c6564207468726f7567682060448201527f6163746976652070726f787900000000000000000000000000000000000000006064820152608401610893565b610e0f81611d22565b60408051600080825260208201909252610e2b91839190611d2a565b50565b61094683838360405180602001604052806000815250611428565b610e51611ca9565b610194805473ffffffffffffffffffffffffffffffffffffffff19166001600160a01b0392909216919091179055565b6001600160a01b037f0000000000000000000000000000000000000000000000000000000000000000163003610f1f5760405162461bcd60e51b815260206004820152602c60248201527f46756e6374696f6e206d7573742062652063616c6c6564207468726f7567682060448201527f64656c656761746563616c6c00000000000000000000000000000000000000006064820152608401610893565b7f00000000000000000000000000000000000000000000000000000000000000006001600160a01b0316610f7a7f360894a13ba1a3210667c828492db98dca3e2076cc3735a920a3ca505d382bbc546001600160a01b031690565b6001600160a01b031614610ff65760405162461bcd60e51b815260206004820152602c60248201527f46756e6374696f6e206d7573742062652063616c6c6564207468726f7567682060448201527f6163746976652070726f787900000000000000000000000000000000000000006064820152608401610893565b610fff82611d22565b61100b82826001611d2a565b5050565b6000306001600160a01b037f000000000000000000000000000000000000000000000000000000000000000016146110af5760405162461bcd60e51b815260206004820152603860248201527f555550535570677261646561626c653a206d757374206e6f742062652063616c60448201527f6c6564207468726f7567682064656c656761746563616c6c00000000000000006064820152608401610893565b507f360894a13ba1a3210667c828492db98dca3e2076cc3735a920a3ca505d382bbc90565b600081815261012f60205260408120546001600160a01b0316806107425760405162461bcd60e51b815260206004820152601860248201527f4552433732313a20696e76616c696420746f6b656e20494400000000000000006044820152606401610893565b60006001600160a01b0382166111b85760405162461bcd60e51b815260206004820152602960248201527f4552433732313a2061646472657373207a65726f206973206e6f74206120766160448201527f6c6964206f776e657200000000000000000000000000000000000000000000006064820152608401610893565b506001600160a01b03166000908152610130602052604090205490565b6111dd611ca9565b6111e76000611eca565b565b606061012e8054610758906133ef565b61100b611204611934565b8383611f29565b600054610100900460ff161580801561122b5750600054600160ff909116105b806112455750303b158015611245575060005460ff166001145b6112b75760405162461bcd60e51b815260206004820152602e60248201527f496e697469616c697a61626c653a20636f6e747261637420697320616c72656160448201527f647920696e697469616c697a65640000000000000000000000000000000000006064820152608401610893565b6000805460ff1916600117905580156112da576000805461ff0019166101001790555b6101956112e8838583613477565b506112f1611ff8565b61136489898080601f01602080910402602001604051908101604052809392919081815260200183838082843760009201919091525050604080516020601f8d018190048102820181019092528b815292508b91508a908190840183828082843760009201919091525061208592505050565b6113d789898080601f01602080910402602001604051908101604052809392919081815260200183838082843760009201919091525050604080516020601f8b01819004810282018101909252898152925089915088908190840183828082843760009201919091525061211d92505050565b801561141d576000805461ff0019169055604051600181527f7f26b83ff96e1f2b6a682f133852f6798a09c465da95921460cefb38474024989060200160405180910390a15b505050505050505050565b611439611433611934565b83611a4c565b6114ab5760405162461bcd60e51b815260206004820152602e60248201527f4552433732313a2063616c6c6572206973206e6f7420746f6b656e206f776e6560448201527f72206e6f7220617070726f7665640000000000000000000000000000000000006064820152608401610893565b6114b7848484846121b6565b50505050565b6114c8610458611934565b156115155760405162461bcd60e51b815260206004820152601c60248201527f503132417263616e613a20616c726561647920686176652070617373000000006044820152606401610893565b611529611520611934565b6101935461223f565b6001610193600082825461153d919061354e565b9091555050565b6101966000611551611934565b6001600160a01b0316815260208101919091526040016000205460ff1615156001146115bf5760405162461bcd60e51b815260206004820152601560248201527f503132417263616e613a206e6f74207369676e657200000000000000000000006044820152606401610893565b42811161160e5760405162461bcd60e51b815260206004820152601760248201527f503132417263616e613a206f75746461746564207369670000000000000000006044820152606401610893565b506000918252610197602052604090912055565b606061162d826118cf565b610194546040517fa2d6c6da000000000000000000000000000000000000000000000000000000008152600481018490526000916001600160a01b03169063a2d6c6da90602401600060405180830381865afa158015611691573d6000803e3d6000fd5b505050506040513d6000823e601f3d908101601f191682016040526116b99190810190613561565b9050600061170e6116c8610748565b600086815261019760205260409020546101959085906116e790612259565b6040516020016116fa94939291906135eb565b60405160208183030381529060405261238e565b90508060405160200161172191906137b5565b60405160208183030381529060405292505050919050565b611741611934565b6001600160a01b0316611753846110d4565b6001600160a01b0316146117a95760405162461bcd60e51b815260206004820152601a60248201527f503132417263616e613a206e6f7420746f6b656e206f776e65720000000000006044820152606401610893565b6000838152610198602052604090206114b7828483613477565b6117cc8161113a565b156118195760405162461bcd60e51b815260206004820152601c60248201527f503132417263616e613a20616c726561647920686176652070617373000000006044820152606401610893565b611826816101935461223f565b6001610193600082825461183a919061354e565b909155505050565b61184a611ca9565b6001600160a01b0381166118c65760405162461bcd60e51b815260206004820152602660248201527f4f776e61626c653a206e6577206f776e657220697320746865207a65726f206160448201527f64647265737300000000000000000000000000000000000000000000000000006064820152608401610893565b610e2b81611eca565b600081815261012f60205260409020546001600160a01b0316610e2b5760405162461bcd60e51b815260206004820152601860248201527f4552433732313a20696e76616c696420746f6b656e20494400000000000000006044820152606401610893565b600061193e6124e1565b905090565b600081815261013160205260409020805473ffffffffffffffffffffffffffffffffffffffff19166001600160a01b0384169081179091558190611986826110d4565b6001600160a01b03167f8c5be1e5ebec7d5bd14f71427d1e84f3dd0314c0f7b2291e5b200ac8c7c3b92560405160405180910390a45050565b60006107426119cc612543565b836040517f19010000000000000000000000000000000000000000000000000000000000006020820152602281018390526042810182905260009060620160405160208183030381529060405280519060200120905092915050565b6000806000611a37858561257c565b91509150611a44816125c1565b509392505050565b600080611a58836110d4565b9050806001600160a01b0316846001600160a01b03161480611aa057506001600160a01b038082166000908152610132602090815260408083209388168352929052205460ff165b80611ac45750836001600160a01b0316611ab9846107db565b6001600160a01b0316145b949350505050565b826001600160a01b0316611adf826110d4565b6001600160a01b031614611b5b5760405162461bcd60e51b815260206004820152602560248201527f4552433732313a207472616e736665722066726f6d20696e636f72726563742060448201527f6f776e65720000000000000000000000000000000000000000000000000000006064820152608401610893565b6001600160a01b038216611bd65760405162461bcd60e51b8152602060048201526024808201527f4552433732313a207472616e7366657220746f20746865207a65726f2061646460448201527f72657373000000000000000000000000000000000000000000000000000000006064820152608401610893565b611be1600082611943565b6001600160a01b038316600090815261013060205260408120805460019290611c0b9084906137fa565b90915550506001600160a01b038216600090815261013060205260408120805460019290611c3a90849061354e565b9091555050600081815261012f6020526040808220805473ffffffffffffffffffffffffffffffffffffffff19166001600160a01b0386811691821790925591518493918716917fddf252ad1be2c89b69c2b068fc378daa952ba7f163c4a11628f55a4df523b3ef91a4505050565b611cb1611934565b6001600160a01b0316611ccc6065546001600160a01b031690565b6001600160a01b0316146111e75760405162461bcd60e51b815260206004820181905260248201527f4f776e61626c653a2063616c6c6572206973206e6f7420746865206f776e65726044820152606401610893565b610e2b611ca9565b7f4910fdfa16fed3260ed0e7147f7cc6da11a60208b5b9406d12a635614ffd91435460ff1615611d5d57610946836127ad565b826001600160a01b03166352d1902d6040518163ffffffff1660e01b8152600401602060405180830381865afa925050508015611db7575060408051601f3d908101601f19168201909252611db49181019061380d565b60015b611e295760405162461bcd60e51b815260206004820152602e60248201527f45524331393637557067726164653a206e657720696d706c656d656e7461746960448201527f6f6e206973206e6f7420555550530000000000000000000000000000000000006064820152608401610893565b7f360894a13ba1a3210667c828492db98dca3e2076cc3735a920a3ca505d382bbc8114611ebe5760405162461bcd60e51b815260206004820152602960248201527f45524331393637557067726164653a20756e737570706f727465642070726f7860448201527f6961626c655555494400000000000000000000000000000000000000000000006064820152608401610893565b50610946838383612878565b606580546001600160a01b0383811673ffffffffffffffffffffffffffffffffffffffff19831681179093556040519116919082907f8be0079c531659141344cd1fd0a4f28419497f9722a3daafe3b4186f6b6457e090600090a35050565b816001600160a01b0316836001600160a01b031603611f8a5760405162461bcd60e51b815260206004820152601960248201527f4552433732313a20617070726f766520746f2063616c6c6572000000000000006044820152606401610893565b6001600160a01b0383811660008181526101326020908152604080832094871680845294825291829020805460ff191686151590811790915591519182527f17307eab39ab6107e8899845ad3d59bd9653f200f220920489ca2b5937696c31910160405180910390a3505050565b600054610100900460ff166120755760405162461bcd60e51b815260206004820152602b60248201527f496e697469616c697a61626c653a20636f6e7472616374206973206e6f74206960448201527f6e697469616c697a696e670000000000000000000000000000000000000000006064820152608401610893565b6111e7612080611934565b611eca565b600054610100900460ff166121025760405162461bcd60e51b815260206004820152602b60248201527f496e697469616c697a61626c653a20636f6e7472616374206973206e6f74206960448201527f6e697469616c697a696e670000000000000000000000000000000000000000006064820152608401610893565b61012d61210f8382613826565b5061012e6109468282613826565b600054610100900460ff1661219a5760405162461bcd60e51b815260206004820152602b60248201527f496e697469616c697a61626c653a20636f6e7472616374206973206e6f74206960448201527f6e697469616c697a696e670000000000000000000000000000000000000000006064820152608401610893565b81516020928301208151919092012061015f9190915561016055565b6121c1848484611acc565b6121cd8484848461289d565b6114b75760405162461bcd60e51b815260206004820152603260248201527f4552433732313a207472616e7366657220746f206e6f6e20455243373231526560448201527f63656976657220696d706c656d656e74657200000000000000000000000000006064820152608401610893565b61100b828260405180602001604052806000815250612a2c565b60608160000361229c57505060408051808201909152600181527f3000000000000000000000000000000000000000000000000000000000000000602082015290565b8160005b81156122c657806122b0816138e6565b91506122bf9050600a83613916565b91506122a0565b60008167ffffffffffffffff8111156122e1576122e1613105565b6040519080825280601f01601f19166020018201604052801561230b576020820181803683370190505b5090505b8415611ac4576123206001836137fa565b915061232d600a8661392a565b61233890603061354e565b60f81b81838151811061234d5761234d61393e565b60200101907effffffffffffffffffffffffffffffffffffffffffffffffffffffffffffff1916908160001a905350612387600a86613916565b945061230f565b606081516000036123ad57505060408051602081019091526000815290565b60006040518060600160405280604081526020016139f760409139905060006003845160026123dc919061354e565b6123e69190613916565b6123f1906004613954565b67ffffffffffffffff81111561240957612409613105565b6040519080825280601f01601f191660200182016040528015612433576020820181803683370190505b509050600182016020820185865187015b8082101561249f576003820191508151603f8160121c168501518453600184019350603f81600c1c168501518453600184019350603f8160061c168501518453600184019350603f8116850151845350600183019250612444565b50506003865106600181146124bb57600281146124ce576124d6565b603d6001830353603d60028303536124d6565b603d60018303535b509195945050505050565b60007f00000000000000000000000000000000000000000000000000000000000000006001600160a01b0316330361253e57507fffffffffffffffffffffffffffffffffffffffffffffffffffffffffffffffec36013560601c90565b503390565b600061193e7f8b73c3c69bb8fe3d512ecc4cf759cc79239f7b179b0ffacaa9a75d522b39400f61257361015f5490565b61016054612ab5565b60008082516041036125b25760208301516040840151606085015160001a6125a687828585612aff565b945094505050506125ba565b506000905060025b9250929050565b60008160048111156125d5576125d561396b565b036125dd5750565b60018160048111156125f1576125f161396b565b0361263e5760405162461bcd60e51b815260206004820152601860248201527f45434453413a20696e76616c6964207369676e617475726500000000000000006044820152606401610893565b60028160048111156126525761265261396b565b0361269f5760405162461bcd60e51b815260206004820152601f60248201527f45434453413a20696e76616c6964207369676e6174757265206c656e677468006044820152606401610893565b60038160048111156126b3576126b361396b565b036127265760405162461bcd60e51b815260206004820152602260248201527f45434453413a20696e76616c6964207369676e6174757265202773272076616c60448201527f75650000000000000000000000000000000000000000000000000000000000006064820152608401610893565b600481600481111561273a5761273a61396b565b03610e2b5760405162461bcd60e51b815260206004820152602260248201527f45434453413a20696e76616c6964207369676e6174757265202776272076616c60448201527f75650000000000000000000000000000000000000000000000000000000000006064820152608401610893565b6001600160a01b0381163b61282a5760405162461bcd60e51b815260206004820152602d60248201527f455243313936373a206e657720696d706c656d656e746174696f6e206973206e60448201527f6f74206120636f6e7472616374000000000000000000000000000000000000006064820152608401610893565b7f360894a13ba1a3210667c828492db98dca3e2076cc3735a920a3ca505d382bbc805473ffffffffffffffffffffffffffffffffffffffff19166001600160a01b0392909216919091179055565b61288183612bec565b60008251118061288e5750805b15610946576114b78383612c2c565b60006001600160a01b0384163b15612a2157836001600160a01b031663150b7a026128c6611934565b8786866040518563ffffffff1660e01b81526004016128e89493929190613981565b6020604051808303816000875af1925050508015612923575060408051601f3d908101601f19168201909252612920918101906139bd565b60015b6129d6573d808015612951576040519150601f19603f3d011682016040523d82523d6000602084013e612956565b606091505b5080516000036129ce5760405162461bcd60e51b815260206004820152603260248201527f4552433732313a207472616e7366657220746f206e6f6e20455243373231526560448201527f63656976657220696d706c656d656e74657200000000000000000000000000006064820152608401610893565b805181602001fd5b7fffffffff00000000000000000000000000000000000000000000000000000000167f150b7a0200000000000000000000000000000000000000000000000000000000149050611ac4565b506001949350505050565b612a368383612d37565b612a43600084848461289d565b6109465760405162461bcd60e51b815260206004820152603260248201527f4552433732313a207472616e7366657220746f206e6f6e20455243373231526560448201527f63656976657220696d706c656d656e74657200000000000000000000000000006064820152608401610893565b6040805160208101859052908101839052606081018290524660808201523060a082015260009060c0016040516020818303038152906040528051906020012090505b9392505050565b6000807f7fffffffffffffffffffffffffffffff5d576e7357a4501ddfe92f46681b20a0831115612b365750600090506003612be3565b8460ff16601b14158015612b4e57508460ff16601c14155b15612b5f5750600090506004612be3565b6040805160008082526020820180845289905260ff881692820192909252606081018690526080810185905260019060a0016020604051602081039080840390855afa158015612bb3573d6000803e3d6000fd5b5050604051601f1901519150506001600160a01b038116612bdc57600060019250925050612be3565b9150600090505b94509492505050565b612bf5816127ad565b6040516001600160a01b038216907fbc7cd75a20ee27fd9adebab32041f755214dbc6bffa90cc0225b39da2e5c2d3b90600090a250565b60606001600160a01b0383163b612cab5760405162461bcd60e51b815260206004820152602660248201527f416464726573733a2064656c65676174652063616c6c20746f206e6f6e2d636f60448201527f6e747261637400000000000000000000000000000000000000000000000000006064820152608401610893565b600080846001600160a01b031684604051612cc691906139da565b600060405180830381855af49150503d8060008114612d01576040519150601f19603f3d011682016040523d82523d6000602084013e612d06565b606091505b5091509150612d2e8282604051806060016040528060278152602001613a3760279139612e89565b95945050505050565b6001600160a01b038216612d8d5760405162461bcd60e51b815260206004820181905260248201527f4552433732313a206d696e7420746f20746865207a65726f20616464726573736044820152606401610893565b600081815261012f60205260409020546001600160a01b031615612df35760405162461bcd60e51b815260206004820152601c60248201527f4552433732313a20746f6b656e20616c7265616479206d696e746564000000006044820152606401610893565b6001600160a01b038216600090815261013060205260408120805460019290612e1d90849061354e565b9091555050600081815261012f6020526040808220805473ffffffffffffffffffffffffffffffffffffffff19166001600160a01b03861690811790915590518392907fddf252ad1be2c89b69c2b068fc378daa952ba7f163c4a11628f55a4df523b3ef908290a45050565b60608315612e98575081612af8565b825115612ea85782518084602001fd5b8160405162461bcd60e51b81526004016108939190612f5d565b7fffffffff0000000000000000000000000000000000000000000000000000000081168114610e2b57600080fd5b600060208284031215612f0257600080fd5b8135612af881612ec2565b60005b83811015612f28578181015183820152602001612f10565b50506000910152565b60008151808452612f49816020860160208601612f0d565b601f01601f19169290920160200192915050565b602081526000612af86020830184612f31565b600060208284031215612f8257600080fd5b5035919050565b80356001600160a01b0381168114612fa057600080fd5b919050565b60008060408385031215612fb857600080fd5b612fc183612f89565b946020939093013593505050565b60008083601f840112612fe157600080fd5b50813567ffffffffffffffff811115612ff957600080fd5b6020830191508360208285010111156125ba57600080fd5b60008060008060006080868803121561302957600080fd5b853594506020860135935060408601359250606086013567ffffffffffffffff81111561305557600080fd5b61306188828901612fcf565b969995985093965092949392505050565b60008060006060848603121561308757600080fd5b61309084612f89565b925061309e60208501612f89565b9150604084013590509250925092565b600080604083850312156130c157600080fd5b6130ca83612f89565b9150602083013580151581146130df57600080fd5b809150509250929050565b6000602082840312156130fc57600080fd5b612af882612f89565b634e487b7160e01b600052604160045260246000fd5b604051601f8201601f1916810167ffffffffffffffff8111828210171561314457613144613105565b604052919050565b600067ffffffffffffffff82111561316657613166613105565b50601f01601f191660200190565b600082601f83011261318557600080fd5b81356131986131938261314c565b61311b565b8181528460208386010111156131ad57600080fd5b816020850160208301376000918101602001919091529392505050565b600080604083850312156131dd57600080fd5b6131e683612f89565b9150602083013567ffffffffffffffff81111561320257600080fd5b61320e85828601613174565b9150509250929050565b6000806000806000806000806080898b03121561323457600080fd5b883567ffffffffffffffff8082111561324c57600080fd5b6132588c838d01612fcf565b909a50985060208b013591508082111561327157600080fd5b61327d8c838d01612fcf565b909850965060408b013591508082111561329657600080fd5b6132a28c838d01612fcf565b909650945060608b01359150808211156132bb57600080fd5b506132c88b828c01612fcf565b999c989b5096995094979396929594505050565b600080600080608085870312156132f257600080fd5b6132fb85612f89565b935061330960208601612f89565b925060408501359150606085013567ffffffffffffffff81111561332c57600080fd5b61333887828801613174565b91505092959194509250565b60008060006060848603121561335957600080fd5b505081359360208301359350604090920135919050565b60008060006040848603121561338557600080fd5b83359250602084013567ffffffffffffffff8111156133a357600080fd5b6133af86828701612fcf565b9497909650939450505050565b600080604083850312156133cf57600080fd5b6133d883612f89565b91506133e660208401612f89565b90509250929050565b600181811c9082168061340357607f821691505b60208210810361342357634e487b7160e01b600052602260045260246000fd5b50919050565b601f82111561094657600081815260208120601f850160051c810160208610156134505750805b601f850160051c820191505b8181101561346f5782815560010161345c565b505050505050565b67ffffffffffffffff83111561348f5761348f613105565b6134a38361349d83546133ef565b83613429565b6000601f8411600181146134d757600085156134bf5750838201355b600019600387901b1c1916600186901b178355613531565b600083815260209020601f19861690835b8281101561350857868501358255602094850194600190920191016134e8565b50868210156135255760001960f88860031b161c19848701351681555b505060018560011b0183555b5050505050565b634e487b7160e01b600052601160045260246000fd5b8082018082111561074257610742613538565b60006020828403121561357357600080fd5b815167ffffffffffffffff81111561358a57600080fd5b8201601f8101841361359b57600080fd5b80516135a96131938261314c565b8181528560208385010111156135be57600080fd5b612d2e826020830160208601612f0d565b600081516135e1818560208601612f0d565b9290920192915050565b7f7b226e616d65223a202200000000000000000000000000000000000000000000815260008551602061362482600a8601838b01612f0d565b81840191507f222c226465736372697074696f6e223a22000000000000000000000000000000600a830152601b6000885461365e816133ef565b60018281168015613676576001811461368f576136bf565b60ff1984168689015285831515840289010194506136bf565b8c6000528660002060005b848110156136b55781548a820189015290830190880161369a565b5050858389010194505b505050506136ec817f222c22696d616765223a220000000000000000000000000000000000000000009052565b61377a6137746136ff600b84018b6135cf565b7f222c2261747472696275746573223a205b7b22646973706c61795f747970652281527f3a20226e756d626572222c2274726169745f74797065223a2022706f7765722260208201527f2c2276616c7565223a20000000000000000000000000000000000000000000006040820152604a0190565b886135cf565b93505050506137a8817f7d5d7d00000000000000000000000000000000000000000000000000000000009052565b6003019695505050505050565b7f646174613a6170706c69636174696f6e2f6a736f6e3b6261736536342c0000008152600082516137ed81601d850160208701612f0d565b91909101601d0192915050565b8181038181111561074257610742613538565b60006020828403121561381f57600080fd5b5051919050565b815167ffffffffffffffff81111561384057613840613105565b6138548161384e84546133ef565b84613429565b602080601f83116001811461388957600084156138715750858301515b600019600386901b1c1916600185901b17855561346f565b600085815260208120601f198616915b828110156138b857888601518255948401946001909101908401613899565b50858210156138d65787850151600019600388901b60f8161c191681555b5050505050600190811b01905550565b600060001982036138f9576138f9613538565b5060010190565b634e487b7160e01b600052601260045260246000fd5b60008261392557613925613900565b500490565b60008261393957613939613900565b500690565b634e487b7160e01b600052603260045260246000fd5b808202811582820484141761074257610742613538565b634e487b7160e01b600052602160045260246000fd5b60006001600160a01b038087168352808616602084015250836040830152608060608301526139b36080830184612f31565b9695505050505050565b6000602082840312156139cf57600080fd5b8151612af881612ec2565b600082516139ec818460208701612f0d565b919091019291505056fe4142434445464748494a4b4c4d4e4f505152535455565758595a6162636465666768696a6b6c6d6e6f707172737475767778797a303132333435363738392b2f416464726573733a206c6f772d6c6576656c2064656c65676174652063616c6c206661696c6564a26469706673582212207e16d545f2b4abda4f041de9ca09320b3f6c4378c596db73a311d8b1b9cb47bc64736f6c63430008110033",
  "devdoc": {
    "kind": "dev",
    "methods": {
      "approve(address,uint256)": {
        "details": "See {IERC721-approve}."
      },
      "balanceOf(address)": {
        "details": "See {IERC721-balanceOf}."
      },
      "getApproved(uint256)": {
        "details": "See {IERC721-getApproved}."
      },
      "isApprovedForAll(address,address)": {
        "details": "See {IERC721-isApprovedForAll}."
      },
      "name()": {
        "details": "See {IERC721Metadata-name}."
      },
      "owner()": {
        "details": "Returns the address of the current owner."
      },
      "ownerOf(uint256)": {
        "details": "See {IERC721-ownerOf}."
      },
      "proxiableUUID()": {
        "details": "Implementation of the ERC1822 {proxiableUUID} function. This returns the storage slot used by the implementation. It is used to validate that the this implementation remains valid after an upgrade. IMPORTANT: A proxy pointing at a proxiable contract should not be considered proxiable itself, because this risks bricking a proxy that upgrades to it, by delegating to itself until out of gas. Thus it is critical that this function revert if invoked through a proxy. This is guaranteed by the `notDelegated` modifier."
      },
      "renounceOwnership()": {
        "details": "Leaves the contract without owner. It will not be possible to call `onlyOwner` functions anymore. Can only be called by the current owner. NOTE: Renouncing ownership will leave the contract without an owner, thereby removing any functionality that is only available to the owner."
      },
      "safeTransferFrom(address,address,uint256)": {
        "details": "See {IERC721-safeTransferFrom}."
      },
      "safeTransferFrom(address,address,uint256,bytes)": {
        "details": "See {IERC721-safeTransferFrom}."
      },
      "setApprovalForAll(address,bool)": {
        "details": "See {IERC721-setApprovalForAll}."
      },
      "supportsInterface(bytes4)": {
        "details": "See {IERC165-supportsInterface}."
      },
      "symbol()": {
        "details": "See {IERC721Metadata-symbol}."
      },
      "tokenURI(uint256)": {
        "details": "See {IERC721Metadata-tokenURI}."
      },
      "transferFrom(address,address,uint256)": {
        "details": "See {IERC721-transferFrom}."
      },
      "transferOwnership(address)": {
        "details": "Transfers ownership of the contract to a new account (`newOwner`). Can only be called by the current owner."
      },
      "upgradeTo(address)": {
        "details": "Upgrade the implementation of the proxy to `newImplementation`. Calls {_authorizeUpgrade}. Emits an {Upgraded} event."
      },
      "upgradeToAndCall(address,bytes)": {
        "details": "Upgrade the implementation of the proxy to `newImplementation`, and subsequently execute the function call encoded in `data`. Calls {_authorizeUpgrade}. Emits an {Upgraded} event."
      }
    },
    "version": 1
  },
  "userdoc": {
    "kind": "user",
    "methods": {},
    "version": 1
  },
  "storageLayout": {
    "storage": [
      {
        "astId": 614,
        "contract": "contracts/P12ArcanaUpgradable.sol:P12ArcanaUpgradable",
        "label": "_initialized",
        "offset": 0,
        "slot": "0",
        "type": "t_uint8"
      },
      {
        "astId": 617,
        "contract": "contracts/P12ArcanaUpgradable.sol:P12ArcanaUpgradable",
        "label": "_initializing",
        "offset": 1,
        "slot": "0",
        "type": "t_bool"
      },
      {
        "astId": 2231,
        "contract": "contracts/P12ArcanaUpgradable.sol:P12ArcanaUpgradable",
        "label": "__gap",
        "offset": 0,
        "slot": "1",
        "type": "t_array(t_uint256)50_storage"
      },
      {
        "astId": 227,
        "contract": "contracts/P12ArcanaUpgradable.sol:P12ArcanaUpgradable",
        "label": "__gap",
        "offset": 0,
        "slot": "51",
        "type": "t_array(t_uint256)50_storage"
      },
      {
        "astId": 10,
        "contract": "contracts/P12ArcanaUpgradable.sol:P12ArcanaUpgradable",
        "label": "_owner",
        "offset": 0,
        "slot": "101",
        "type": "t_address"
      },
      {
        "astId": 130,
        "contract": "contracts/P12ArcanaUpgradable.sol:P12ArcanaUpgradable",
        "label": "__gap",
        "offset": 0,
        "slot": "102",
        "type": "t_array(t_uint256)49_storage"
      },
      {
        "astId": 596,
        "contract": "contracts/P12ArcanaUpgradable.sol:P12ArcanaUpgradable",
        "label": "__gap",
        "offset": 0,
        "slot": "151",
        "type": "t_array(t_uint256)50_storage"
      },
      {
        "astId": 893,
        "contract": "contracts/P12ArcanaUpgradable.sol:P12ArcanaUpgradable",
        "label": "__gap",
        "offset": 0,
        "slot": "201",
        "type": "t_array(t_uint256)50_storage"
      },
      {
        "astId": 3099,
        "contract": "contracts/P12ArcanaUpgradable.sol:P12ArcanaUpgradable",
        "label": "__gap",
        "offset": 0,
        "slot": "251",
        "type": "t_array(t_uint256)50_storage"
      },
      {
        "astId": 923,
        "contract": "contracts/P12ArcanaUpgradable.sol:P12ArcanaUpgradable",
        "label": "_name",
        "offset": 0,
        "slot": "301",
        "type": "t_string_storage"
      },
      {
        "astId": 925,
        "contract": "contracts/P12ArcanaUpgradable.sol:P12ArcanaUpgradable",
        "label": "_symbol",
        "offset": 0,
        "slot": "302",
        "type": "t_string_storage"
      },
      {
        "astId": 929,
        "contract": "contracts/P12ArcanaUpgradable.sol:P12ArcanaUpgradable",
        "label": "_owners",
        "offset": 0,
        "slot": "303",
        "type": "t_mapping(t_uint256,t_address)"
      },
      {
        "astId": 933,
        "contract": "contracts/P12ArcanaUpgradable.sol:P12ArcanaUpgradable",
        "label": "_balances",
        "offset": 0,
        "slot": "304",
        "type": "t_mapping(t_address,t_uint256)"
      },
      {
        "astId": 937,
        "contract": "contracts/P12ArcanaUpgradable.sol:P12ArcanaUpgradable",
        "label": "_tokenApprovals",
        "offset": 0,
        "slot": "305",
        "type": "t_mapping(t_uint256,t_address)"
      },
      {
        "astId": 943,
        "contract": "contracts/P12ArcanaUpgradable.sol:P12ArcanaUpgradable",
        "label": "_operatorApprovals",
        "offset": 0,
        "slot": "306",
        "type": "t_mapping(t_address,t_mapping(t_address,t_bool))"
      },
      {
        "astId": 1785,
        "contract": "contracts/P12ArcanaUpgradable.sol:P12ArcanaUpgradable",
        "label": "__gap",
        "offset": 0,
        "slot": "307",
        "type": "t_array(t_uint256)44_storage"
      },
      {
        "astId": 2915,
        "contract": "contracts/P12ArcanaUpgradable.sol:P12ArcanaUpgradable",
        "label": "_HASHED_NAME",
        "offset": 0,
        "slot": "351",
        "type": "t_bytes32"
      },
      {
        "astId": 2917,
        "contract": "contracts/P12ArcanaUpgradable.sol:P12ArcanaUpgradable",
        "label": "_HASHED_VERSION",
        "offset": 0,
        "slot": "352",
        "type": "t_bytes32"
      },
      {
        "astId": 3055,
        "contract": "contracts/P12ArcanaUpgradable.sol:P12ArcanaUpgradable",
        "label": "__gap",
        "offset": 0,
        "slot": "353",
        "type": "t_array(t_uint256)50_storage"
      },
      {
        "astId": 4140,
        "contract": "contracts/P12ArcanaUpgradable.sol:P12ArcanaUpgradable",
        "label": "idx",
        "offset": 0,
        "slot": "403",
        "type": "t_uint256"
      },
      {
        "astId": 4142,
        "contract": "contracts/P12ArcanaUpgradable.sol:P12ArcanaUpgradable",
        "label": "renderEngine",
        "offset": 0,
        "slot": "404",
        "type": "t_address"
      },
      {
        "astId": 4144,
        "contract": "contracts/P12ArcanaUpgradable.sol:P12ArcanaUpgradable",
        "label": "_description",
        "offset": 0,
        "slot": "405",
        "type": "t_string_storage"
      },
      {
        "astId": 4148,
        "contract": "contracts/P12ArcanaUpgradable.sol:P12ArcanaUpgradable",
        "label": "signers",
        "offset": 0,
        "slot": "406",
        "type": "t_mapping(t_address,t_bool)"
      },
      {
        "astId": 4152,
        "contract": "contracts/P12ArcanaUpgradable.sol:P12ArcanaUpgradable",
        "label": "_powers",
        "offset": 0,
        "slot": "407",
        "type": "t_mapping(t_uint256,t_uint256)"
      },
      {
        "astId": 4156,
        "contract": "contracts/P12ArcanaUpgradable.sol:P12ArcanaUpgradable",
        "label": "answersUri",
        "offset": 0,
        "slot": "408",
        "type": "t_mapping(t_uint256,t_string_storage)"
      }
    ],
    "types": {
      "t_address": {
        "encoding": "inplace",
        "label": "address",
        "numberOfBytes": "20"
      },
      "t_array(t_uint256)44_storage": {
        "base": "t_uint256",
        "encoding": "inplace",
        "label": "uint256[44]",
        "numberOfBytes": "1408"
      },
      "t_array(t_uint256)49_storage": {
        "base": "t_uint256",
        "encoding": "inplace",
        "label": "uint256[49]",
        "numberOfBytes": "1568"
      },
      "t_array(t_uint256)50_storage": {
        "base": "t_uint256",
        "encoding": "inplace",
        "label": "uint256[50]",
        "numberOfBytes": "1600"
      },
      "t_bool": {
        "encoding": "inplace",
        "label": "bool",
        "numberOfBytes": "1"
      },
      "t_bytes32": {
        "encoding": "inplace",
        "label": "bytes32",
        "numberOfBytes": "32"
      },
      "t_mapping(t_address,t_bool)": {
        "encoding": "mapping",
        "key": "t_address",
        "label": "mapping(address => bool)",
        "numberOfBytes": "32",
        "value": "t_bool"
      },
      "t_mapping(t_address,t_mapping(t_address,t_bool))": {
        "encoding": "mapping",
        "key": "t_address",
        "label": "mapping(address => mapping(address => bool))",
        "numberOfBytes": "32",
        "value": "t_mapping(t_address,t_bool)"
      },
      "t_mapping(t_address,t_uint256)": {
        "encoding": "mapping",
        "key": "t_address",
        "label": "mapping(address => uint256)",
        "numberOfBytes": "32",
        "value": "t_uint256"
      },
      "t_mapping(t_uint256,t_address)": {
        "encoding": "mapping",
        "key": "t_uint256",
        "label": "mapping(uint256 => address)",
        "numberOfBytes": "32",
        "value": "t_address"
      },
      "t_mapping(t_uint256,t_string_storage)": {
        "encoding": "mapping",
        "key": "t_uint256",
        "label": "mapping(uint256 => string)",
        "numberOfBytes": "32",
        "value": "t_string_storage"
      },
      "t_mapping(t_uint256,t_uint256)": {
        "encoding": "mapping",
        "key": "t_uint256",
        "label": "mapping(uint256 => uint256)",
        "numberOfBytes": "32",
        "value": "t_uint256"
      },
      "t_string_storage": {
        "encoding": "bytes",
        "label": "string",
        "numberOfBytes": "32"
      },
      "t_uint256": {
        "encoding": "inplace",
        "label": "uint256",
        "numberOfBytes": "32"
      },
      "t_uint8": {
        "encoding": "inplace",
        "label": "uint8",
        "numberOfBytes": "1"
      }
    }
  }
}