{
  "address": "0x890F8DA513821dE133e4882FAf5C3F44Ac8167f6",
  "abi": [
    {
      "inputs": [
        {
          "internalType": "address",
          "name": "forwarder_",
          "type": "address"
        }
      ],
      "stateMutability": "nonpayable",
      "type": "constructor"
    },
    {
      "anonymous": false,
      "inputs": [
        {
          "indexed": false,
          "internalType": "address",
          "name": "previousAdmin",
          "type": "address"
        },
        {
          "indexed": false,
          "internalType": "address",
          "name": "newAdmin",
          "type": "address"
        }
      ],
      "name": "AdminChanged",
      "type": "event"
    },
    {
      "anonymous": false,
      "inputs": [
        {
          "indexed": false,
          "internalType": "uint256",
          "name": "tokenId",
          "type": "uint256"
        },
        {
          "indexed": false,
          "internalType": "string",
          "name": "uri",
          "type": "string"
        }
      ],
      "name": "AnswerUriUpdate",
      "type": "event"
    },
    {
      "anonymous": false,
      "inputs": [
        {
          "indexed": true,
          "internalType": "address",
          "name": "owner",
          "type": "address"
        },
        {
          "indexed": true,
          "internalType": "address",
          "name": "approved",
          "type": "address"
        },
        {
          "indexed": true,
          "internalType": "uint256",
          "name": "tokenId",
          "type": "uint256"
        }
      ],
      "name": "Approval",
      "type": "event"
    },
    {
      "anonymous": false,
      "inputs": [
        {
          "indexed": true,
          "internalType": "address",
          "name": "owner",
          "type": "address"
        },
        {
          "indexed": true,
          "internalType": "address",
          "name": "operator",
          "type": "address"
        },
        {
          "indexed": false,
          "internalType": "bool",
          "name": "approved",
          "type": "bool"
        }
      ],
      "name": "ApprovalForAll",
      "type": "event"
    },
    {
      "anonymous": false,
      "inputs": [
        {
          "indexed": true,
          "internalType": "address",
          "name": "beacon",
          "type": "address"
        }
      ],
      "name": "BeaconUpgraded",
      "type": "event"
    },
    {
      "anonymous": false,
      "inputs": [
        {
          "indexed": false,
          "internalType": "uint8",
          "name": "version",
          "type": "uint8"
        }
      ],
      "name": "Initialized",
      "type": "event"
    },
    {
      "anonymous": false,
      "inputs": [
        {
          "indexed": true,
          "internalType": "address",
          "name": "previousOwner",
          "type": "address"
        },
        {
          "indexed": true,
          "internalType": "address",
          "name": "newOwner",
          "type": "address"
        }
      ],
      "name": "OwnershipTransferred",
      "type": "event"
    },
    {
      "anonymous": false,
      "inputs": [
        {
          "indexed": false,
          "internalType": "uint256",
          "name": "tokenId",
          "type": "uint256"
        },
        {
          "indexed": false,
          "internalType": "uint256",
          "name": "power",
          "type": "uint256"
        }
      ],
      "name": "PowerUpdate",
      "type": "event"
    },
    {
      "anonymous": false,
      "inputs": [
        {
          "indexed": false,
          "internalType": "address",
          "name": "renderEngin",
          "type": "address"
        }
      ],
      "name": "RenderEngineSet",
      "type": "event"
    },
    {
      "anonymous": false,
      "inputs": [
        {
          "indexed": false,
          "internalType": "address",
          "name": "signer",
          "type": "address"
        },
        {
          "indexed": false,
          "internalType": "bool",
          "name": "valid",
          "type": "bool"
        }
      ],
      "name": "SignerSet",
      "type": "event"
    },
    {
      "anonymous": false,
      "inputs": [
        {
          "indexed": true,
          "internalType": "address",
          "name": "from",
          "type": "address"
        },
        {
          "indexed": true,
          "internalType": "address",
          "name": "to",
          "type": "address"
        },
        {
          "indexed": true,
          "internalType": "uint256",
          "name": "tokenId",
          "type": "uint256"
        }
      ],
      "name": "Transfer",
      "type": "event"
    },
    {
      "anonymous": false,
      "inputs": [
        {
          "indexed": true,
          "internalType": "address",
          "name": "implementation",
          "type": "address"
        }
      ],
      "name": "Upgraded",
      "type": "event"
    },
    {
      "inputs": [
        {
          "internalType": "uint256",
          "name": "",
          "type": "uint256"
        }
      ],
      "name": "answersUri",
      "outputs": [
        {
          "internalType": "string",
          "name": "",
          "type": "string"
        }
      ],
      "stateMutability": "view",
      "type": "function"
    },
    {
      "inputs": [
        {
          "internalType": "address",
          "name": "to",
          "type": "address"
        },
        {
          "internalType": "uint256",
          "name": "tokenId",
          "type": "uint256"
        }
      ],
      "name": "approve",
      "outputs": [],
      "stateMutability": "nonpayable",
      "type": "function"
    },
    {
      "inputs": [
        {
          "internalType": "address",
          "name": "owner",
          "type": "address"
        }
      ],
      "name": "balanceOf",
      "outputs": [
        {
          "internalType": "uint256",
          "name": "",
          "type": "uint256"
        }
      ],
      "stateMutability": "view",
      "type": "function"
    },
    {
      "inputs": [],
      "name": "claimOwnership",
      "outputs": [],
      "stateMutability": "nonpayable",
      "type": "function"
    },
    {
      "inputs": [
        {
          "internalType": "uint256",
          "name": "tokenId",
          "type": "uint256"
        }
      ],
      "name": "getApproved",
      "outputs": [
        {
          "internalType": "address",
          "name": "",
          "type": "address"
        }
      ],
      "stateMutability": "view",
      "type": "function"
    },
    {
      "inputs": [],
      "name": "getBattlePass",
      "outputs": [],
      "stateMutability": "nonpayable",
      "type": "function"
    },
    {
      "inputs": [
        {
          "internalType": "address",
          "name": "user",
          "type": "address"
        }
      ],
      "name": "getBattlePass",
      "outputs": [],
      "stateMutability": "nonpayable",
      "type": "function"
    },
    {
      "inputs": [
        {
          "internalType": "uint256",
          "name": "tokenId",
          "type": "uint256"
        }
      ],
      "name": "getVotingPower",
      "outputs": [
        {
          "internalType": "uint256",
          "name": "",
          "type": "uint256"
        }
      ],
      "stateMutability": "view",
      "type": "function"
    },
    {
      "inputs": [
        {
          "internalType": "string",
          "name": "name_",
          "type": "string"
        },
        {
          "internalType": "string",
          "name": "symbol_",
          "type": "string"
        },
        {
          "internalType": "string",
          "name": "version_",
          "type": "string"
        },
        {
          "internalType": "string",
          "name": "description_",
          "type": "string"
        }
      ],
      "name": "initialize",
      "outputs": [],
      "stateMutability": "nonpayable",
      "type": "function"
    },
    {
      "inputs": [
        {
          "internalType": "address",
          "name": "owner",
          "type": "address"
        },
        {
          "internalType": "address",
          "name": "operator",
          "type": "address"
        }
      ],
      "name": "isApprovedForAll",
      "outputs": [
        {
          "internalType": "bool",
          "name": "",
          "type": "bool"
        }
      ],
      "stateMutability": "view",
      "type": "function"
    },
    {
      "inputs": [
        {
          "internalType": "address",
          "name": "forwarder",
          "type": "address"
        }
      ],
      "name": "isTrustedForwarder",
      "outputs": [
        {
          "internalType": "bool",
          "name": "",
          "type": "bool"
        }
      ],
      "stateMutability": "view",
      "type": "function"
    },
    {
      "inputs": [],
      "name": "name",
      "outputs": [
        {
          "internalType": "string",
          "name": "",
          "type": "string"
        }
      ],
      "stateMutability": "view",
      "type": "function"
    },
    {
      "inputs": [],
      "name": "owner",
      "outputs": [
        {
          "internalType": "address",
          "name": "",
          "type": "address"
        }
      ],
      "stateMutability": "view",
      "type": "function"
    },
    {
      "inputs": [
        {
          "internalType": "uint256",
          "name": "tokenId",
          "type": "uint256"
        }
      ],
      "name": "ownerOf",
      "outputs": [
        {
          "internalType": "address",
          "name": "",
          "type": "address"
        }
      ],
      "stateMutability": "view",
      "type": "function"
    },
    {
      "inputs": [],
      "name": "pendingOwner",
      "outputs": [
        {
          "internalType": "address",
          "name": "",
          "type": "address"
        }
      ],
      "stateMutability": "view",
      "type": "function"
    },
    {
      "inputs": [],
      "name": "proxiableUUID",
      "outputs": [
        {
          "internalType": "bytes32",
          "name": "",
          "type": "bytes32"
        }
      ],
      "stateMutability": "view",
      "type": "function"
    },
    {
      "inputs": [],
      "name": "renderEngine",
      "outputs": [
        {
          "internalType": "address",
          "name": "",
          "type": "address"
        }
      ],
      "stateMutability": "view",
      "type": "function"
    },
    {
      "inputs": [],
      "name": "renounceOwnership",
      "outputs": [],
      "stateMutability": "nonpayable",
      "type": "function"
    },
    {
      "inputs": [
        {
          "internalType": "address",
          "name": "from",
          "type": "address"
        },
        {
          "internalType": "address",
          "name": "to",
          "type": "address"
        },
        {
          "internalType": "uint256",
          "name": "tokenId",
          "type": "uint256"
        }
      ],
      "name": "safeTransferFrom",
      "outputs": [],
      "stateMutability": "nonpayable",
      "type": "function"
    },
    {
      "inputs": [
        {
          "internalType": "address",
          "name": "from",
          "type": "address"
        },
        {
          "internalType": "address",
          "name": "to",
          "type": "address"
        },
        {
          "internalType": "uint256",
          "name": "tokenId",
          "type": "uint256"
        },
        {
          "internalType": "bytes",
          "name": "data",
          "type": "bytes"
        }
      ],
      "name": "safeTransferFrom",
      "outputs": [],
      "stateMutability": "nonpayable",
      "type": "function"
    },
    {
      "inputs": [
        {
          "internalType": "address",
          "name": "operator",
          "type": "address"
        },
        {
          "internalType": "bool",
          "name": "approved",
          "type": "bool"
        }
      ],
      "name": "setApprovalForAll",
      "outputs": [],
      "stateMutability": "nonpayable",
      "type": "function"
    },
    {
      "inputs": [
        {
          "internalType": "address",
          "name": "newEngine",
          "type": "address"
        }
      ],
      "name": "setRenderEngin",
      "outputs": [],
      "stateMutability": "nonpayable",
      "type": "function"
    },
    {
      "inputs": [
        {
          "internalType": "address",
          "name": "signer",
          "type": "address"
        },
        {
          "internalType": "bool",
          "name": "valid",
          "type": "bool"
        }
      ],
      "name": "setSigner",
      "outputs": [],
      "stateMutability": "nonpayable",
      "type": "function"
    },
    {
      "inputs": [
        {
          "internalType": "address",
          "name": "",
          "type": "address"
        }
      ],
      "name": "signers",
      "outputs": [
        {
          "internalType": "bool",
          "name": "",
          "type": "bool"
        }
      ],
      "stateMutability": "view",
      "type": "function"
    },
    {
      "inputs": [
        {
          "internalType": "bytes4",
          "name": "interfaceId",
          "type": "bytes4"
        }
      ],
      "name": "supportsInterface",
      "outputs": [
        {
          "internalType": "bool",
          "name": "",
          "type": "bool"
        }
      ],
      "stateMutability": "view",
      "type": "function"
    },
    {
      "inputs": [],
      "name": "symbol",
      "outputs": [
        {
          "internalType": "string",
          "name": "",
          "type": "string"
        }
      ],
      "stateMutability": "view",
      "type": "function"
    },
    {
      "inputs": [
        {
          "internalType": "uint256",
          "name": "tokenId",
          "type": "uint256"
        }
      ],
      "name": "tokenURI",
      "outputs": [
        {
          "internalType": "string",
          "name": "",
          "type": "string"
        }
      ],
      "stateMutability": "view",
      "type": "function"
    },
    {
      "inputs": [
        {
          "internalType": "address",
          "name": "from",
          "type": "address"
        },
        {
          "internalType": "address",
          "name": "to",
          "type": "address"
        },
        {
          "internalType": "uint256",
          "name": "tokenId",
          "type": "uint256"
        }
      ],
      "name": "transferFrom",
      "outputs": [],
      "stateMutability": "nonpayable",
      "type": "function"
    },
    {
      "inputs": [
        {
          "internalType": "address",
          "name": "newOwner",
          "type": "address"
        },
        {
          "internalType": "bool",
          "name": "direct",
          "type": "bool"
        }
      ],
      "name": "transferOwnership",
      "outputs": [],
      "stateMutability": "nonpayable",
      "type": "function"
    },
    {
      "inputs": [
        {
          "internalType": "uint256",
          "name": "tokenId",
          "type": "uint256"
        },
        {
          "internalType": "string",
          "name": "uri",
          "type": "string"
        }
      ],
      "name": "updateAnswerUri",
      "outputs": [],
      "stateMutability": "nonpayable",
      "type": "function"
    },
    {
      "inputs": [
        {
          "internalType": "uint256",
          "name": "tokenId",
          "type": "uint256"
        },
        {
          "internalType": "uint256",
          "name": "power",
          "type": "uint256"
        },
        {
          "internalType": "uint256",
          "name": "deadline",
          "type": "uint256"
        },
        {
          "internalType": "bytes",
          "name": "signature",
          "type": "bytes"
        }
      ],
      "name": "updatePower",
      "outputs": [],
      "stateMutability": "nonpayable",
      "type": "function"
    },
    {
      "inputs": [
        {
          "internalType": "uint256",
          "name": "tokenId",
          "type": "uint256"
        },
        {
          "internalType": "uint256",
          "name": "power",
          "type": "uint256"
        },
        {
          "internalType": "uint256",
          "name": "deadline",
          "type": "uint256"
        }
      ],
      "name": "updatePower",
      "outputs": [],
      "stateMutability": "nonpayable",
      "type": "function"
    },
    {
      "inputs": [
        {
          "internalType": "address",
          "name": "newImplementation",
          "type": "address"
        }
      ],
      "name": "upgradeTo",
      "outputs": [],
      "stateMutability": "nonpayable",
      "type": "function"
    },
    {
      "inputs": [
        {
          "internalType": "address",
          "name": "newImplementation",
          "type": "address"
        },
        {
          "internalType": "bytes",
          "name": "data",
          "type": "bytes"
        }
      ],
      "name": "upgradeToAndCall",
      "outputs": [],
      "stateMutability": "payable",
      "type": "function"
    }
  ],
  "transactionHash": "0x19b94b65c2b28b325dd4b8bfc7e859b414d02988bbc7b278359a4e27672b2218",
  "args": [
    "0x1c583430819E962d17DFcDAc789E547E1aDc3972"
  ],
  "numDeployments": 3,
  "solcInputHash": "7f3e26cf3cfb95d27e5dfd60e978c6de",
  "bytecode": "0x60c06040523060a0523480156200001557600080fd5b506040516200418f3803806200418f833981016040819052620000389162000180565b6001600160a01b038116608052600054610100900460ff1615808015620000665750600054600160ff909116105b8062000096575062000083306200017160201b62001c651760201c565b15801562000096575060005460ff166001145b620000fe5760405162461bcd60e51b815260206004820152602e60248201527f496e697469616c697a61626c653a20636f6e747261637420697320616c72656160448201526d191e481a5b9a5d1a585b1a5e995960921b606482015260840160405180910390fd5b6000805460ff19166001179055801562000122576000805461ff0019166101001790555b801562000169576000805461ff0019169055604051600181527f7f26b83ff96e1f2b6a682f133852f6798a09c465da95921460cefb38474024989060200160405180910390a15b5050620001b2565b6001600160a01b03163b151590565b6000602082840312156200019357600080fd5b81516001600160a01b0381168114620001ab57600080fd5b9392505050565b60805160a051613f94620001fb60003960008181610dea01528181610e80015281816110e101528181611177015261127201526000818161043801526129270152613f946000f3fe6080604052600436106102195760003560e01c806370a082311161011d578063b242e534116100b0578063c87b56dd1161007f578063d84a500a11610064578063d84a500a14610644578063e30c397814610664578063e985e9c51461068257600080fd5b8063c87b56dd14610604578063ce56d14b1461062457600080fd5b8063b242e5341461058f578063b88d4fde146105af578063ba93f889146105cf578063bab4dde0146105e457600080fd5b806395d89b41116100ec57806395d89b411461050c5780639c6d297614610521578063a22cb4651461054f578063a523d35e1461056f57600080fd5b806370a0823114610488578063715018a6146104a8578063736c0d5b146104bd5780638da5cb5b146104ee57600080fd5b806331cb6105116101b05780634e71e0c81161017f57806352d1902d1161016457806352d1902d146103f8578063572b6c051461041b5780636352211e1461046857600080fd5b80634e71e0c8146103d05780634f1ef286146103e557600080fd5b806331cb6105146103505780633659cfe61461037057806342842e0e1461039057806348c7ac94146103b057600080fd5b80631ab51883116101ec5780631ab51883146102cf5780631ee0df90146102f057806323b872dd146103105780632432d4131461033057600080fd5b806301ffc9a71461021e57806306fdde0314610253578063081812fc14610275578063095ea7b3146102ad575b600080fd5b34801561022a57600080fd5b5061023e610239366004613395565b6106cc565b60405190151581526020015b60405180910390f35b34801561025f57600080fd5b506102686107b1565b60405161024a9190613402565b34801561028157600080fd5b50610295610290366004613415565b610844565b6040516001600160a01b03909116815260200161024a565b3480156102b957600080fd5b506102cd6102c836600461344a565b61086c565b005b3480156102db57600080fd5b5061019354610295906001600160a01b031681565b3480156102fc57600080fd5b506102cd61030b3660046134b6565b6109b4565b34801561031c57600080fd5b506102cd61032b366004613517565b610bda565b34801561033c57600080fd5b5061026861034b366004613415565b610c68565b34801561035c57600080fd5b506102cd61036b366004613553565b610d03565b34801561037c57600080fd5b506102cd61038b36600461358f565b610de0565b34801561039c57600080fd5b506102cd6103ab366004613517565b610f7d565b3480156103bc57600080fd5b506102cd6103cb36600461358f565b610f98565b3480156103dc57600080fd5b506102cd611073565b6102cd6103f336600461366f565b6110d7565b34801561040457600080fd5b5061040d611265565b60405190815260200161024a565b34801561042757600080fd5b5061023e61043636600461358f565b7f00000000000000000000000000000000000000000000000000000000000000006001600160a01b0390811691161490565b34801561047457600080fd5b50610295610483366004613415565b61132a565b34801561049457600080fd5b5061040d6104a336600461358f565b611390565b3480156104b457600080fd5b506102cd61142b565b3480156104c957600080fd5b5061023e6104d836600461358f565b6101956020526000908152604090205460ff1681565b3480156104fa57600080fd5b506065546001600160a01b0316610295565b34801561051857600080fd5b506102686114ae565b34801561052d57600080fd5b5061040d61053c366004613415565b6000908152610196602052604090205490565b34801561055b57600080fd5b506102cd61056a366004613553565b6114be565b34801561057b57600080fd5b506102cd61058a3660046136bd565b6114d0565b34801561059b57600080fd5b506102cd6105aa366004613553565b6116ed565b3480156105bb57600080fd5b506102cd6105ca366004613781565b6117f7565b3480156105db57600080fd5b506102cd61188c565b3480156105f057600080fd5b506102cd6105ff3660046137e9565b611905565b34801561061057600080fd5b5061026861061f366004613415565b611a21565b34801561063057600080fd5b506102cd61063f366004613815565b611b3e565b34801561065057600080fd5b506102cd61065f36600461358f565b611bfc565b34801561067057600080fd5b506066546001600160a01b0316610295565b34801561068e57600080fd5b5061023e61069d366004613861565b6001600160a01b0391821660009081526101326020908152604080832093909416825291909152205460ff1690565b60007fffffffff0000000000000000000000000000000000000000000000000000000082167f80ac58cd00000000000000000000000000000000000000000000000000000000148061075f57507fffffffff0000000000000000000000000000000000000000000000000000000082167f5b5e139f00000000000000000000000000000000000000000000000000000000145b806107ab57507f01ffc9a7000000000000000000000000000000000000000000000000000000007fffffffff000000000000000000000000000000000000000000000000000000008316145b92915050565b606061012d80546107c190613894565b80601f01602080910402602001604051908101604052809291908181526020018280546107ed90613894565b801561083a5780601f1061080f5761010080835404028352916020019161083a565b820191906000526020600020905b81548152906001019060200180831161081d57829003601f168201915b5050505050905090565b600061084f82611c74565b50600090815261013160205260409020546001600160a01b031690565b60006108778261132a565b9050806001600160a01b0316836001600160a01b0316036109055760405162461bcd60e51b815260206004820152602160248201527f4552433732313a20617070726f76616c20746f2063757272656e74206f776e6560448201527f720000000000000000000000000000000000000000000000000000000000000060648201526084015b60405180910390fd5b806001600160a01b0316610917611cd9565b6001600160a01b0316148061093357506109338161069d611cd9565b6109a55760405162461bcd60e51b815260206004820152603e60248201527f4552433732313a20617070726f76652063616c6c6572206973206e6f7420746f60448201527f6b656e206f776e6572206e6f7220617070726f76656420666f7220616c6c000060648201526084016108fc565b6109af8383611ce8565b505050565b6109bc611cd9565b6001600160a01b03166109ce8661132a565b6001600160a01b031614610a245760405162461bcd60e51b815260206004820152601a60248201527f503132417263616e613a206e6f7420746f6b656e206f776e657200000000000060448201526064016108fc565b428311610a735760405162461bcd60e51b815260206004820152601760248201527f503132417263616e613a206f757464617465642073696700000000000000000060448201526064016108fc565b6000610b1583838080601f01602080910402602001604051908101604052809392919081815260200183838082843760009201919091525050604080517f3cfb1c50437bb2e0aaf2c6e1cc667ef8281e73877eb4a30d99a348b424d2281860208201529081018b9052606081018a905260808101899052610b0f925060a001905060405160208183030381529060405280519060200120611d64565b90611dcd565b6001600160a01b0381166000908152610195602052604090205490915060ff161515600114610b865760405162461bcd60e51b815260206004820152601e60248201527f503132417263616e613a20736967206e6f742066726f6d207369676e6572000060448201526064016108fc565b6000868152610196602090815260409182902087905581518881529081018790527f6d7f967f375c85fdec9aec2e5568cf38de0dfccf1f8847051cd11a09470f9585910160405180910390a1505050505050565b610beb610be5611cd9565b82611df1565b610c5d5760405162461bcd60e51b815260206004820152602e60248201527f4552433732313a2063616c6c6572206973206e6f7420746f6b656e206f776e6560448201527f72206e6f7220617070726f76656400000000000000000000000000000000000060648201526084016108fc565b6109af838383611e71565b6101976020526000908152604090208054610c8290613894565b80601f0160208091040260200160405190810160405280929190818152602001828054610cae90613894565b8015610cfb5780601f10610cd057610100808354040283529160200191610cfb565b820191906000526020600020905b815481529060010190602001808311610cde57829003601f168201915b505050505081565b610d0b611cd9565b6001600160a01b0316610d266065546001600160a01b031690565b6001600160a01b031614610d7c5760405162461bcd60e51b815260206004820152601d60248201527f536166654f776e61626c653a2063616c6c6572206e6f74206f776e657200000060448201526064016108fc565b6001600160a01b03821660008181526101956020908152604091829020805460ff19168515159081179091558251938452908301527ffc4acb499491cd850a8a21ab98c7f128850c0f0e5f1a875a62b7fa055c2ecf19910160405180910390a15050565b6001600160a01b037f0000000000000000000000000000000000000000000000000000000000000000163003610e7e5760405162461bcd60e51b815260206004820152602c60248201527f46756e6374696f6e206d7573742062652063616c6c6564207468726f7567682060448201527f64656c656761746563616c6c000000000000000000000000000000000000000060648201526084016108fc565b7f00000000000000000000000000000000000000000000000000000000000000006001600160a01b0316610ed97f360894a13ba1a3210667c828492db98dca3e2076cc3735a920a3ca505d382bbc546001600160a01b031690565b6001600160a01b031614610f555760405162461bcd60e51b815260206004820152602c60248201527f46756e6374696f6e206d7573742062652063616c6c6564207468726f7567682060448201527f6163746976652070726f7879000000000000000000000000000000000000000060648201526084016108fc565b610f5e81612059565b60408051600080825260208201909252610f7a918391906120d2565b50565b6109af838383604051806020016040528060008152506117f7565b610fa0611cd9565b6001600160a01b0316610fbb6065546001600160a01b031690565b6001600160a01b0316146110115760405162461bcd60e51b815260206004820152601d60248201527f536166654f776e61626c653a2063616c6c6572206e6f74206f776e657200000060448201526064016108fc565b610193805473ffffffffffffffffffffffffffffffffffffffff19166001600160a01b0383169081179091556040519081527fe04606c9c9b231af3ea9318df0be4801bce1f4814a450baf600600ac4b857fae9060200160405180910390a150565b6066546001600160a01b031633146110cd5760405162461bcd60e51b815260206004820152601e60248201527f536166654f776e61626c653a2063616c6c657220213d2070656e64696e67000060448201526064016108fc565b6110d5612272565b565b6001600160a01b037f00000000000000000000000000000000000000000000000000000000000000001630036111755760405162461bcd60e51b815260206004820152602c60248201527f46756e6374696f6e206d7573742062652063616c6c6564207468726f7567682060448201527f64656c656761746563616c6c000000000000000000000000000000000000000060648201526084016108fc565b7f00000000000000000000000000000000000000000000000000000000000000006001600160a01b03166111d07f360894a13ba1a3210667c828492db98dca3e2076cc3735a920a3ca505d382bbc546001600160a01b031690565b6001600160a01b03161461124c5760405162461bcd60e51b815260206004820152602c60248201527f46756e6374696f6e206d7573742062652063616c6c6564207468726f7567682060448201527f6163746976652070726f7879000000000000000000000000000000000000000060648201526084016108fc565b61125582612059565b611261828260016120d2565b5050565b6000306001600160a01b037f000000000000000000000000000000000000000000000000000000000000000016146113055760405162461bcd60e51b815260206004820152603860248201527f555550535570677261646561626c653a206d757374206e6f742062652063616c60448201527f6c6564207468726f7567682064656c656761746563616c6c000000000000000060648201526084016108fc565b507f360894a13ba1a3210667c828492db98dca3e2076cc3735a920a3ca505d382bbc90565b600081815261012f60205260408120546001600160a01b0316806107ab5760405162461bcd60e51b815260206004820152601860248201527f4552433732313a20696e76616c696420746f6b656e204944000000000000000060448201526064016108fc565b60006001600160a01b03821661140e5760405162461bcd60e51b815260206004820152602960248201527f4552433732313a2061646472657373207a65726f206973206e6f74206120766160448201527f6c6964206f776e6572000000000000000000000000000000000000000000000060648201526084016108fc565b506001600160a01b03166000908152610130602052604090205490565b611433611cd9565b6001600160a01b031661144e6065546001600160a01b031690565b6001600160a01b0316146114a45760405162461bcd60e51b815260206004820152601d60248201527f536166654f776e61626c653a2063616c6c6572206e6f74206f776e657200000060448201526064016108fc565b6110d560006122e8565b606061012e80546107c190613894565b6112616114c9611cd9565b838361236b565b600054610100900460ff16158080156114f05750600054600160ff909116105b8061150a5750303b15801561150a575060005460ff166001145b61157c5760405162461bcd60e51b815260206004820152602e60248201527f496e697469616c697a61626c653a20636f6e747261637420697320616c72656160448201527f647920696e697469616c697a656400000000000000000000000000000000000060648201526084016108fc565b6000805460ff19166001179055801561159f576000805461ff0019166101001790555b6101946115ad83858361391c565b506115b661243a565b61162989898080601f01602080910402602001604051908101604052809392919081815260200183838082843760009201919091525050604080516020601f8d018190048102820181019092528b815292508b91508a90819084018382808284376000920191909152506124c792505050565b61169c89898080601f01602080910402602001604051908101604052809392919081815260200183838082843760009201919091525050604080516020601f8b01819004810282018101909252898152925089915088908190840183828082843760009201919091525061255f92505050565b80156116e2576000805461ff0019169055604051600181527f7f26b83ff96e1f2b6a682f133852f6798a09c465da95921460cefb38474024989060200160405180910390a15b505050505050505050565b6116f5611cd9565b6001600160a01b03166117106065546001600160a01b031690565b6001600160a01b0316146117665760405162461bcd60e51b815260206004820152601d60248201527f536166654f776e61626c653a2063616c6c6572206e6f74206f776e657200000060448201526064016108fc565b6001600160a01b0382166117bc5760405162461bcd60e51b815260206004820152601b60248201527f536166654f776e61626c653a206e6577206f776e65722069732030000000000060448201526064016108fc565b80156117cb57611261826122e8565b6066805473ffffffffffffffffffffffffffffffffffffffff19166001600160a01b0384161790555050565b611808611802611cd9565b83611df1565b61187a5760405162461bcd60e51b815260206004820152602e60248201527f4552433732313a2063616c6c6572206973206e6f7420746f6b656e206f776e6560448201527f72206e6f7220617070726f76656400000000000000000000000000000000000060648201526084016108fc565b611886848484846125f8565b50505050565b6118976104a3611cd9565b156118e45760405162461bcd60e51b815260206004820152601c60248201527f503132417263616e613a20616c7265616479206861766520706173730000000060448201526064016108fc565b6110d56118ef611cd9565b6118f7611cd9565b6001600160a01b0316612681565b6101956000611912611cd9565b6001600160a01b0316815260208101919091526040016000205460ff1615156001146119805760405162461bcd60e51b815260206004820152601560248201527f503132417263616e613a206e6f74207369676e6572000000000000000000000060448201526064016108fc565b4281116119cf5760405162461bcd60e51b815260206004820152601760248201527f503132417263616e613a206f757464617465642073696700000000000000000060448201526064016108fc565b6000838152610196602090815260409182902084905581518581529081018490527f6d7f967f375c85fdec9aec2e5568cf38de0dfccf1f8847051cd11a09470f958591015b60405180910390a1505050565b6060611a2c82611c74565b610193546040517fa2d6c6da000000000000000000000000000000000000000000000000000000008152600481018490526000916001600160a01b03169063a2d6c6da90602401600060405180830381865afa158015611a90573d6000803e3d6000fd5b505050506040513d6000823e601f3d908101601f19168201604052611ab891908101906139dd565b90506000611b13611ac76107b1565b610194611ad38561269b565b60008881526101966020526040902054611aec906127ee565b604051602001611aff9493929190613a67565b60405160208183030381529060405261269b565b905080604051602001611b269190613c57565b60405160208183030381529060405292505050919050565b611b46611cd9565b6001600160a01b0316611b588461132a565b6001600160a01b031614611bae5760405162461bcd60e51b815260206004820152601a60248201527f503132417263616e613a206e6f7420746f6b656e206f776e657200000000000060448201526064016108fc565b600083815261019760205260409020611bc882848361391c565b507fd807c77e694131b13efb4e48d526bb9799344e7780a6c18320806c49bed73d30838383604051611a1493929190613c9c565b611c0581611390565b15611c525760405162461bcd60e51b815260206004820152601c60248201527f503132417263616e613a20616c7265616479206861766520706173730000000060448201526064016108fc565b610f7a81826001600160a01b0316612681565b6001600160a01b03163b151590565b600081815261012f60205260409020546001600160a01b0316610f7a5760405162461bcd60e51b815260206004820152601860248201527f4552433732313a20696e76616c696420746f6b656e204944000000000000000060448201526064016108fc565b6000611ce3612923565b905090565b600081815261013160205260409020805473ffffffffffffffffffffffffffffffffffffffff19166001600160a01b0384169081179091558190611d2b8261132a565b6001600160a01b03167f8c5be1e5ebec7d5bd14f71427d1e84f3dd0314c0f7b2291e5b200ac8c7c3b92560405160405180910390a45050565b60006107ab611d71612985565b836040517f19010000000000000000000000000000000000000000000000000000000000006020820152602281018390526042810182905260009060620160405160208183030381529060405280519060200120905092915050565b6000806000611ddc85856129be565b91509150611de981612a03565b509392505050565b600080611dfd8361132a565b9050806001600160a01b0316846001600160a01b03161480611e4557506001600160a01b038082166000908152610132602090815260408083209388168352929052205460ff165b80611e695750836001600160a01b0316611e5e84610844565b6001600160a01b0316145b949350505050565b826001600160a01b0316611e848261132a565b6001600160a01b031614611f005760405162461bcd60e51b815260206004820152602560248201527f4552433732313a207472616e736665722066726f6d20696e636f72726563742060448201527f6f776e657200000000000000000000000000000000000000000000000000000060648201526084016108fc565b6001600160a01b038216611f7b5760405162461bcd60e51b8152602060048201526024808201527f4552433732313a207472616e7366657220746f20746865207a65726f2061646460448201527f726573730000000000000000000000000000000000000000000000000000000060648201526084016108fc565b611f86838383612bef565b611f91600082611ce8565b6001600160a01b038316600090815261013060205260408120805460019290611fbb908490613ce8565b90915550506001600160a01b038216600090815261013060205260408120805460019290611fea908490613cfb565b9091555050600081815261012f6020526040808220805473ffffffffffffffffffffffffffffffffffffffff19166001600160a01b0386811691821790925591518493918716917fddf252ad1be2c89b69c2b068fc378daa952ba7f163c4a11628f55a4df523b3ef91a4505050565b612061611cd9565b6001600160a01b031661207c6065546001600160a01b031690565b6001600160a01b031614610f7a5760405162461bcd60e51b815260206004820152601d60248201527f536166654f776e61626c653a2063616c6c6572206e6f74206f776e657200000060448201526064016108fc565b7f4910fdfa16fed3260ed0e7147f7cc6da11a60208b5b9406d12a635614ffd91435460ff1615612105576109af83612c46565b826001600160a01b03166352d1902d6040518163ffffffff1660e01b8152600401602060405180830381865afa92505050801561215f575060408051601f3d908101601f1916820190925261215c91810190613d0e565b60015b6121d15760405162461bcd60e51b815260206004820152602e60248201527f45524331393637557067726164653a206e657720696d706c656d656e7461746960448201527f6f6e206973206e6f74205555505300000000000000000000000000000000000060648201526084016108fc565b7f360894a13ba1a3210667c828492db98dca3e2076cc3735a920a3ca505d382bbc81146122665760405162461bcd60e51b815260206004820152602960248201527f45524331393637557067726164653a20756e737570706f727465642070726f7860448201527f6961626c6555554944000000000000000000000000000000000000000000000060648201526084016108fc565b506109af838383612d11565b6065546066546040516001600160a01b03928316929091169082907f8be0079c531659141344cd1fd0a4f28419497f9722a3daafe3b4186f6b6457e090600090a350606680546065805473ffffffffffffffffffffffffffffffffffffffff199081166001600160a01b03841617909155169055565b7fb53127684a568b3173ae13b9f8a6016e243e63b6e8ee1178d6a717850b5d6103819055606580546001600160a01b0380841673ffffffffffffffffffffffffffffffffffffffff19831681179093556040519116919082907f8be0079c531659141344cd1fd0a4f28419497f9722a3daafe3b4186f6b6457e090600090a35050565b816001600160a01b0316836001600160a01b0316036123cc5760405162461bcd60e51b815260206004820152601960248201527f4552433732313a20617070726f766520746f2063616c6c65720000000000000060448201526064016108fc565b6001600160a01b0383811660008181526101326020908152604080832094871680845294825291829020805460ff191686151590811790915591519182527f17307eab39ab6107e8899845ad3d59bd9653f200f220920489ca2b5937696c31910160405180910390a3505050565b600054610100900460ff166124b75760405162461bcd60e51b815260206004820152602b60248201527f496e697469616c697a61626c653a20636f6e7472616374206973206e6f74206960448201527f6e697469616c697a696e6700000000000000000000000000000000000000000060648201526084016108fc565b6110d56124c2611cd9565b6122e8565b600054610100900460ff166125445760405162461bcd60e51b815260206004820152602b60248201527f496e697469616c697a61626c653a20636f6e7472616374206973206e6f74206960448201527f6e697469616c697a696e6700000000000000000000000000000000000000000060648201526084016108fc565b61012d6125518382613d27565b5061012e6109af8282613d27565b600054610100900460ff166125dc5760405162461bcd60e51b815260206004820152602b60248201527f496e697469616c697a61626c653a20636f6e7472616374206973206e6f74206960448201527f6e697469616c697a696e6700000000000000000000000000000000000000000060648201526084016108fc565b81516020928301208151919092012061015f9190915561016055565b612603848484611e71565b61260f84848484612d36565b6118865760405162461bcd60e51b815260206004820152603260248201527f4552433732313a207472616e7366657220746f206e6f6e20455243373231526560448201527f63656976657220696d706c656d656e746572000000000000000000000000000060648201526084016108fc565b611261828260405180602001604052806000815250612ec5565b606081516000036126ba57505060408051602081019091526000815290565b6000604051806060016040528060408152602001613ef860409139905060006003845160026126e99190613cfb565b6126f39190613dfd565b6126fe906004613e11565b67ffffffffffffffff811115612716576127166135aa565b6040519080825280601f01601f191660200182016040528015612740576020820181803683370190505b509050600182016020820185865187015b808210156127ac576003820191508151603f8160121c168501518453600184019350603f81600c1c168501518453600184019350603f8160061c168501518453600184019350603f8116850151845350600183019250612751565b50506003865106600181146127c857600281146127db576127e3565b603d6001830353603d60028303536127e3565b603d60018303535b509195945050505050565b60608160000361283157505060408051808201909152600181527f3000000000000000000000000000000000000000000000000000000000000000602082015290565b8160005b811561285b578061284581613e28565b91506128549050600a83613dfd565b9150612835565b60008167ffffffffffffffff811115612876576128766135aa565b6040519080825280601f01601f1916602001820160405280156128a0576020820181803683370190505b5090505b8415611e69576128b5600183613ce8565b91506128c2600a86613e42565b6128cd906030613cfb565b60f81b8183815181106128e2576128e2613e56565b60200101907effffffffffffffffffffffffffffffffffffffffffffffffffffffffffffff1916908160001a90535061291c600a86613dfd565b94506128a4565b60007f00000000000000000000000000000000000000000000000000000000000000006001600160a01b0316330361298057507fffffffffffffffffffffffffffffffffffffffffffffffffffffffffffffffec36013560601c90565b503390565b6000611ce37f8b73c3c69bb8fe3d512ecc4cf759cc79239f7b179b0ffacaa9a75d522b39400f6129b561015f5490565b61016054612f4e565b60008082516041036129f45760208301516040840151606085015160001a6129e887828585612f98565b945094505050506129fc565b506000905060025b9250929050565b6000816004811115612a1757612a17613e6c565b03612a1f5750565b6001816004811115612a3357612a33613e6c565b03612a805760405162461bcd60e51b815260206004820152601860248201527f45434453413a20696e76616c6964207369676e6174757265000000000000000060448201526064016108fc565b6002816004811115612a9457612a94613e6c565b03612ae15760405162461bcd60e51b815260206004820152601f60248201527f45434453413a20696e76616c6964207369676e6174757265206c656e6774680060448201526064016108fc565b6003816004811115612af557612af5613e6c565b03612b685760405162461bcd60e51b815260206004820152602260248201527f45434453413a20696e76616c6964207369676e6174757265202773272076616c60448201527f756500000000000000000000000000000000000000000000000000000000000060648201526084016108fc565b6004816004811115612b7c57612b7c613e6c565b03610f7a5760405162461bcd60e51b815260206004820152602260248201527f45434453413a20696e76616c6964207369676e6174757265202776272076616c60448201527f756500000000000000000000000000000000000000000000000000000000000060648201526084016108fc565b6001600160a01b038316156109af5760405162461bcd60e51b815260206004820152601b60248201527f503132417263616e613a2063616e206e6f74207472616e73666572000000000060448201526064016108fc565b6001600160a01b0381163b612cc35760405162461bcd60e51b815260206004820152602d60248201527f455243313936373a206e657720696d706c656d656e746174696f6e206973206e60448201527f6f74206120636f6e74726163740000000000000000000000000000000000000060648201526084016108fc565b7f360894a13ba1a3210667c828492db98dca3e2076cc3735a920a3ca505d382bbc805473ffffffffffffffffffffffffffffffffffffffff19166001600160a01b0392909216919091179055565b612d1a83613085565b600082511180612d275750805b156109af5761188683836130c5565b60006001600160a01b0384163b15612eba57836001600160a01b031663150b7a02612d5f611cd9565b8786866040518563ffffffff1660e01b8152600401612d819493929190613e82565b6020604051808303816000875af1925050508015612dbc575060408051601f3d908101601f19168201909252612db991810190613ebe565b60015b612e6f573d808015612dea576040519150601f19603f3d011682016040523d82523d6000602084013e612def565b606091505b508051600003612e675760405162461bcd60e51b815260206004820152603260248201527f4552433732313a207472616e7366657220746f206e6f6e20455243373231526560448201527f63656976657220696d706c656d656e746572000000000000000000000000000060648201526084016108fc565b805181602001fd5b7fffffffff00000000000000000000000000000000000000000000000000000000167f150b7a0200000000000000000000000000000000000000000000000000000000149050611e69565b506001949350505050565b612ecf83836131d0565b612edc6000848484612d36565b6109af5760405162461bcd60e51b815260206004820152603260248201527f4552433732313a207472616e7366657220746f206e6f6e20455243373231526560448201527f63656976657220696d706c656d656e746572000000000000000000000000000060648201526084016108fc565b6040805160208101859052908101839052606081018290524660808201523060a082015260009060c0016040516020818303038152906040528051906020012090505b9392505050565b6000807f7fffffffffffffffffffffffffffffff5d576e7357a4501ddfe92f46681b20a0831115612fcf575060009050600361307c565b8460ff16601b14158015612fe757508460ff16601c14155b15612ff8575060009050600461307c565b6040805160008082526020820180845289905260ff881692820192909252606081018690526080810185905260019060a0016020604051602081039080840390855afa15801561304c573d6000803e3d6000fd5b5050604051601f1901519150506001600160a01b0381166130755760006001925092505061307c565b9150600090505b94509492505050565b61308e81612c46565b6040516001600160a01b038216907fbc7cd75a20ee27fd9adebab32041f755214dbc6bffa90cc0225b39da2e5c2d3b90600090a250565b60606001600160a01b0383163b6131445760405162461bcd60e51b815260206004820152602660248201527f416464726573733a2064656c65676174652063616c6c20746f206e6f6e2d636f60448201527f6e7472616374000000000000000000000000000000000000000000000000000060648201526084016108fc565b600080846001600160a01b03168460405161315f9190613edb565b600060405180830381855af49150503d806000811461319a576040519150601f19603f3d011682016040523d82523d6000602084013e61319f565b606091505b50915091506131c78282604051806060016040528060278152602001613f386027913961332e565b95945050505050565b6001600160a01b0382166132265760405162461bcd60e51b815260206004820181905260248201527f4552433732313a206d696e7420746f20746865207a65726f206164647265737360448201526064016108fc565b600081815261012f60205260409020546001600160a01b03161561328c5760405162461bcd60e51b815260206004820152601c60248201527f4552433732313a20746f6b656e20616c7265616479206d696e7465640000000060448201526064016108fc565b61329860008383612bef565b6001600160a01b0382166000908152610130602052604081208054600192906132c2908490613cfb565b9091555050600081815261012f6020526040808220805473ffffffffffffffffffffffffffffffffffffffff19166001600160a01b03861690811790915590518392907fddf252ad1be2c89b69c2b068fc378daa952ba7f163c4a11628f55a4df523b3ef908290a45050565b6060831561333d575081612f91565b82511561334d5782518084602001fd5b8160405162461bcd60e51b81526004016108fc9190613402565b7fffffffff0000000000000000000000000000000000000000000000000000000081168114610f7a57600080fd5b6000602082840312156133a757600080fd5b8135612f9181613367565b60005b838110156133cd5781810151838201526020016133b5565b50506000910152565b600081518084526133ee8160208601602086016133b2565b601f01601f19169290920160200192915050565b602081526000612f9160208301846133d6565b60006020828403121561342757600080fd5b5035919050565b80356001600160a01b038116811461344557600080fd5b919050565b6000806040838503121561345d57600080fd5b6134668361342e565b946020939093013593505050565b60008083601f84011261348657600080fd5b50813567ffffffffffffffff81111561349e57600080fd5b6020830191508360208285010111156129fc57600080fd5b6000806000806000608086880312156134ce57600080fd5b853594506020860135935060408601359250606086013567ffffffffffffffff8111156134fa57600080fd5b61350688828901613474565b969995985093965092949392505050565b60008060006060848603121561352c57600080fd5b6135358461342e565b92506135436020850161342e565b9150604084013590509250925092565b6000806040838503121561356657600080fd5b61356f8361342e565b91506020830135801515811461358457600080fd5b809150509250929050565b6000602082840312156135a157600080fd5b612f918261342e565b634e487b7160e01b600052604160045260246000fd5b604051601f8201601f1916810167ffffffffffffffff811182821017156135e9576135e96135aa565b604052919050565b600067ffffffffffffffff82111561360b5761360b6135aa565b50601f01601f191660200190565b600082601f83011261362a57600080fd5b813561363d613638826135f1565b6135c0565b81815284602083860101111561365257600080fd5b816020850160208301376000918101602001919091529392505050565b6000806040838503121561368257600080fd5b61368b8361342e565b9150602083013567ffffffffffffffff8111156136a757600080fd5b6136b385828601613619565b9150509250929050565b6000806000806000806000806080898b0312156136d957600080fd5b883567ffffffffffffffff808211156136f157600080fd5b6136fd8c838d01613474565b909a50985060208b013591508082111561371657600080fd5b6137228c838d01613474565b909850965060408b013591508082111561373b57600080fd5b6137478c838d01613474565b909650945060608b013591508082111561376057600080fd5b5061376d8b828c01613474565b999c989b5096995094979396929594505050565b6000806000806080858703121561379757600080fd5b6137a08561342e565b93506137ae6020860161342e565b925060408501359150606085013567ffffffffffffffff8111156137d157600080fd5b6137dd87828801613619565b91505092959194509250565b6000806000606084860312156137fe57600080fd5b505081359360208301359350604090920135919050565b60008060006040848603121561382a57600080fd5b83359250602084013567ffffffffffffffff81111561384857600080fd5b61385486828701613474565b9497909650939450505050565b6000806040838503121561387457600080fd5b61387d8361342e565b915061388b6020840161342e565b90509250929050565b600181811c908216806138a857607f821691505b6020821081036138c857634e487b7160e01b600052602260045260246000fd5b50919050565b601f8211156109af57600081815260208120601f850160051c810160208610156138f55750805b601f850160051c820191505b8181101561391457828155600101613901565b505050505050565b67ffffffffffffffff831115613934576139346135aa565b613948836139428354613894565b836138ce565b6000601f84116001811461397c57600085156139645750838201355b600019600387901b1c1916600186901b1783556139d6565b600083815260209020601f19861690835b828110156139ad578685013582556020948501946001909201910161398d565b50868210156139ca5760001960f88860031b161c19848701351681555b505060018560011b0183555b5050505050565b6000602082840312156139ef57600080fd5b815167ffffffffffffffff811115613a0657600080fd5b8201601f81018413613a1757600080fd5b8051613a25613638826135f1565b818152856020838501011115613a3a57600080fd5b6131c78260208301602086016133b2565b60008151613a5d8185602086016133b2565b9290920192915050565b7f7b226e616d65223a2022000000000000000000000000000000000000000000008152600085516020613aa082600a8601838b016133b2565b81840191507f222c226465736372697074696f6e223a22000000000000000000000000000000600a830152601b60008854613ada81613894565b60018281168015613af25760018114613b0b57613b3b565b60ff198416868901528583151584028901019450613b3b565b8c6000528660002060005b84811015613b315781548a8201890152908301908801613b16565b5050858389010194505b50505050613b68817f222c22696d616765223a220000000000000000000000000000000000000000009052565b7f646174613a696d6167652f7376672b786d6c3b6261736536342c000000000000600b820152613c1c613c16613ba1602584018b613a4b565b7f222c2261747472696275746573223a205b7b22646973706c61795f747970652281527f3a20226e756d626572222c2274726169745f74797065223a2022706f7765722260208201527f2c2276616c7565223a20000000000000000000000000000000000000000000006040820152604a0190565b88613a4b565b9350505050613c4a817f7d5d7d00000000000000000000000000000000000000000000000000000000009052565b6003019695505050505050565b7f646174613a6170706c69636174696f6e2f6a736f6e3b6261736536342c000000815260008251613c8f81601d8501602087016133b2565b91909101601d0192915050565b83815260406020820152816040820152818360608301376000818301606090810191909152601f909201601f1916010192915050565b634e487b7160e01b600052601160045260246000fd5b818103818111156107ab576107ab613cd2565b808201808211156107ab576107ab613cd2565b600060208284031215613d2057600080fd5b5051919050565b815167ffffffffffffffff811115613d4157613d416135aa565b613d5581613d4f8454613894565b846138ce565b602080601f831160018114613d8a5760008415613d725750858301515b600019600386901b1c1916600185901b178555613914565b600085815260208120601f198616915b82811015613db957888601518255948401946001909101908401613d9a565b5085821015613dd75787850151600019600388901b60f8161c191681555b5050505050600190811b01905550565b634e487b7160e01b600052601260045260246000fd5b600082613e0c57613e0c613de7565b500490565b80820281158282048414176107ab576107ab613cd2565b60006000198203613e3b57613e3b613cd2565b5060010190565b600082613e5157613e51613de7565b500690565b634e487b7160e01b600052603260045260246000fd5b634e487b7160e01b600052602160045260246000fd5b60006001600160a01b03808716835280861660208401525083604083015260806060830152613eb460808301846133d6565b9695505050505050565b600060208284031215613ed057600080fd5b8151612f9181613367565b60008251613eed8184602087016133b2565b919091019291505056fe4142434445464748494a4b4c4d4e4f505152535455565758595a6162636465666768696a6b6c6d6e6f707172737475767778797a303132333435363738392b2f416464726573733a206c6f772d6c6576656c2064656c65676174652063616c6c206661696c6564a26469706673582212208f81bcc0def29974ecf8c160d7729acbee00f1deeed33c5d1db7d70186e4d18064736f6c63430008110033",
  "devdoc": {
    "kind": "dev",
    "methods": {
      "approve(address,uint256)": {
        "details": "See {IERC721-approve}."
      },
      "balanceOf(address)": {
        "details": "See {IERC721-balanceOf}."
      },
      "claimOwnership()": {
        "details": "pending owner call this function to claim ownership"
      },
      "getApproved(uint256)": {
        "details": "See {IERC721-getApproved}."
      },
      "isApprovedForAll(address,address)": {
        "details": "See {IERC721-isApprovedForAll}."
      },
      "name()": {
        "details": "See {IERC721Metadata-name}."
      },
      "owner()": {
        "details": "Returns the address of the current owner."
      },
      "ownerOf(uint256)": {
        "details": "See {IERC721-ownerOf}."
      },
      "pendingOwner()": {
        "details": "Return the address of the pending owner"
      },
      "proxiableUUID()": {
        "details": "Implementation of the ERC1822 {proxiableUUID} function. This returns the storage slot used by the implementation. It is used to validate that the this implementation remains valid after an upgrade. IMPORTANT: A proxy pointing at a proxiable contract should not be considered proxiable itself, because this risks bricking a proxy that upgrades to it, by delegating to itself until out of gas. Thus it is critical that this function revert if invoked through a proxy. This is guaranteed by the `notDelegated` modifier."
      },
      "renounceOwnership()": {
        "details": "Leaves the contract without owner. It will not be possible to call `onlyOwner` functions anymore. Can only be called by the current owner. NOTE: Renouncing ownership will leave the contract without an owner, thereby removing any functionality that is only available to the owner."
      },
      "safeTransferFrom(address,address,uint256)": {
        "details": "See {IERC721-safeTransferFrom}."
      },
      "safeTransferFrom(address,address,uint256,bytes)": {
        "details": "See {IERC721-safeTransferFrom}."
      },
      "setApprovalForAll(address,bool)": {
        "details": "See {IERC721-setApprovalForAll}."
      },
      "supportsInterface(bytes4)": {
        "details": "See {IERC165-supportsInterface}."
      },
      "symbol()": {
        "details": "See {IERC721Metadata-symbol}."
      },
      "tokenURI(uint256)": {
        "details": "See {IERC721Metadata-tokenURI}."
      },
      "transferFrom(address,address,uint256)": {
        "details": "See {IERC721-transferFrom}."
      },
      "transferOwnership(address,bool)": {
        "details": "Transfers ownership of the contract to a new account (`newOwner`). Can only be called by the current owner. Note If direct is false, it will set an pending owner and the OwnerShipTransferring only happens when the pending owner claim the ownership"
      },
      "upgradeTo(address)": {
        "details": "Upgrade the implementation of the proxy to `newImplementation`. Calls {_authorizeUpgrade}. Emits an {Upgraded} event."
      },
      "upgradeToAndCall(address,bytes)": {
        "details": "Upgrade the implementation of the proxy to `newImplementation`, and subsequently execute the function call encoded in `data`. Calls {_authorizeUpgrade}. Emits an {Upgraded} event."
      }
    },
    "version": 1
  },
  "userdoc": {
    "kind": "user",
    "methods": {},
    "version": 1
  },
  "storageLayout": {
    "storage": [
      {
        "astId": 482,
        "contract": "contracts/P12ArcanaUpgradable.sol:P12ArcanaUpgradable",
        "label": "_initialized",
        "offset": 0,
        "slot": "0",
        "type": "t_uint8"
      },
      {
        "astId": 485,
        "contract": "contracts/P12ArcanaUpgradable.sol:P12ArcanaUpgradable",
        "label": "_initializing",
        "offset": 1,
        "slot": "0",
        "type": "t_bool"
      },
      {
        "astId": 2099,
        "contract": "contracts/P12ArcanaUpgradable.sol:P12ArcanaUpgradable",
        "label": "__gap",
        "offset": 0,
        "slot": "1",
        "type": "t_array(t_uint256)50_storage"
      },
      {
        "astId": 95,
        "contract": "contracts/P12ArcanaUpgradable.sol:P12ArcanaUpgradable",
        "label": "__gap",
        "offset": 0,
        "slot": "51",
        "type": "t_array(t_uint256)50_storage"
      },
      {
        "astId": 3980,
        "contract": "contracts/P12ArcanaUpgradable.sol:P12ArcanaUpgradable",
        "label": "_owner",
        "offset": 0,
        "slot": "101",
        "type": "t_address"
      },
      {
        "astId": 3982,
        "contract": "contracts/P12ArcanaUpgradable.sol:P12ArcanaUpgradable",
        "label": "_pendingOwner",
        "offset": 0,
        "slot": "102",
        "type": "t_address"
      },
      {
        "astId": 4166,
        "contract": "contracts/P12ArcanaUpgradable.sol:P12ArcanaUpgradable",
        "label": "__gap",
        "offset": 0,
        "slot": "103",
        "type": "t_array(t_uint256)48_storage"
      },
      {
        "astId": 464,
        "contract": "contracts/P12ArcanaUpgradable.sol:P12ArcanaUpgradable",
        "label": "__gap",
        "offset": 0,
        "slot": "151",
        "type": "t_array(t_uint256)50_storage"
      },
      {
        "astId": 761,
        "contract": "contracts/P12ArcanaUpgradable.sol:P12ArcanaUpgradable",
        "label": "__gap",
        "offset": 0,
        "slot": "201",
        "type": "t_array(t_uint256)50_storage"
      },
      {
        "astId": 2967,
        "contract": "contracts/P12ArcanaUpgradable.sol:P12ArcanaUpgradable",
        "label": "__gap",
        "offset": 0,
        "slot": "251",
        "type": "t_array(t_uint256)50_storage"
      },
      {
        "astId": 791,
        "contract": "contracts/P12ArcanaUpgradable.sol:P12ArcanaUpgradable",
        "label": "_name",
        "offset": 0,
        "slot": "301",
        "type": "t_string_storage"
      },
      {
        "astId": 793,
        "contract": "contracts/P12ArcanaUpgradable.sol:P12ArcanaUpgradable",
        "label": "_symbol",
        "offset": 0,
        "slot": "302",
        "type": "t_string_storage"
      },
      {
        "astId": 797,
        "contract": "contracts/P12ArcanaUpgradable.sol:P12ArcanaUpgradable",
        "label": "_owners",
        "offset": 0,
        "slot": "303",
        "type": "t_mapping(t_uint256,t_address)"
      },
      {
        "astId": 801,
        "contract": "contracts/P12ArcanaUpgradable.sol:P12ArcanaUpgradable",
        "label": "_balances",
        "offset": 0,
        "slot": "304",
        "type": "t_mapping(t_address,t_uint256)"
      },
      {
        "astId": 805,
        "contract": "contracts/P12ArcanaUpgradable.sol:P12ArcanaUpgradable",
        "label": "_tokenApprovals",
        "offset": 0,
        "slot": "305",
        "type": "t_mapping(t_uint256,t_address)"
      },
      {
        "astId": 811,
        "contract": "contracts/P12ArcanaUpgradable.sol:P12ArcanaUpgradable",
        "label": "_operatorApprovals",
        "offset": 0,
        "slot": "306",
        "type": "t_mapping(t_address,t_mapping(t_address,t_bool))"
      },
      {
        "astId": 1653,
        "contract": "contracts/P12ArcanaUpgradable.sol:P12ArcanaUpgradable",
        "label": "__gap",
        "offset": 0,
        "slot": "307",
        "type": "t_array(t_uint256)44_storage"
      },
      {
        "astId": 2783,
        "contract": "contracts/P12ArcanaUpgradable.sol:P12ArcanaUpgradable",
        "label": "_HASHED_NAME",
        "offset": 0,
        "slot": "351",
        "type": "t_bytes32"
      },
      {
        "astId": 2785,
        "contract": "contracts/P12ArcanaUpgradable.sol:P12ArcanaUpgradable",
        "label": "_HASHED_VERSION",
        "offset": 0,
        "slot": "352",
        "type": "t_bytes32"
      },
      {
        "astId": 2923,
        "contract": "contracts/P12ArcanaUpgradable.sol:P12ArcanaUpgradable",
        "label": "__gap",
        "offset": 0,
        "slot": "353",
        "type": "t_array(t_uint256)50_storage"
      },
      {
        "astId": 4207,
        "contract": "contracts/P12ArcanaUpgradable.sol:P12ArcanaUpgradable",
        "label": "renderEngine",
        "offset": 0,
        "slot": "403",
        "type": "t_address"
      },
      {
        "astId": 4209,
        "contract": "contracts/P12ArcanaUpgradable.sol:P12ArcanaUpgradable",
        "label": "_description",
        "offset": 0,
        "slot": "404",
        "type": "t_string_storage"
      },
      {
        "astId": 4213,
        "contract": "contracts/P12ArcanaUpgradable.sol:P12ArcanaUpgradable",
        "label": "signers",
        "offset": 0,
        "slot": "405",
        "type": "t_mapping(t_address,t_bool)"
      },
      {
        "astId": 4217,
        "contract": "contracts/P12ArcanaUpgradable.sol:P12ArcanaUpgradable",
        "label": "_powers",
        "offset": 0,
        "slot": "406",
        "type": "t_mapping(t_uint256,t_uint256)"
      },
      {
        "astId": 4221,
        "contract": "contracts/P12ArcanaUpgradable.sol:P12ArcanaUpgradable",
        "label": "answersUri",
        "offset": 0,
        "slot": "407",
        "type": "t_mapping(t_uint256,t_string_storage)"
      }
    ],
    "types": {
      "t_address": {
        "encoding": "inplace",
        "label": "address",
        "numberOfBytes": "20"
      },
      "t_array(t_uint256)44_storage": {
        "base": "t_uint256",
        "encoding": "inplace",
        "label": "uint256[44]",
        "numberOfBytes": "1408"
      },
      "t_array(t_uint256)48_storage": {
        "base": "t_uint256",
        "encoding": "inplace",
        "label": "uint256[48]",
        "numberOfBytes": "1536"
      },
      "t_array(t_uint256)50_storage": {
        "base": "t_uint256",
        "encoding": "inplace",
        "label": "uint256[50]",
        "numberOfBytes": "1600"
      },
      "t_bool": {
        "encoding": "inplace",
        "label": "bool",
        "numberOfBytes": "1"
      },
      "t_bytes32": {
        "encoding": "inplace",
        "label": "bytes32",
        "numberOfBytes": "32"
      },
      "t_mapping(t_address,t_bool)": {
        "encoding": "mapping",
        "key": "t_address",
        "label": "mapping(address => bool)",
        "numberOfBytes": "32",
        "value": "t_bool"
      },
      "t_mapping(t_address,t_mapping(t_address,t_bool))": {
        "encoding": "mapping",
        "key": "t_address",
        "label": "mapping(address => mapping(address => bool))",
        "numberOfBytes": "32",
        "value": "t_mapping(t_address,t_bool)"
      },
      "t_mapping(t_address,t_uint256)": {
        "encoding": "mapping",
        "key": "t_address",
        "label": "mapping(address => uint256)",
        "numberOfBytes": "32",
        "value": "t_uint256"
      },
      "t_mapping(t_uint256,t_address)": {
        "encoding": "mapping",
        "key": "t_uint256",
        "label": "mapping(uint256 => address)",
        "numberOfBytes": "32",
        "value": "t_address"
      },
      "t_mapping(t_uint256,t_string_storage)": {
        "encoding": "mapping",
        "key": "t_uint256",
        "label": "mapping(uint256 => string)",
        "numberOfBytes": "32",
        "value": "t_string_storage"
      },
      "t_mapping(t_uint256,t_uint256)": {
        "encoding": "mapping",
        "key": "t_uint256",
        "label": "mapping(uint256 => uint256)",
        "numberOfBytes": "32",
        "value": "t_uint256"
      },
      "t_string_storage": {
        "encoding": "bytes",
        "label": "string",
        "numberOfBytes": "32"
      },
      "t_uint256": {
        "encoding": "inplace",
        "label": "uint256",
        "numberOfBytes": "32"
      },
      "t_uint8": {
        "encoding": "inplace",
        "label": "uint8",
        "numberOfBytes": "1"
      }
    }
  }
}