{
  "address": "0x2896026275f17800607C8862d82491d0316f9e34",
  "abi": [
    {
      "inputs": [
        {
          "internalType": "address",
          "name": "forwarder_",
          "type": "address"
        }
      ],
      "stateMutability": "nonpayable",
      "type": "constructor"
    },
    {
      "anonymous": false,
      "inputs": [
        {
          "indexed": false,
          "internalType": "address",
          "name": "previousAdmin",
          "type": "address"
        },
        {
          "indexed": false,
          "internalType": "address",
          "name": "newAdmin",
          "type": "address"
        }
      ],
      "name": "AdminChanged",
      "type": "event"
    },
    {
      "anonymous": false,
      "inputs": [
        {
          "indexed": true,
          "internalType": "address",
          "name": "owner",
          "type": "address"
        },
        {
          "indexed": true,
          "internalType": "address",
          "name": "approved",
          "type": "address"
        },
        {
          "indexed": true,
          "internalType": "uint256",
          "name": "tokenId",
          "type": "uint256"
        }
      ],
      "name": "Approval",
      "type": "event"
    },
    {
      "anonymous": false,
      "inputs": [
        {
          "indexed": true,
          "internalType": "address",
          "name": "owner",
          "type": "address"
        },
        {
          "indexed": true,
          "internalType": "address",
          "name": "operator",
          "type": "address"
        },
        {
          "indexed": false,
          "internalType": "bool",
          "name": "approved",
          "type": "bool"
        }
      ],
      "name": "ApprovalForAll",
      "type": "event"
    },
    {
      "anonymous": false,
      "inputs": [
        {
          "indexed": true,
          "internalType": "address",
          "name": "beacon",
          "type": "address"
        }
      ],
      "name": "BeaconUpgraded",
      "type": "event"
    },
    {
      "anonymous": false,
      "inputs": [
        {
          "indexed": false,
          "internalType": "uint8",
          "name": "version",
          "type": "uint8"
        }
      ],
      "name": "Initialized",
      "type": "event"
    },
    {
      "anonymous": false,
      "inputs": [
        {
          "indexed": true,
          "internalType": "address",
          "name": "previousOwner",
          "type": "address"
        },
        {
          "indexed": true,
          "internalType": "address",
          "name": "newOwner",
          "type": "address"
        }
      ],
      "name": "OwnershipTransferred",
      "type": "event"
    },
    {
      "anonymous": false,
      "inputs": [
        {
          "indexed": true,
          "internalType": "address",
          "name": "from",
          "type": "address"
        },
        {
          "indexed": true,
          "internalType": "address",
          "name": "to",
          "type": "address"
        },
        {
          "indexed": true,
          "internalType": "uint256",
          "name": "tokenId",
          "type": "uint256"
        }
      ],
      "name": "Transfer",
      "type": "event"
    },
    {
      "anonymous": false,
      "inputs": [
        {
          "indexed": true,
          "internalType": "address",
          "name": "implementation",
          "type": "address"
        }
      ],
      "name": "Upgraded",
      "type": "event"
    },
    {
      "inputs": [
        {
          "internalType": "uint256",
          "name": "",
          "type": "uint256"
        }
      ],
      "name": "answersUri",
      "outputs": [
        {
          "internalType": "string",
          "name": "",
          "type": "string"
        }
      ],
      "stateMutability": "view",
      "type": "function"
    },
    {
      "inputs": [
        {
          "internalType": "address",
          "name": "to",
          "type": "address"
        },
        {
          "internalType": "uint256",
          "name": "tokenId",
          "type": "uint256"
        }
      ],
      "name": "approve",
      "outputs": [],
      "stateMutability": "nonpayable",
      "type": "function"
    },
    {
      "inputs": [
        {
          "internalType": "address",
          "name": "owner",
          "type": "address"
        }
      ],
      "name": "balanceOf",
      "outputs": [
        {
          "internalType": "uint256",
          "name": "",
          "type": "uint256"
        }
      ],
      "stateMutability": "view",
      "type": "function"
    },
    {
      "inputs": [
        {
          "internalType": "uint256",
          "name": "tokenId",
          "type": "uint256"
        }
      ],
      "name": "getApproved",
      "outputs": [
        {
          "internalType": "address",
          "name": "",
          "type": "address"
        }
      ],
      "stateMutability": "view",
      "type": "function"
    },
    {
      "inputs": [],
      "name": "getBattlePass",
      "outputs": [],
      "stateMutability": "nonpayable",
      "type": "function"
    },
    {
      "inputs": [
        {
          "internalType": "address",
          "name": "user",
          "type": "address"
        }
      ],
      "name": "getBattlePass",
      "outputs": [],
      "stateMutability": "nonpayable",
      "type": "function"
    },
    {
      "inputs": [
        {
          "internalType": "uint256",
          "name": "tokenId",
          "type": "uint256"
        }
      ],
      "name": "getVotingPower",
      "outputs": [
        {
          "internalType": "uint256",
          "name": "",
          "type": "uint256"
        }
      ],
      "stateMutability": "view",
      "type": "function"
    },
    {
      "inputs": [
        {
          "internalType": "string",
          "name": "name_",
          "type": "string"
        },
        {
          "internalType": "string",
          "name": "symbol_",
          "type": "string"
        },
        {
          "internalType": "string",
          "name": "version_",
          "type": "string"
        },
        {
          "internalType": "string",
          "name": "description_",
          "type": "string"
        }
      ],
      "name": "initialize",
      "outputs": [],
      "stateMutability": "nonpayable",
      "type": "function"
    },
    {
      "inputs": [
        {
          "internalType": "address",
          "name": "owner",
          "type": "address"
        },
        {
          "internalType": "address",
          "name": "operator",
          "type": "address"
        }
      ],
      "name": "isApprovedForAll",
      "outputs": [
        {
          "internalType": "bool",
          "name": "",
          "type": "bool"
        }
      ],
      "stateMutability": "view",
      "type": "function"
    },
    {
      "inputs": [
        {
          "internalType": "address",
          "name": "forwarder",
          "type": "address"
        }
      ],
      "name": "isTrustedForwarder",
      "outputs": [
        {
          "internalType": "bool",
          "name": "",
          "type": "bool"
        }
      ],
      "stateMutability": "view",
      "type": "function"
    },
    {
      "inputs": [],
      "name": "name",
      "outputs": [
        {
          "internalType": "string",
          "name": "",
          "type": "string"
        }
      ],
      "stateMutability": "view",
      "type": "function"
    },
    {
      "inputs": [],
      "name": "owner",
      "outputs": [
        {
          "internalType": "address",
          "name": "",
          "type": "address"
        }
      ],
      "stateMutability": "view",
      "type": "function"
    },
    {
      "inputs": [
        {
          "internalType": "uint256",
          "name": "tokenId",
          "type": "uint256"
        }
      ],
      "name": "ownerOf",
      "outputs": [
        {
          "internalType": "address",
          "name": "",
          "type": "address"
        }
      ],
      "stateMutability": "view",
      "type": "function"
    },
    {
      "inputs": [],
      "name": "proxiableUUID",
      "outputs": [
        {
          "internalType": "bytes32",
          "name": "",
          "type": "bytes32"
        }
      ],
      "stateMutability": "view",
      "type": "function"
    },
    {
      "inputs": [],
      "name": "renderEngine",
      "outputs": [
        {
          "internalType": "address",
          "name": "",
          "type": "address"
        }
      ],
      "stateMutability": "view",
      "type": "function"
    },
    {
      "inputs": [],
      "name": "renounceOwnership",
      "outputs": [],
      "stateMutability": "nonpayable",
      "type": "function"
    },
    {
      "inputs": [
        {
          "internalType": "address",
          "name": "from",
          "type": "address"
        },
        {
          "internalType": "address",
          "name": "to",
          "type": "address"
        },
        {
          "internalType": "uint256",
          "name": "tokenId",
          "type": "uint256"
        }
      ],
      "name": "safeTransferFrom",
      "outputs": [],
      "stateMutability": "nonpayable",
      "type": "function"
    },
    {
      "inputs": [
        {
          "internalType": "address",
          "name": "from",
          "type": "address"
        },
        {
          "internalType": "address",
          "name": "to",
          "type": "address"
        },
        {
          "internalType": "uint256",
          "name": "tokenId",
          "type": "uint256"
        },
        {
          "internalType": "bytes",
          "name": "data",
          "type": "bytes"
        }
      ],
      "name": "safeTransferFrom",
      "outputs": [],
      "stateMutability": "nonpayable",
      "type": "function"
    },
    {
      "inputs": [
        {
          "internalType": "address",
          "name": "operator",
          "type": "address"
        },
        {
          "internalType": "bool",
          "name": "approved",
          "type": "bool"
        }
      ],
      "name": "setApprovalForAll",
      "outputs": [],
      "stateMutability": "nonpayable",
      "type": "function"
    },
    {
      "inputs": [
        {
          "internalType": "address",
          "name": "newEngine",
          "type": "address"
        }
      ],
      "name": "setRenderEngin",
      "outputs": [],
      "stateMutability": "nonpayable",
      "type": "function"
    },
    {
      "inputs": [
        {
          "internalType": "address",
          "name": "signer",
          "type": "address"
        },
        {
          "internalType": "bool",
          "name": "valid",
          "type": "bool"
        }
      ],
      "name": "setSigner",
      "outputs": [],
      "stateMutability": "nonpayable",
      "type": "function"
    },
    {
      "inputs": [
        {
          "internalType": "address",
          "name": "",
          "type": "address"
        }
      ],
      "name": "signers",
      "outputs": [
        {
          "internalType": "bool",
          "name": "",
          "type": "bool"
        }
      ],
      "stateMutability": "view",
      "type": "function"
    },
    {
      "inputs": [
        {
          "internalType": "bytes4",
          "name": "interfaceId",
          "type": "bytes4"
        }
      ],
      "name": "supportsInterface",
      "outputs": [
        {
          "internalType": "bool",
          "name": "",
          "type": "bool"
        }
      ],
      "stateMutability": "view",
      "type": "function"
    },
    {
      "inputs": [],
      "name": "symbol",
      "outputs": [
        {
          "internalType": "string",
          "name": "",
          "type": "string"
        }
      ],
      "stateMutability": "view",
      "type": "function"
    },
    {
      "inputs": [
        {
          "internalType": "uint256",
          "name": "tokenId",
          "type": "uint256"
        }
      ],
      "name": "tokenURI",
      "outputs": [
        {
          "internalType": "string",
          "name": "",
          "type": "string"
        }
      ],
      "stateMutability": "view",
      "type": "function"
    },
    {
      "inputs": [
        {
          "internalType": "address",
          "name": "from",
          "type": "address"
        },
        {
          "internalType": "address",
          "name": "to",
          "type": "address"
        },
        {
          "internalType": "uint256",
          "name": "tokenId",
          "type": "uint256"
        }
      ],
      "name": "transferFrom",
      "outputs": [],
      "stateMutability": "nonpayable",
      "type": "function"
    },
    {
      "inputs": [
        {
          "internalType": "address",
          "name": "newOwner",
          "type": "address"
        }
      ],
      "name": "transferOwnership",
      "outputs": [],
      "stateMutability": "nonpayable",
      "type": "function"
    },
    {
      "inputs": [
        {
          "internalType": "uint256",
          "name": "tokenId",
          "type": "uint256"
        },
        {
          "internalType": "string",
          "name": "uri",
          "type": "string"
        }
      ],
      "name": "updateAnswerUri",
      "outputs": [],
      "stateMutability": "nonpayable",
      "type": "function"
    },
    {
      "inputs": [
        {
          "internalType": "uint256",
          "name": "tokenId",
          "type": "uint256"
        },
        {
          "internalType": "uint256",
          "name": "power",
          "type": "uint256"
        },
        {
          "internalType": "uint256",
          "name": "deadline",
          "type": "uint256"
        },
        {
          "internalType": "bytes",
          "name": "signature",
          "type": "bytes"
        }
      ],
      "name": "updatePower",
      "outputs": [],
      "stateMutability": "nonpayable",
      "type": "function"
    },
    {
      "inputs": [
        {
          "internalType": "address",
          "name": "newImplementation",
          "type": "address"
        }
      ],
      "name": "upgradeTo",
      "outputs": [],
      "stateMutability": "nonpayable",
      "type": "function"
    },
    {
      "inputs": [
        {
          "internalType": "address",
          "name": "newImplementation",
          "type": "address"
        },
        {
          "internalType": "bytes",
          "name": "data",
          "type": "bytes"
        }
      ],
      "name": "upgradeToAndCall",
      "outputs": [],
      "stateMutability": "payable",
      "type": "function"
    }
  ],
  "transactionHash": "0xd352c43eedd7bfe84c582a320ba4213d2a0ea6a86dddf789897141173a1751d0",
  "args": [
    "0xE140DdB5aC69e81358571C0401aF66476490d093"
  ],
  "numDeployments": 1,
  "solcInputHash": "277f51035e38c5b0ff0d8247cfea0b27",
  "bytecode": "0x60c06040523060a0523480156200001557600080fd5b5060405162003a2338038062003a2383398101604081905262000038916200004a565b6001600160a01b03166080526200007c565b6000602082840312156200005d57600080fd5b81516001600160a01b03811681146200007557600080fd5b9392505050565b60805160a05161395e620000c560003960008181610c7001528181610d0601528181610e6001528181610ef60152610ff10152600081816103e201526123dc015261395e6000f3fe6080604052600436106101d85760003560e01c80636352211e11610102578063a523d35e11610095578063ce56d14b11610064578063ce56d14b1461058e578063d84a500a146105ae578063e985e9c5146105ce578063f2fde38b1461061857600080fd5b8063a523d35e14610519578063b88d4fde14610539578063ba93f88914610559578063c87b56dd1461056e57600080fd5b80638da5cb5b116100d15780638da5cb5b1461049857806395d89b41146104b65780639c6d2976146104cb578063a22cb465146104f957600080fd5b80636352211e1461041257806370a0823114610432578063715018a614610452578063736c0d5b1461046757600080fd5b80632432d4131161017a57806348c7ac941161014957806348c7ac941461036f5780634f1ef2861461038f57806352d1902d146103a2578063572b6c05146103c557600080fd5b80632432d413146102ef57806331cb61051461030f5780633659cfe61461032f57806342842e0e1461034f57600080fd5b8063095ea7b3116101b6578063095ea7b31461026c5780631ab518831461028e5780631ee0df90146102af57806323b872dd146102cf57600080fd5b806301ffc9a7146101dd57806306fdde0314610212578063081812fc14610234575b600080fd5b3480156101e957600080fd5b506101fd6101f8366004612de7565b610638565b60405190151581526020015b60405180910390f35b34801561021e57600080fd5b5061022761071d565b6040516102099190612e54565b34801561024057600080fd5b5061025461024f366004612e67565b6107b0565b6040516001600160a01b039091168152602001610209565b34801561027857600080fd5b5061028c610287366004612e9c565b6107d8565b005b34801561029a57600080fd5b5061019454610254906001600160a01b031681565b3480156102bb57600080fd5b5061028c6102ca366004612f08565b610920565b3480156102db57600080fd5b5061028c6102ea366004612f69565b610b09565b3480156102fb57600080fd5b5061022761030a366004612e67565b610b97565b34801561031b57600080fd5b5061028c61032a366004612fa5565b610c32565b34801561033b57600080fd5b5061028c61034a366004612fe1565b610c66565b34801561035b57600080fd5b5061028c61036a366004612f69565b610e03565b34801561037b57600080fd5b5061028c61038a366004612fe1565b610e1e565b61028c61039d3660046130c1565b610e56565b3480156103ae57600080fd5b506103b7610fe4565b604051908152602001610209565b3480156103d157600080fd5b506101fd6103e0366004612fe1565b7f00000000000000000000000000000000000000000000000000000000000000006001600160a01b0390811691161490565b34801561041e57600080fd5b5061025461042d366004612e67565b6110a9565b34801561043e57600080fd5b506103b761044d366004612fe1565b61110f565b34801561045e57600080fd5b5061028c6111aa565b34801561047357600080fd5b506101fd610482366004612fe1565b6101966020526000908152604090205460ff1681565b3480156104a457600080fd5b506065546001600160a01b0316610254565b3480156104c257600080fd5b506102276111be565b3480156104d757600080fd5b506103b76104e6366004612e67565b6000908152610197602052604090205490565b34801561050557600080fd5b5061028c610514366004612fa5565b6111ce565b34801561052557600080fd5b5061028c61053436600461310f565b6111e0565b34801561054557600080fd5b5061028c6105543660046131d3565b6113fd565b34801561056557600080fd5b5061028c611492565b34801561057a57600080fd5b50610227610589366004612e67565b611519565b34801561059a57600080fd5b5061028c6105a936600461323b565b611630565b3480156105ba57600080fd5b5061028c6105c9366004612fe1565b6116ba565b3480156105da57600080fd5b506101fd6105e9366004613287565b6001600160a01b0391821660009081526101326020908152604080832093909416825291909152205460ff1690565b34801561062457600080fd5b5061028c610633366004612fe1565b611739565b60007fffffffff0000000000000000000000000000000000000000000000000000000082167f80ac58cd0000000000000000000000000000000000000000000000000000000014806106cb57507fffffffff0000000000000000000000000000000000000000000000000000000082167f5b5e139f00000000000000000000000000000000000000000000000000000000145b8061071757507f01ffc9a7000000000000000000000000000000000000000000000000000000007fffffffff000000000000000000000000000000000000000000000000000000008316145b92915050565b606061012d805461072d906132ba565b80601f0160208091040260200160405190810160405280929190818152602001828054610759906132ba565b80156107a65780601f1061077b576101008083540402835291602001916107a6565b820191906000526020600020905b81548152906001019060200180831161078957829003601f168201915b5050505050905090565b60006107bb826117c6565b50600090815261013160205260409020546001600160a01b031690565b60006107e3826110a9565b9050806001600160a01b0316836001600160a01b0316036108715760405162461bcd60e51b815260206004820152602160248201527f4552433732313a20617070726f76616c20746f2063757272656e74206f776e6560448201527f720000000000000000000000000000000000000000000000000000000000000060648201526084015b60405180910390fd5b806001600160a01b031661088361182b565b6001600160a01b0316148061089f575061089f816105e961182b565b6109115760405162461bcd60e51b815260206004820152603e60248201527f4552433732313a20617070726f76652063616c6c6572206973206e6f7420746f60448201527f6b656e206f776e6572206e6f7220617070726f76656420666f7220616c6c00006064820152608401610868565b61091b838361183a565b505050565b61092861182b565b6001600160a01b031661093a866110a9565b6001600160a01b0316146109905760405162461bcd60e51b815260206004820152601a60248201527f503132417263616e613a206e6f7420746f6b656e206f776e65720000000000006044820152606401610868565b4283116109df5760405162461bcd60e51b815260206004820152601760248201527f503132417263616e613a206f75746461746564207369670000000000000000006044820152606401610868565b6000610a8183838080601f01602080910402602001604051908101604052809392919081815260200183838082843760009201919091525050604080517f3cfb1c50437bb2e0aaf2c6e1cc667ef8281e73877eb4a30d99a348b424d2281860208201529081018b9052606081018a905260808101899052610a7b925060a0019050604051602081830303815290604052805190602001206118b6565b9061191f565b6001600160a01b0381166000908152610196602052604090205490915060ff161515600114610af25760405162461bcd60e51b815260206004820152601e60248201527f503132417263616e613a20736967206e6f742066726f6d207369676e657200006044820152606401610868565b505050600092835250610197602052604090912055565b610b1a610b1461182b565b82611943565b610b8c5760405162461bcd60e51b815260206004820152602e60248201527f4552433732313a2063616c6c6572206973206e6f7420746f6b656e206f776e6560448201527f72206e6f7220617070726f7665640000000000000000000000000000000000006064820152608401610868565b61091b8383836119c3565b6101986020526000908152604090208054610bb1906132ba565b80601f0160208091040260200160405190810160405280929190818152602001828054610bdd906132ba565b8015610c2a5780601f10610bff57610100808354040283529160200191610c2a565b820191906000526020600020905b815481529060010190602001808311610c0d57829003601f168201915b505050505081565b610c3a611ba0565b6001600160a01b0391909116600090815261019660205260409020805460ff1916911515919091179055565b6001600160a01b037f0000000000000000000000000000000000000000000000000000000000000000163003610d045760405162461bcd60e51b815260206004820152602c60248201527f46756e6374696f6e206d7573742062652063616c6c6564207468726f7567682060448201527f64656c656761746563616c6c00000000000000000000000000000000000000006064820152608401610868565b7f00000000000000000000000000000000000000000000000000000000000000006001600160a01b0316610d5f7f360894a13ba1a3210667c828492db98dca3e2076cc3735a920a3ca505d382bbc546001600160a01b031690565b6001600160a01b031614610ddb5760405162461bcd60e51b815260206004820152602c60248201527f46756e6374696f6e206d7573742062652063616c6c6564207468726f7567682060448201527f6163746976652070726f787900000000000000000000000000000000000000006064820152608401610868565b610de481611c19565b60408051600080825260208201909252610e0091839190611c21565b50565b61091b838383604051806020016040528060008152506113fd565b610e26611ba0565b610194805473ffffffffffffffffffffffffffffffffffffffff19166001600160a01b0392909216919091179055565b6001600160a01b037f0000000000000000000000000000000000000000000000000000000000000000163003610ef45760405162461bcd60e51b815260206004820152602c60248201527f46756e6374696f6e206d7573742062652063616c6c6564207468726f7567682060448201527f64656c656761746563616c6c00000000000000000000000000000000000000006064820152608401610868565b7f00000000000000000000000000000000000000000000000000000000000000006001600160a01b0316610f4f7f360894a13ba1a3210667c828492db98dca3e2076cc3735a920a3ca505d382bbc546001600160a01b031690565b6001600160a01b031614610fcb5760405162461bcd60e51b815260206004820152602c60248201527f46756e6374696f6e206d7573742062652063616c6c6564207468726f7567682060448201527f6163746976652070726f787900000000000000000000000000000000000000006064820152608401610868565b610fd482611c19565b610fe082826001611c21565b5050565b6000306001600160a01b037f000000000000000000000000000000000000000000000000000000000000000016146110845760405162461bcd60e51b815260206004820152603860248201527f555550535570677261646561626c653a206d757374206e6f742062652063616c60448201527f6c6564207468726f7567682064656c656761746563616c6c00000000000000006064820152608401610868565b507f360894a13ba1a3210667c828492db98dca3e2076cc3735a920a3ca505d382bbc90565b600081815261012f60205260408120546001600160a01b0316806107175760405162461bcd60e51b815260206004820152601860248201527f4552433732313a20696e76616c696420746f6b656e20494400000000000000006044820152606401610868565b60006001600160a01b03821661118d5760405162461bcd60e51b815260206004820152602960248201527f4552433732313a2061646472657373207a65726f206973206e6f74206120766160448201527f6c6964206f776e657200000000000000000000000000000000000000000000006064820152608401610868565b506001600160a01b03166000908152610130602052604090205490565b6111b2611ba0565b6111bc6000611dc1565b565b606061012e805461072d906132ba565b610fe06111d961182b565b8383611e20565b600054610100900460ff16158080156112005750600054600160ff909116105b8061121a5750303b15801561121a575060005460ff166001145b61128c5760405162461bcd60e51b815260206004820152602e60248201527f496e697469616c697a61626c653a20636f6e747261637420697320616c72656160448201527f647920696e697469616c697a65640000000000000000000000000000000000006064820152608401610868565b6000805460ff1916600117905580156112af576000805461ff0019166101001790555b6101956112bd838583613342565b506112c6611eef565b61133989898080601f01602080910402602001604051908101604052809392919081815260200183838082843760009201919091525050604080516020601f8d018190048102820181019092528b815292508b91508a9081908401838280828437600092019190915250611f7c92505050565b6113ac89898080601f01602080910402602001604051908101604052809392919081815260200183838082843760009201919091525050604080516020601f8b01819004810282018101909252898152925089915088908190840183828082843760009201919091525061201492505050565b80156113f2576000805461ff0019169055604051600181527f7f26b83ff96e1f2b6a682f133852f6798a09c465da95921460cefb38474024989060200160405180910390a15b505050505050505050565b61140e61140861182b565b83611943565b6114805760405162461bcd60e51b815260206004820152602e60248201527f4552433732313a2063616c6c6572206973206e6f7420746f6b656e206f776e6560448201527f72206e6f7220617070726f7665640000000000000000000000000000000000006064820152608401610868565b61148c848484846120ad565b50505050565b61149d61044d61182b565b156114ea5760405162461bcd60e51b815260206004820152601c60248201527f503132417263616e613a20616c726561647920686176652070617373000000006044820152606401610868565b6114fe6114f561182b565b61019354612136565b600161019360008282546115129190613419565b9091555050565b6060611524826117c6565b610194546040517fa2d6c6da000000000000000000000000000000000000000000000000000000008152600481018490526000916001600160a01b03169063a2d6c6da90602401600060405180830381865afa158015611588573d6000803e3d6000fd5b505050506040513d6000823e601f3d908101601f191682016040526115b0919081019061342c565b905060006116056115bf61071d565b600086815261019760205260409020546101959085906115de90612150565b6040516020016115f194939291906134b6565b604051602081830303815290604052612285565b9050806040516020016116189190613680565b60405160208183030381529060405292505050919050565b61163861182b565b6001600160a01b031661164a846110a9565b6001600160a01b0316146116a05760405162461bcd60e51b815260206004820152601a60248201527f503132417263616e613a206e6f7420746f6b656e206f776e65720000000000006044820152606401610868565b60008381526101986020526040902061148c828483613342565b6116c38161110f565b156117105760405162461bcd60e51b815260206004820152601c60248201527f503132417263616e613a20616c726561647920686176652070617373000000006044820152606401610868565b61171d8161019354612136565b600161019360008282546117319190613419565b909155505050565b611741611ba0565b6001600160a01b0381166117bd5760405162461bcd60e51b815260206004820152602660248201527f4f776e61626c653a206e6577206f776e657220697320746865207a65726f206160448201527f64647265737300000000000000000000000000000000000000000000000000006064820152608401610868565b610e0081611dc1565b600081815261012f60205260409020546001600160a01b0316610e005760405162461bcd60e51b815260206004820152601860248201527f4552433732313a20696e76616c696420746f6b656e20494400000000000000006044820152606401610868565b60006118356123d8565b905090565b600081815261013160205260409020805473ffffffffffffffffffffffffffffffffffffffff19166001600160a01b038416908117909155819061187d826110a9565b6001600160a01b03167f8c5be1e5ebec7d5bd14f71427d1e84f3dd0314c0f7b2291e5b200ac8c7c3b92560405160405180910390a45050565b60006107176118c361243a565b836040517f19010000000000000000000000000000000000000000000000000000000000006020820152602281018390526042810182905260009060620160405160208183030381529060405280519060200120905092915050565b600080600061192e8585612473565b9150915061193b816124b8565b509392505050565b60008061194f836110a9565b9050806001600160a01b0316846001600160a01b0316148061199757506001600160a01b038082166000908152610132602090815260408083209388168352929052205460ff165b806119bb5750836001600160a01b03166119b0846107b0565b6001600160a01b0316145b949350505050565b826001600160a01b03166119d6826110a9565b6001600160a01b031614611a525760405162461bcd60e51b815260206004820152602560248201527f4552433732313a207472616e736665722066726f6d20696e636f72726563742060448201527f6f776e65720000000000000000000000000000000000000000000000000000006064820152608401610868565b6001600160a01b038216611acd5760405162461bcd60e51b8152602060048201526024808201527f4552433732313a207472616e7366657220746f20746865207a65726f2061646460448201527f72657373000000000000000000000000000000000000000000000000000000006064820152608401610868565b611ad860008261183a565b6001600160a01b038316600090815261013060205260408120805460019290611b029084906136c5565b90915550506001600160a01b038216600090815261013060205260408120805460019290611b31908490613419565b9091555050600081815261012f6020526040808220805473ffffffffffffffffffffffffffffffffffffffff19166001600160a01b0386811691821790925591518493918716917fddf252ad1be2c89b69c2b068fc378daa952ba7f163c4a11628f55a4df523b3ef91a4505050565b611ba861182b565b6001600160a01b0316611bc36065546001600160a01b031690565b6001600160a01b0316146111bc5760405162461bcd60e51b815260206004820181905260248201527f4f776e61626c653a2063616c6c6572206973206e6f7420746865206f776e65726044820152606401610868565b610e00611ba0565b7f4910fdfa16fed3260ed0e7147f7cc6da11a60208b5b9406d12a635614ffd91435460ff1615611c545761091b836126a4565b826001600160a01b03166352d1902d6040518163ffffffff1660e01b8152600401602060405180830381865afa925050508015611cae575060408051601f3d908101601f19168201909252611cab918101906136d8565b60015b611d205760405162461bcd60e51b815260206004820152602e60248201527f45524331393637557067726164653a206e657720696d706c656d656e7461746960448201527f6f6e206973206e6f7420555550530000000000000000000000000000000000006064820152608401610868565b7f360894a13ba1a3210667c828492db98dca3e2076cc3735a920a3ca505d382bbc8114611db55760405162461bcd60e51b815260206004820152602960248201527f45524331393637557067726164653a20756e737570706f727465642070726f7860448201527f6961626c655555494400000000000000000000000000000000000000000000006064820152608401610868565b5061091b83838361276f565b606580546001600160a01b0383811673ffffffffffffffffffffffffffffffffffffffff19831681179093556040519116919082907f8be0079c531659141344cd1fd0a4f28419497f9722a3daafe3b4186f6b6457e090600090a35050565b816001600160a01b0316836001600160a01b031603611e815760405162461bcd60e51b815260206004820152601960248201527f4552433732313a20617070726f766520746f2063616c6c6572000000000000006044820152606401610868565b6001600160a01b0383811660008181526101326020908152604080832094871680845294825291829020805460ff191686151590811790915591519182527f17307eab39ab6107e8899845ad3d59bd9653f200f220920489ca2b5937696c31910160405180910390a3505050565b600054610100900460ff16611f6c5760405162461bcd60e51b815260206004820152602b60248201527f496e697469616c697a61626c653a20636f6e7472616374206973206e6f74206960448201527f6e697469616c697a696e670000000000000000000000000000000000000000006064820152608401610868565b6111bc611f7761182b565b611dc1565b600054610100900460ff16611ff95760405162461bcd60e51b815260206004820152602b60248201527f496e697469616c697a61626c653a20636f6e7472616374206973206e6f74206960448201527f6e697469616c697a696e670000000000000000000000000000000000000000006064820152608401610868565b61012d61200683826136f1565b5061012e61091b82826136f1565b600054610100900460ff166120915760405162461bcd60e51b815260206004820152602b60248201527f496e697469616c697a61626c653a20636f6e7472616374206973206e6f74206960448201527f6e697469616c697a696e670000000000000000000000000000000000000000006064820152608401610868565b81516020928301208151919092012061015f9190915561016055565b6120b88484846119c3565b6120c484848484612794565b61148c5760405162461bcd60e51b815260206004820152603260248201527f4552433732313a207472616e7366657220746f206e6f6e20455243373231526560448201527f63656976657220696d706c656d656e74657200000000000000000000000000006064820152608401610868565b610fe0828260405180602001604052806000815250612923565b60608160000361219357505060408051808201909152600181527f3000000000000000000000000000000000000000000000000000000000000000602082015290565b8160005b81156121bd57806121a7816137b1565b91506121b69050600a836137e1565b9150612197565b60008167ffffffffffffffff8111156121d8576121d8612ffc565b6040519080825280601f01601f191660200182016040528015612202576020820181803683370190505b5090505b84156119bb576122176001836136c5565b9150612224600a866137f5565b61222f906030613419565b60f81b81838151811061224457612244613809565b60200101907effffffffffffffffffffffffffffffffffffffffffffffffffffffffffffff1916908160001a90535061227e600a866137e1565b9450612206565b606081516000036122a457505060408051602081019091526000815290565b60006040518060600160405280604081526020016138c260409139905060006003845160026122d39190613419565b6122dd91906137e1565b6122e890600461381f565b67ffffffffffffffff81111561230057612300612ffc565b6040519080825280601f01601f19166020018201604052801561232a576020820181803683370190505b509050600182016020820185865187015b80821015612396576003820191508151603f8160121c168501518453600184019350603f81600c1c168501518453600184019350603f8160061c168501518453600184019350603f811685015184535060018301925061233b565b50506003865106600181146123b257600281146123c5576123cd565b603d6001830353603d60028303536123cd565b603d60018303535b509195945050505050565b60007f00000000000000000000000000000000000000000000000000000000000000006001600160a01b0316330361243557507fffffffffffffffffffffffffffffffffffffffffffffffffffffffffffffffec36013560601c90565b503390565b60006118357f8b73c3c69bb8fe3d512ecc4cf759cc79239f7b179b0ffacaa9a75d522b39400f61246a61015f5490565b610160546129ac565b60008082516041036124a95760208301516040840151606085015160001a61249d878285856129f6565b945094505050506124b1565b506000905060025b9250929050565b60008160048111156124cc576124cc613836565b036124d45750565b60018160048111156124e8576124e8613836565b036125355760405162461bcd60e51b815260206004820152601860248201527f45434453413a20696e76616c6964207369676e617475726500000000000000006044820152606401610868565b600281600481111561254957612549613836565b036125965760405162461bcd60e51b815260206004820152601f60248201527f45434453413a20696e76616c6964207369676e6174757265206c656e677468006044820152606401610868565b60038160048111156125aa576125aa613836565b0361261d5760405162461bcd60e51b815260206004820152602260248201527f45434453413a20696e76616c6964207369676e6174757265202773272076616c60448201527f75650000000000000000000000000000000000000000000000000000000000006064820152608401610868565b600481600481111561263157612631613836565b03610e005760405162461bcd60e51b815260206004820152602260248201527f45434453413a20696e76616c6964207369676e6174757265202776272076616c60448201527f75650000000000000000000000000000000000000000000000000000000000006064820152608401610868565b6001600160a01b0381163b6127215760405162461bcd60e51b815260206004820152602d60248201527f455243313936373a206e657720696d706c656d656e746174696f6e206973206e60448201527f6f74206120636f6e7472616374000000000000000000000000000000000000006064820152608401610868565b7f360894a13ba1a3210667c828492db98dca3e2076cc3735a920a3ca505d382bbc805473ffffffffffffffffffffffffffffffffffffffff19166001600160a01b0392909216919091179055565b61277883612ae3565b6000825111806127855750805b1561091b5761148c8383612b23565b60006001600160a01b0384163b1561291857836001600160a01b031663150b7a026127bd61182b565b8786866040518563ffffffff1660e01b81526004016127df949392919061384c565b6020604051808303816000875af192505050801561281a575060408051601f3d908101601f1916820190925261281791810190613888565b60015b6128cd573d808015612848576040519150601f19603f3d011682016040523d82523d6000602084013e61284d565b606091505b5080516000036128c55760405162461bcd60e51b815260206004820152603260248201527f4552433732313a207472616e7366657220746f206e6f6e20455243373231526560448201527f63656976657220696d706c656d656e74657200000000000000000000000000006064820152608401610868565b805181602001fd5b7fffffffff00000000000000000000000000000000000000000000000000000000167f150b7a02000000000000000000000000000000000000000000000000000000001490506119bb565b506001949350505050565b61292d8383612c2e565b61293a6000848484612794565b61091b5760405162461bcd60e51b815260206004820152603260248201527f4552433732313a207472616e7366657220746f206e6f6e20455243373231526560448201527f63656976657220696d706c656d656e74657200000000000000000000000000006064820152608401610868565b6040805160208101859052908101839052606081018290524660808201523060a082015260009060c0016040516020818303038152906040528051906020012090505b9392505050565b6000807f7fffffffffffffffffffffffffffffff5d576e7357a4501ddfe92f46681b20a0831115612a2d5750600090506003612ada565b8460ff16601b14158015612a4557508460ff16601c14155b15612a565750600090506004612ada565b6040805160008082526020820180845289905260ff881692820192909252606081018690526080810185905260019060a0016020604051602081039080840390855afa158015612aaa573d6000803e3d6000fd5b5050604051601f1901519150506001600160a01b038116612ad357600060019250925050612ada565b9150600090505b94509492505050565b612aec816126a4565b6040516001600160a01b038216907fbc7cd75a20ee27fd9adebab32041f755214dbc6bffa90cc0225b39da2e5c2d3b90600090a250565b60606001600160a01b0383163b612ba25760405162461bcd60e51b815260206004820152602660248201527f416464726573733a2064656c65676174652063616c6c20746f206e6f6e2d636f60448201527f6e747261637400000000000000000000000000000000000000000000000000006064820152608401610868565b600080846001600160a01b031684604051612bbd91906138a5565b600060405180830381855af49150503d8060008114612bf8576040519150601f19603f3d011682016040523d82523d6000602084013e612bfd565b606091505b5091509150612c25828260405180606001604052806027815260200161390260279139612d80565b95945050505050565b6001600160a01b038216612c845760405162461bcd60e51b815260206004820181905260248201527f4552433732313a206d696e7420746f20746865207a65726f20616464726573736044820152606401610868565b600081815261012f60205260409020546001600160a01b031615612cea5760405162461bcd60e51b815260206004820152601c60248201527f4552433732313a20746f6b656e20616c7265616479206d696e746564000000006044820152606401610868565b6001600160a01b038216600090815261013060205260408120805460019290612d14908490613419565b9091555050600081815261012f6020526040808220805473ffffffffffffffffffffffffffffffffffffffff19166001600160a01b03861690811790915590518392907fddf252ad1be2c89b69c2b068fc378daa952ba7f163c4a11628f55a4df523b3ef908290a45050565b60608315612d8f5750816129ef565b825115612d9f5782518084602001fd5b8160405162461bcd60e51b81526004016108689190612e54565b7fffffffff0000000000000000000000000000000000000000000000000000000081168114610e0057600080fd5b600060208284031215612df957600080fd5b81356129ef81612db9565b60005b83811015612e1f578181015183820152602001612e07565b50506000910152565b60008151808452612e40816020860160208601612e04565b601f01601f19169290920160200192915050565b6020815260006129ef6020830184612e28565b600060208284031215612e7957600080fd5b5035919050565b80356001600160a01b0381168114612e9757600080fd5b919050565b60008060408385031215612eaf57600080fd5b612eb883612e80565b946020939093013593505050565b60008083601f840112612ed857600080fd5b50813567ffffffffffffffff811115612ef057600080fd5b6020830191508360208285010111156124b157600080fd5b600080600080600060808688031215612f2057600080fd5b853594506020860135935060408601359250606086013567ffffffffffffffff811115612f4c57600080fd5b612f5888828901612ec6565b969995985093965092949392505050565b600080600060608486031215612f7e57600080fd5b612f8784612e80565b9250612f9560208501612e80565b9150604084013590509250925092565b60008060408385031215612fb857600080fd5b612fc183612e80565b915060208301358015158114612fd657600080fd5b809150509250929050565b600060208284031215612ff357600080fd5b6129ef82612e80565b634e487b7160e01b600052604160045260246000fd5b604051601f8201601f1916810167ffffffffffffffff8111828210171561303b5761303b612ffc565b604052919050565b600067ffffffffffffffff82111561305d5761305d612ffc565b50601f01601f191660200190565b600082601f83011261307c57600080fd5b813561308f61308a82613043565b613012565b8181528460208386010111156130a457600080fd5b816020850160208301376000918101602001919091529392505050565b600080604083850312156130d457600080fd5b6130dd83612e80565b9150602083013567ffffffffffffffff8111156130f957600080fd5b6131058582860161306b565b9150509250929050565b6000806000806000806000806080898b03121561312b57600080fd5b883567ffffffffffffffff8082111561314357600080fd5b61314f8c838d01612ec6565b909a50985060208b013591508082111561316857600080fd5b6131748c838d01612ec6565b909850965060408b013591508082111561318d57600080fd5b6131998c838d01612ec6565b909650945060608b01359150808211156131b257600080fd5b506131bf8b828c01612ec6565b999c989b5096995094979396929594505050565b600080600080608085870312156131e957600080fd5b6131f285612e80565b935061320060208601612e80565b925060408501359150606085013567ffffffffffffffff81111561322357600080fd5b61322f8782880161306b565b91505092959194509250565b60008060006040848603121561325057600080fd5b83359250602084013567ffffffffffffffff81111561326e57600080fd5b61327a86828701612ec6565b9497909650939450505050565b6000806040838503121561329a57600080fd5b6132a383612e80565b91506132b160208401612e80565b90509250929050565b600181811c908216806132ce57607f821691505b6020821081036132ee57634e487b7160e01b600052602260045260246000fd5b50919050565b601f82111561091b57600081815260208120601f850160051c8101602086101561331b5750805b601f850160051c820191505b8181101561333a57828155600101613327565b505050505050565b67ffffffffffffffff83111561335a5761335a612ffc565b61336e8361336883546132ba565b836132f4565b6000601f8411600181146133a2576000851561338a5750838201355b600019600387901b1c1916600186901b1783556133fc565b600083815260209020601f19861690835b828110156133d357868501358255602094850194600190920191016133b3565b50868210156133f05760001960f88860031b161c19848701351681555b505060018560011b0183555b5050505050565b634e487b7160e01b600052601160045260246000fd5b8082018082111561071757610717613403565b60006020828403121561343e57600080fd5b815167ffffffffffffffff81111561345557600080fd5b8201601f8101841361346657600080fd5b805161347461308a82613043565b81815285602083850101111561348957600080fd5b612c25826020830160208601612e04565b600081516134ac818560208601612e04565b9290920192915050565b7f7b226e616d65223a20220000000000000000000000000000000000000000000081526000855160206134ef82600a8601838b01612e04565b81840191507f222c226465736372697074696f6e223a22000000000000000000000000000000600a830152601b60008854613529816132ba565b60018281168015613541576001811461355a5761358a565b60ff19841686890152858315158402890101945061358a565b8c6000528660002060005b848110156135805781548a8201890152908301908801613565565b5050858389010194505b505050506135b7817f222c22696d616765223a220000000000000000000000000000000000000000009052565b61364561363f6135ca600b84018b61349a565b7f222c2261747472696275746573223a205b7b22646973706c61795f747970652281527f3a20226e756d626572222c2274726169745f74797065223a2022706f7765722260208201527f2c2276616c7565223a20000000000000000000000000000000000000000000006040820152604a0190565b8861349a565b9350505050613673817f7d5d7d00000000000000000000000000000000000000000000000000000000009052565b6003019695505050505050565b7f646174613a6170706c69636174696f6e2f6a736f6e3b6261736536342c0000008152600082516136b881601d850160208701612e04565b91909101601d0192915050565b8181038181111561071757610717613403565b6000602082840312156136ea57600080fd5b5051919050565b815167ffffffffffffffff81111561370b5761370b612ffc565b61371f8161371984546132ba565b846132f4565b602080601f831160018114613754576000841561373c5750858301515b600019600386901b1c1916600185901b17855561333a565b600085815260208120601f198616915b8281101561378357888601518255948401946001909101908401613764565b50858210156137a15787850151600019600388901b60f8161c191681555b5050505050600190811b01905550565b600060001982036137c4576137c4613403565b5060010190565b634e487b7160e01b600052601260045260246000fd5b6000826137f0576137f06137cb565b500490565b600082613804576138046137cb565b500690565b634e487b7160e01b600052603260045260246000fd5b808202811582820484141761071757610717613403565b634e487b7160e01b600052602160045260246000fd5b60006001600160a01b0380871683528086166020840152508360408301526080606083015261387e6080830184612e28565b9695505050505050565b60006020828403121561389a57600080fd5b81516129ef81612db9565b600082516138b7818460208701612e04565b919091019291505056fe4142434445464748494a4b4c4d4e4f505152535455565758595a6162636465666768696a6b6c6d6e6f707172737475767778797a303132333435363738392b2f416464726573733a206c6f772d6c6576656c2064656c65676174652063616c6c206661696c6564a26469706673582212201a3bef06db3fc53448883e375729985c4ac3713ca1e4df2cef7618682fbb00a764736f6c63430008110033",
  "devdoc": {
    "kind": "dev",
    "methods": {
      "approve(address,uint256)": {
        "details": "See {IERC721-approve}."
      },
      "balanceOf(address)": {
        "details": "See {IERC721-balanceOf}."
      },
      "getApproved(uint256)": {
        "details": "See {IERC721-getApproved}."
      },
      "isApprovedForAll(address,address)": {
        "details": "See {IERC721-isApprovedForAll}."
      },
      "name()": {
        "details": "See {IERC721Metadata-name}."
      },
      "owner()": {
        "details": "Returns the address of the current owner."
      },
      "ownerOf(uint256)": {
        "details": "See {IERC721-ownerOf}."
      },
      "proxiableUUID()": {
        "details": "Implementation of the ERC1822 {proxiableUUID} function. This returns the storage slot used by the implementation. It is used to validate that the this implementation remains valid after an upgrade. IMPORTANT: A proxy pointing at a proxiable contract should not be considered proxiable itself, because this risks bricking a proxy that upgrades to it, by delegating to itself until out of gas. Thus it is critical that this function revert if invoked through a proxy. This is guaranteed by the `notDelegated` modifier."
      },
      "renounceOwnership()": {
        "details": "Leaves the contract without owner. It will not be possible to call `onlyOwner` functions anymore. Can only be called by the current owner. NOTE: Renouncing ownership will leave the contract without an owner, thereby removing any functionality that is only available to the owner."
      },
      "safeTransferFrom(address,address,uint256)": {
        "details": "See {IERC721-safeTransferFrom}."
      },
      "safeTransferFrom(address,address,uint256,bytes)": {
        "details": "See {IERC721-safeTransferFrom}."
      },
      "setApprovalForAll(address,bool)": {
        "details": "See {IERC721-setApprovalForAll}."
      },
      "supportsInterface(bytes4)": {
        "details": "See {IERC165-supportsInterface}."
      },
      "symbol()": {
        "details": "See {IERC721Metadata-symbol}."
      },
      "tokenURI(uint256)": {
        "details": "See {IERC721Metadata-tokenURI}."
      },
      "transferFrom(address,address,uint256)": {
        "details": "See {IERC721-transferFrom}."
      },
      "transferOwnership(address)": {
        "details": "Transfers ownership of the contract to a new account (`newOwner`). Can only be called by the current owner."
      },
      "upgradeTo(address)": {
        "details": "Upgrade the implementation of the proxy to `newImplementation`. Calls {_authorizeUpgrade}. Emits an {Upgraded} event."
      },
      "upgradeToAndCall(address,bytes)": {
        "details": "Upgrade the implementation of the proxy to `newImplementation`, and subsequently execute the function call encoded in `data`. Calls {_authorizeUpgrade}. Emits an {Upgraded} event."
      }
    },
    "version": 1
  },
  "userdoc": {
    "kind": "user",
    "methods": {},
    "version": 1
  },
  "storageLayout": {
    "storage": [
      {
        "astId": 614,
        "contract": "contracts/P12ArcanaUpgradable.sol:P12ArcanaUpgradable",
        "label": "_initialized",
        "offset": 0,
        "slot": "0",
        "type": "t_uint8"
      },
      {
        "astId": 617,
        "contract": "contracts/P12ArcanaUpgradable.sol:P12ArcanaUpgradable",
        "label": "_initializing",
        "offset": 1,
        "slot": "0",
        "type": "t_bool"
      },
      {
        "astId": 2231,
        "contract": "contracts/P12ArcanaUpgradable.sol:P12ArcanaUpgradable",
        "label": "__gap",
        "offset": 0,
        "slot": "1",
        "type": "t_array(t_uint256)50_storage"
      },
      {
        "astId": 227,
        "contract": "contracts/P12ArcanaUpgradable.sol:P12ArcanaUpgradable",
        "label": "__gap",
        "offset": 0,
        "slot": "51",
        "type": "t_array(t_uint256)50_storage"
      },
      {
        "astId": 10,
        "contract": "contracts/P12ArcanaUpgradable.sol:P12ArcanaUpgradable",
        "label": "_owner",
        "offset": 0,
        "slot": "101",
        "type": "t_address"
      },
      {
        "astId": 130,
        "contract": "contracts/P12ArcanaUpgradable.sol:P12ArcanaUpgradable",
        "label": "__gap",
        "offset": 0,
        "slot": "102",
        "type": "t_array(t_uint256)49_storage"
      },
      {
        "astId": 596,
        "contract": "contracts/P12ArcanaUpgradable.sol:P12ArcanaUpgradable",
        "label": "__gap",
        "offset": 0,
        "slot": "151",
        "type": "t_array(t_uint256)50_storage"
      },
      {
        "astId": 893,
        "contract": "contracts/P12ArcanaUpgradable.sol:P12ArcanaUpgradable",
        "label": "__gap",
        "offset": 0,
        "slot": "201",
        "type": "t_array(t_uint256)50_storage"
      },
      {
        "astId": 3099,
        "contract": "contracts/P12ArcanaUpgradable.sol:P12ArcanaUpgradable",
        "label": "__gap",
        "offset": 0,
        "slot": "251",
        "type": "t_array(t_uint256)50_storage"
      },
      {
        "astId": 923,
        "contract": "contracts/P12ArcanaUpgradable.sol:P12ArcanaUpgradable",
        "label": "_name",
        "offset": 0,
        "slot": "301",
        "type": "t_string_storage"
      },
      {
        "astId": 925,
        "contract": "contracts/P12ArcanaUpgradable.sol:P12ArcanaUpgradable",
        "label": "_symbol",
        "offset": 0,
        "slot": "302",
        "type": "t_string_storage"
      },
      {
        "astId": 929,
        "contract": "contracts/P12ArcanaUpgradable.sol:P12ArcanaUpgradable",
        "label": "_owners",
        "offset": 0,
        "slot": "303",
        "type": "t_mapping(t_uint256,t_address)"
      },
      {
        "astId": 933,
        "contract": "contracts/P12ArcanaUpgradable.sol:P12ArcanaUpgradable",
        "label": "_balances",
        "offset": 0,
        "slot": "304",
        "type": "t_mapping(t_address,t_uint256)"
      },
      {
        "astId": 937,
        "contract": "contracts/P12ArcanaUpgradable.sol:P12ArcanaUpgradable",
        "label": "_tokenApprovals",
        "offset": 0,
        "slot": "305",
        "type": "t_mapping(t_uint256,t_address)"
      },
      {
        "astId": 943,
        "contract": "contracts/P12ArcanaUpgradable.sol:P12ArcanaUpgradable",
        "label": "_operatorApprovals",
        "offset": 0,
        "slot": "306",
        "type": "t_mapping(t_address,t_mapping(t_address,t_bool))"
      },
      {
        "astId": 1785,
        "contract": "contracts/P12ArcanaUpgradable.sol:P12ArcanaUpgradable",
        "label": "__gap",
        "offset": 0,
        "slot": "307",
        "type": "t_array(t_uint256)44_storage"
      },
      {
        "astId": 2915,
        "contract": "contracts/P12ArcanaUpgradable.sol:P12ArcanaUpgradable",
        "label": "_HASHED_NAME",
        "offset": 0,
        "slot": "351",
        "type": "t_bytes32"
      },
      {
        "astId": 2917,
        "contract": "contracts/P12ArcanaUpgradable.sol:P12ArcanaUpgradable",
        "label": "_HASHED_VERSION",
        "offset": 0,
        "slot": "352",
        "type": "t_bytes32"
      },
      {
        "astId": 3055,
        "contract": "contracts/P12ArcanaUpgradable.sol:P12ArcanaUpgradable",
        "label": "__gap",
        "offset": 0,
        "slot": "353",
        "type": "t_array(t_uint256)50_storage"
      },
      {
        "astId": 4140,
        "contract": "contracts/P12ArcanaUpgradable.sol:P12ArcanaUpgradable",
        "label": "idx",
        "offset": 0,
        "slot": "403",
        "type": "t_uint256"
      },
      {
        "astId": 4142,
        "contract": "contracts/P12ArcanaUpgradable.sol:P12ArcanaUpgradable",
        "label": "renderEngine",
        "offset": 0,
        "slot": "404",
        "type": "t_address"
      },
      {
        "astId": 4144,
        "contract": "contracts/P12ArcanaUpgradable.sol:P12ArcanaUpgradable",
        "label": "_description",
        "offset": 0,
        "slot": "405",
        "type": "t_string_storage"
      },
      {
        "astId": 4148,
        "contract": "contracts/P12ArcanaUpgradable.sol:P12ArcanaUpgradable",
        "label": "signers",
        "offset": 0,
        "slot": "406",
        "type": "t_mapping(t_address,t_bool)"
      },
      {
        "astId": 4152,
        "contract": "contracts/P12ArcanaUpgradable.sol:P12ArcanaUpgradable",
        "label": "_powers",
        "offset": 0,
        "slot": "407",
        "type": "t_mapping(t_uint256,t_uint256)"
      },
      {
        "astId": 4156,
        "contract": "contracts/P12ArcanaUpgradable.sol:P12ArcanaUpgradable",
        "label": "answersUri",
        "offset": 0,
        "slot": "408",
        "type": "t_mapping(t_uint256,t_string_storage)"
      }
    ],
    "types": {
      "t_address": {
        "encoding": "inplace",
        "label": "address",
        "numberOfBytes": "20"
      },
      "t_array(t_uint256)44_storage": {
        "base": "t_uint256",
        "encoding": "inplace",
        "label": "uint256[44]",
        "numberOfBytes": "1408"
      },
      "t_array(t_uint256)49_storage": {
        "base": "t_uint256",
        "encoding": "inplace",
        "label": "uint256[49]",
        "numberOfBytes": "1568"
      },
      "t_array(t_uint256)50_storage": {
        "base": "t_uint256",
        "encoding": "inplace",
        "label": "uint256[50]",
        "numberOfBytes": "1600"
      },
      "t_bool": {
        "encoding": "inplace",
        "label": "bool",
        "numberOfBytes": "1"
      },
      "t_bytes32": {
        "encoding": "inplace",
        "label": "bytes32",
        "numberOfBytes": "32"
      },
      "t_mapping(t_address,t_bool)": {
        "encoding": "mapping",
        "key": "t_address",
        "label": "mapping(address => bool)",
        "numberOfBytes": "32",
        "value": "t_bool"
      },
      "t_mapping(t_address,t_mapping(t_address,t_bool))": {
        "encoding": "mapping",
        "key": "t_address",
        "label": "mapping(address => mapping(address => bool))",
        "numberOfBytes": "32",
        "value": "t_mapping(t_address,t_bool)"
      },
      "t_mapping(t_address,t_uint256)": {
        "encoding": "mapping",
        "key": "t_address",
        "label": "mapping(address => uint256)",
        "numberOfBytes": "32",
        "value": "t_uint256"
      },
      "t_mapping(t_uint256,t_address)": {
        "encoding": "mapping",
        "key": "t_uint256",
        "label": "mapping(uint256 => address)",
        "numberOfBytes": "32",
        "value": "t_address"
      },
      "t_mapping(t_uint256,t_string_storage)": {
        "encoding": "mapping",
        "key": "t_uint256",
        "label": "mapping(uint256 => string)",
        "numberOfBytes": "32",
        "value": "t_string_storage"
      },
      "t_mapping(t_uint256,t_uint256)": {
        "encoding": "mapping",
        "key": "t_uint256",
        "label": "mapping(uint256 => uint256)",
        "numberOfBytes": "32",
        "value": "t_uint256"
      },
      "t_string_storage": {
        "encoding": "bytes",
        "label": "string",
        "numberOfBytes": "32"
      },
      "t_uint256": {
        "encoding": "inplace",
        "label": "uint256",
        "numberOfBytes": "32"
      },
      "t_uint8": {
        "encoding": "inplace",
        "label": "uint8",
        "numberOfBytes": "1"
      }
    }
  }
}