{
  "address": "0x5eFCCb401f491dB0de2697Ec541773401ecE310b",
  "abi": [
    {
      "inputs": [
        {
          "internalType": "uint256",
          "name": "tokenId",
          "type": "uint256"
        }
      ],
      "name": "renderTokenById",
      "outputs": [
        {
          "internalType": "string",
          "name": "",
          "type": "string"
        }
      ],
      "stateMutability": "view",
      "type": "function"
    }
  ],
  "transactionHash": "0xc3b4230e63faca534c9a99a2e8d96149e2c78eef748be40216eff8eb51f930e9",
  "args": [],
  "numDeployments": 1,
  "solcInputHash": "92eff7e25e9da72a462d66b6c0ba3437",
  "bytecode": "0x608060405234801561001057600080fd5b50611c90806100206000396000f3fe608060405234801561001057600080fd5b506004361061002b5760003560e01c8063a2d6c6da14610030575b600080fd5b61004361003e366004610350565b610059565b604051610050919061038d565b60405180910390f35b6040517f9c6d2976000000000000000000000000000000000000000000000000000000008152600481018290526060906000903390639c6d297690602401602060405180830381865afa1580156100b4573d6000803e3d6000fd5b505050506040513d601f19601f820116820180604052508101906100d891906103c0565b90506100e381610111565b6103e88110156100fd576100f681610187565b9392505050565b6040805160208101909152600081526100f6565b6101848160405160240161012791815260200190565b60408051601f198184030181529190526020810180517bffffffffffffffffffffffffffffffffffffffffffffffffffffffff167ff5b1bba9000000000000000000000000000000000000000000000000000000001790526101f2565b50565b60606040518061022001604052806101e18152602001611a7a6101e191396101ae83610213565b604051806115a00160405280611579815260200161050161157991396040516020016101dc939291906103d9565b6040516020818303038152906040529050919050565b80516a636f6e736f6c652e6c6f67602083016000808483855afa5050505050565b60608160000361025657505060408051808201909152600181527f3000000000000000000000000000000000000000000000000000000000000000602082015290565b8160005b8115610280578061026a81610432565b91506102799050600a83610480565b915061025a565b60008167ffffffffffffffff81111561029b5761029b610494565b6040519080825280601f01601f1916602001820160405280156102c5576020820181803683370190505b5090505b8415610348576102da6001836104aa565b91506102e7600a866104c3565b6102f29060306104d7565b60f81b818381518110610307576103076104ea565b60200101907effffffffffffffffffffffffffffffffffffffffffffffffffffffffffffff1916908160001a905350610341600a86610480565b94506102c9565b949350505050565b60006020828403121561036257600080fd5b5035919050565b60005b8381101561038457818101518382015260200161036c565b50506000910152565b60208152600082518060208401526103ac816040850160208701610369565b601f01601f19169190910160400192915050565b6000602082840312156103d257600080fd5b5051919050565b600084516103eb818460208901610369565b8451908301906103ff818360208901610369565b8451910190610412818360208801610369565b0195945050505050565b634e487b7160e01b600052601160045260246000fd5b60007fffffffffffffffffffffffffffffffffffffffffffffffffffffffffffffffff82036104635761046361041c565b5060010190565b634e487b7160e01b600052601260045260246000fd5b60008261048f5761048f61046a565b500490565b634e487b7160e01b600052604160045260246000fd5b818103818111156104bd576104bd61041c565b92915050565b6000826104d2576104d261046a565b500690565b808201808211156104bd576104bd61041c565b634e487b7160e01b600052603260045260246000fdfe3c2f746578743e3c636972636c652063783d22343530222063793d223634322220723d2232323922207374726f6b653d2275726c28237072656669785f5f7061696e74355f6c696e6561725f353032335f313333312922207374726f6b652d77696474683d2234222f3e3c636972636c652063783d22343530222063793d223634322220723d2232353322207374726f6b653d2275726c28237072656669785f5f7061696e74365f6c696e6561725f353032335f313333312922207374726f6b652d77696474683d2232222f3e3c636972636c652063783d22343530222063793d223634322220723d223237392e3522207374726f6b653d2275726c28237072656669785f5f7061696e74375f6c696e6561725f353032335f3133333129222f3e3c636972636c652063783d223435302e35222063793d223634322e352220723d223330372e31323522207374726f6b653d2275726c28237072656669785f5f7061696e74385f6c696e6561725f353032335f313333312922207374726f6b652d77696474683d222e3735222f3e3c7061746820643d224d343820353737563330613220322030203031322d3268383030613220322030203031322032763534342e354d34382036393876353532633020312e312e3839352032203220326838303063312e313035203020322d2e3920322d32563730392e3522207374726f6b653d2275726c28237072656669785f5f7061696e74395f6c696e6561725f353032335f313333312922207374726f6b652d77696474683d22312e35222f3e3c7061746820643d224d3238203535382e35563530613220322030203031322d3268383430613220322030203031322032763530352e354d32382037323376353037633020312e312e3839352032203220326838343063312e313035203020322d2e3920322d32563732352e3522207374726f6b653d2275726c28237072656669785f5f7061696e7431305f6c696e6561725f353032335f313333312922207374726f6b652d77696474683d22312e35222f3e3c7061746820643d224d3338203537312e35563430613220322030203031322d3268383230613220322030203031322032763532384d33382037313176353239633020312e312e3839352032203220326838323063312e313035203020322d2e3920322d32563731362e3522207374726f6b653d2275726c28237072656669785f5f7061696e7431315f6c696e6561725f353032335f313333312922207374726f6b652d77696474683d2233222f3e3c7061746820643d224d38383420373433762d32322e3738314c3837372e3834322037313448383834762d32682d382e3133396c2d352e3934312d3648383834762d32682d31362e30366c2d352e3934312d3648383834762d32682d32332e3938326c2d352e3934312d3648383834762d32682d33312e3930336c2d352e3934312d3648383834762d32682d33392e3832356c2d352e3934312d3648383834762d32682d34372e3734366c2d352e3934322d3648383834762d32682d35352e3636386c2d352e3934312d3648383834762d32682d36332e35396c2d352e3934312d3648383834762d32682d37312e3531316c2d352e3934312d3648383834762d32682d37372e3435326c352e3934312d3648383834762d32682d36392e3533316c352e3934312d3648383834762d32682d36312e3630396c352e3934312d3648383834762d32682d35332e3638386c352e3934312d3648383834762d32682d34352e3736366c352e3934312d3648383834762d32682d33372e3834356c352e3934322d3648383834762d32682d32392e3932336c352e3934312d3648383834762d32682d32322e3030316c352e3934312d3648383834762d32682d31342e30386c352e3934312d3648383834762d32682d362e3135386c362e3135382d362e323139563533394c373833203634316c313031203130327a222066696c6c3d2275726c28237072656669785f5f7061696e7431325f6c696e6561725f353032335f3133333129222f3e3c7061746820643d224d313620373433762d32322e3738314c32322e31353820373134483136762d3268382e3133396c352e39342d36483136762d326831362e30366c352e3934312d36483136762d326832332e3938326c352e39342d36483136762d326833312e3930336c352e3934312d36483136762d326833392e3832356c352e3934312d36483136762d326834372e3734366c352e3934322d36483136762d326835352e3636386c352e3934312d36483136762d326836332e35396c352e39342d36483136762d326837312e3531316c352e3934312d36483136762d326837372e3435336c2d352e3934322d36483136762d326836392e35336c2d352e39342d36483136762d326836312e36316c2d352e3934322d36483136762d326835332e3638386c2d352e3934312d36483136762d326834352e3736366c2d352e3934312d36483136762d326833372e3834356c2d352e3934322d36483136762d326832392e3932336c2d352e3934312d36483136762d326832322e3030326c2d352e3934322d36483136762d326831342e30386c2d352e3934312d36483136762d3268362e3135384c3136203536312e373831563533396c313031203130324c3136203734337a222066696c6c3d2275726c28237072656669785f5f7061696e7431335f6c696e6561725f353032335f3133333129222f3e3c646566733e3c6c696e6561724772616469656e742069643d227072656669785f5f7061696e74305f6c696e6561725f353032335f31333331222078313d22343530222079313d2231323830222078323d22343530222079323d223022206772616469656e74556e6974733d227573657253706163654f6e557365223e3c73746f702073746f702d636f6c6f723d2223313531383230222f3e3c73746f70206f66667365743d222e3235222073746f702d636f6c6f723d2223414241454237222f3e3c73746f70206f66667365743d222e35222073746f702d636f6c6f723d2223464446444646222f3e3c73746f70206f66667365743d222e3735222073746f702d636f6c6f723d2223414241454237222f3e3c73746f70206f66667365743d2231222073746f702d636f6c6f723d2223313531383230222f3e3c2f6c696e6561724772616469656e743e3c6c696e6561724772616469656e742069643d227072656669785f5f7061696e74315f6c696e6561725f353032335f31333331222078313d22343530222079313d2230222078323d22343530222079323d223132383022206772616469656e74556e6974733d227573657253706163654f6e557365223e3c73746f702073746f702d636f6c6f723d2223453245444638222073746f702d6f7061636974793d222e32222f3e3c73746f70206f66667365743d222e343935222073746f702d636f6c6f723d2223666666222f3e3c73746f70206f66667365743d2231222073746f702d636f6c6f723d2223453245444638222073746f702d6f7061636974793d222e32222f3e3c2f6c696e6561724772616469656e743e3c6c696e6561724772616469656e742069643d227072656669785f5f7061696e74325f6c696e6561725f353032335f31333331222078313d22343530222079313d223839222078323d22343530222079323d223239362e3522206772616469656e74556e6974733d227573657253706163654f6e557365223e3c73746f702073746f702d636f6c6f723d2223454346364646222f3e3c73746f70206f66667365743d2231222073746f702d636f6c6f723d2223443645314631222f3e3c2f6c696e6561724772616469656e743e3c6c696e6561724772616469656e742069643d227072656669785f5f7061696e74345f6c696e6561725f353032335f31333331222078313d22343530222079313d22343332222078323d22343530222079323d2238353222206772616469656e74556e6974733d227573657253706163654f6e557365223e3c73746f702073746f702d636f6c6f723d2223666666222f3e3c73746f70206f66667365743d2231222073746f702d636f6c6f723d2223343935333542222f3e3c2f6c696e6561724772616469656e743e3c6c696e6561724772616469656e742069643d227072656669785f5f7061696e74355f6c696e6561725f353032335f31333331222078313d22343530222079313d22343131222078323d22343530222079323d2238373322206772616469656e74556e6974733d227573657253706163654f6e557365223e3c73746f702073746f702d636f6c6f723d2223666666222f3e3c73746f70206f66667365743d2231222073746f702d636f6c6f723d2223344135343543222f3e3c2f6c696e6561724772616469656e743e3c6c696e6561724772616469656e742069643d227072656669785f5f7061696e74365f6c696e6561725f353032335f31333331222078313d22343530222079313d22333838222078323d22343530222079323d2238393622206772616469656e74556e6974733d227573657253706163654f6e557365223e3c73746f702073746f702d636f6c6f723d2223666666222f3e3c73746f70206f66667365743d2231222073746f702d636f6c6f723d2223344135343543222f3e3c2f6c696e6561724772616469656e743e3c6c696e6561724772616469656e742069643d227072656669785f5f7061696e74375f6c696e6561725f353032335f31333331222078313d22343530222079313d22333632222078323d22343530222079323d2239323222206772616469656e74556e6974733d227573657253706163654f6e557365223e3c73746f702073746f702d636f6c6f723d2223666666222f3e3c73746f70206f66667365743d2231222073746f702d636f6c6f723d2223344135343543222f3e3c2f6c696e6561724772616469656e743e3c6c696e6561724772616469656e742069643d227072656669785f5f7061696e74385f6c696e6561725f353032335f31333331222078313d223435302e35222079313d22333335222078323d223435302e35222079323d2239353022206772616469656e74556e6974733d227573657253706163654f6e557365223e3c73746f702073746f702d636f6c6f723d2223666666222f3e3c73746f70206f66667365743d2231222073746f702d636f6c6f723d2223344135343543222f3e3c2f6c696e6561724772616469656e743e3c6c696e6561724772616469656e742069643d227072656669785f5f7061696e74395f6c696e6561725f353032335f31333331222078313d22343530222079313d223238222078323d22343530222079323d223132353222206772616469656e74556e6974733d227573657253706163654f6e557365223e3c73746f702073746f702d636f6c6f723d2223453245444638222073746f702d6f7061636974793d222e32222f3e3c73746f70206f66667365743d222e343935222073746f702d636f6c6f723d2223666666222f3e3c73746f70206f66667365743d2231222073746f702d636f6c6f723d2223453245444638222073746f702d6f7061636974793d222e32222f3e3c2f6c696e6561724772616469656e743e3c6c696e6561724772616469656e742069643d227072656669785f5f7061696e7431305f6c696e6561725f353032335f31333331222078313d22343530222079313d223438222078323d22343530222079323d223132333222206772616469656e74556e6974733d227573657253706163654f6e557365223e3c73746f702073746f702d636f6c6f723d2223453245444638222073746f702d6f7061636974793d222e32222f3e3c73746f70206f66667365743d222e343935222073746f702d636f6c6f723d2223666666222f3e3c73746f70206f66667365743d2231222073746f702d636f6c6f723d2223453245444638222073746f702d6f7061636974793d222e32222f3e3c2f6c696e6561724772616469656e743e3c6c696e6561724772616469656e742069643d227072656669785f5f7061696e7431315f6c696e6561725f353032335f31333331222078313d22343530222079313d223338222078323d22343530222079323d223132343222206772616469656e74556e6974733d227573657253706163654f6e557365223e3c73746f702073746f702d636f6c6f723d2223383438433943222f3e3c73746f70206f66667365743d222e333936222073746f702d636f6c6f723d2223463846414643222f3e3c73746f70206f66667365743d222e363335222073746f702d636f6c6f723d2223463846414643222f3e3c73746f70206f66667365743d2231222073746f702d636f6c6f723d2223383438433943222f3e3c2f6c696e6561724772616469656e743e3c6c696e6561724772616469656e742069643d227072656669785f5f7061696e7431325f6c696e6561725f353032335f31333331222078313d22383834222079313d22363431222078323d22373833222079323d2236343122206772616469656e74556e6974733d227573657253706163654f6e557365223e3c73746f702073746f702d636f6c6f723d2223463946414643222f3e3c73746f70206f66667365743d222e353339222073746f702d636f6c6f723d2223413141354230222f3e3c73746f70206f66667365743d2231222073746f702d636f6c6f723d2223363836443741222f3e3c2f6c696e6561724772616469656e743e3c6c696e6561724772616469656e742069643d227072656669785f5f7061696e7431335f6c696e6561725f353032335f31333331222078313d223136222079313d22363431222078323d22313137222079323d2236343122206772616469656e74556e6974733d227573657253706163654f6e557365223e3c73746f702073746f702d636f6c6f723d2223463946414643222f3e3c73746f70206f66667365743d222e353339222073746f702d636f6c6f723d2223413141354230222f3e3c73746f70206f66667365743d2231222073746f702d636f6c6f723d2223363836443741222f3e3c2f6c696e6561724772616469656e743e3c72616469616c4772616469656e742069643d227072656669785f5f7061696e74335f72616469616c5f353032335f31333331222063783d2230222063793d22302220723d223122206772616469656e74556e6974733d227573657253706163654f6e55736522206772616469656e745472616e73666f726d3d226d6174726978282d32313020302030202d323130203435302036343229223e3c73746f70206f66667365743d222e303035222073746f702d636f6c6f723d2223463946444646222f3e3c73746f70206f66667365743d222e323931222073746f702d636f6c6f723d2223454646354646222f3e3c73746f70206f66667365743d222e373138222073746f702d636f6c6f723d2223424343304341222f3e3c73746f70206f66667365743d2231222073746f702d636f6c6f723d2223354135463643222f3e3c2f72616469616c4772616469656e743e3c2f646566733e3c2f7376673e3c7376672077696474683d2239303022206865696768743d2231323830222066696c6c3d226e6f6e652220786d6c6e733d22687474703a2f2f7777772e77332e6f72672f323030302f737667223e3c7265637420783d22382220793d2238222077696474683d2238383422206865696768743d2231323634222072783d223130222066696c6c3d2275726c28237072656669785f5f7061696e74305f6c696e6561725f353032335f313333312922207374726f6b653d2275726c28237072656669785f5f7061696e74315f6c696e6561725f353032335f313333312922207374726f6b652d77696474683d223136222f3e3c636972636c652063783d22343530222063793d223634322220723d22323037222066696c6c3d2275726c28237072656669785f5f7061696e74335f72616469616c5f353032335f313333312922207374726f6b653d2275726c28237072656669785f5f7061696e74345f6c696e6561725f353032335f313333312922207374726f6b652d77696474683d2236222f3e3c746578742064783d22343530222064793d223639322220746578742d616e63686f723d226d6964646c6522207374796c653d226865696768743a31303070782220666f6e742d73697a653d223130307074222066696c6c3d2223303030223ea2646970667358221220f3a915d2ac67f0a2b57973e2b642d43a3a5478e63b6da016e4c9e5d083c06a5264736f6c63430008110033",
  "devdoc": {
    "kind": "dev",
    "methods": {},
    "version": 1
  },
  "userdoc": {
    "kind": "user",
    "methods": {},
    "version": 1
  },
  "storageLayout": {
    "storage": [],
    "types": null
  }
}