{
  "address": "0xAcB4964a0043D5A3d82cB628F4bF90426E9cC1DC",
  "abi": [
    {
      "inputs": [
        {
          "internalType": "uint256",
          "name": "tokenId",
          "type": "uint256"
        }
      ],
      "name": "renderTokenById",
      "outputs": [
        {
          "internalType": "string",
          "name": "",
          "type": "string"
        }
      ],
      "stateMutability": "view",
      "type": "function"
    }
  ],
  "transactionHash": "0x5f1ce1c3b367a2bb5bda0a346083b364da938dd0757613109ab54b4b45142860",
  "args": [],
  "numDeployments": 6,
  "solcInputHash": "7f3e26cf3cfb95d27e5dfd60e978c6de",
  "bytecode": "0x608060405234801561001057600080fd5b50615c6c806100206000396000f3fe608060405234801561001057600080fd5b506004361061002b5760003560e01c8063a2d6c6da14610030575b600080fd5b61004361003e366004610343565b610059565b6040516100509190610380565b60405180910390f35b6040517f9c6d2976000000000000000000000000000000000000000000000000000000008152600481018290526060906000903390639c6d297690602401602060405180830381865afa1580156100b4573d6000803e3d6000fd5b505050506040513d601f19601f820116820180604052508101906100d891906103d1565b9050600f8110156100f3576100ec816100fc565b9392505050565b6100ec81610184565b6060604051806106e001604052806106a581526020016155926106a5913961012383610206565b604051806116c001604052806116918152602001612138611691913960405180611c200160405280611bea815260200161054e611bea913960405160200161016e94939291906103ea565b6040516020818303038152906040529050919050565b60606103e7821115610196576103e791505b604051806104c0016040528061049181526020016137c961049191396101bb83610206565b6040518061196001604052806119388152602001613c5a611938913960405180611c200160405280611bea815260200161054e611bea913960405160200161016e94939291906103ea565b60608160000361024957505060408051808201909152600181527f3000000000000000000000000000000000000000000000000000000000000000602082015290565b8160005b8115610273578061025d8161047f565b915061026c9050600a836104cd565b915061024d565b60008167ffffffffffffffff81111561028e5761028e6104e1565b6040519080825280601f01601f1916602001820160405280156102b8576020820181803683370190505b5090505b841561033b576102cd6001836104f7565b91506102da600a86610510565b6102e5906030610524565b60f81b8183815181106102fa576102fa610537565b60200101907effffffffffffffffffffffffffffffffffffffffffffffffffffffffffffff1916908160001a905350610334600a866104cd565b94506102bc565b949350505050565b60006020828403121561035557600080fd5b5035919050565b60005b8381101561037757818101518382015260200161035f565b50506000910152565b602081526000825180602084015261039f81604085016020870161035c565b601f017fffffffffffffffffffffffffffffffffffffffffffffffffffffffffffffffe0169190910160400192915050565b6000602082840312156103e357600080fd5b5051919050565b600085516103fc818460208a0161035c565b855190830190610410818360208a0161035c565b855191019061042381836020890161035c565b845191019061043681836020880161035c565b7f3c2f646566733e3c2f7376673e000000000000000000000000000000000000009101908152600d019695505050505050565b634e487b7160e01b600052601160045260246000fd5b60007fffffffffffffffffffffffffffffffffffffffffffffffffffffffffffffffff82036104b0576104b0610469565b5060010190565b634e487b7160e01b600052601260045260246000fd5b6000826104dc576104dc6104b7565b500490565b634e487b7160e01b600052604160045260246000fd5b8181038181111561050a5761050a610469565b92915050565b60008261051f5761051f6104b7565b500690565b8082018082111561050a5761050a610469565b634e487b7160e01b600052603260045260246000fdfe3c7374796c653e40666f6e742d666163657b666f6e742d66616d696c793a2748656e6e792050656e6e79273b7372633a75726c2827646174613a6170706c69636174696f6e2f666f6e743b6261736536342c643039474d674142414141414141307741416f41414141414642514141417a6a4141454141414141414141414141414141414141414141414141414141414141426d414167776f4b6d6c53595241736141414532416951444d4151674259596b427a6f624e52497a6f335a7a73324b532f5a634a3342674376536b7649764977424c443132616c315265686f7245634e2f2f4d314d674542567a546758494934727a68394969454348354a485344493750473737487244426b4a456c4749676f4a6c594d326f696754617a346b5256337a52695862556252725966486f3651686d356f726b356c58472f76495a664b6f6e32783168576b6e716c4e33735541487649456a6f4e3363663158376e7749366277444345412b555a30734c2b4869302f65392b762f72464535424668335243495452436f7554483366625966587659734130545479536952512b5a5a456b31636f694a58416d686f6a4b6361446f784b2b78796d4f6441705979756266776339516f415152323471574141594131304351417776354d4c66776d3441756f42444a6369304e42747971666e6c5a384a453648396e4c2f66414645454669714151342b4376704c77514634324577436f75704a43425269356b7268715041547144412b44336b4d456b6254533543706b5a656652666a765348684577314a4f38656f565378595035737962426c52736f46544c41455546424842346b41674945584c67492b504b5243694341375058365779696745454e42524d426c4a714b612b4b5067687952656742492f35554f6f66414d453552555062667132745a7266305344576a786c4e5256413747555745516b75534e383172302b53686b6d79754c516d39594d2b4771735533766d545352374241444b3558442b524439337779796e467a64484468696d4e6531763341546d665179644435575a6f464844645956544d45727046552f584939624853436b366d5279754a78774253416a6e68566a2b365277507a34307838776642564150667651756e434b514a4b546974394d324b50724f543355545132582b315464496755455848463334763444722f2b6a3239537a704869726a6b5666536750386f484133476862582f72684a444a69384239745545676d414b4b616739494e336659736c7362664171326d4c627842353843536143515a74613449616a5634674e4f792b67632f62374f4a3165615a77543444703941594d4b7957766c792f616a38302b38726b657872337a41487054744d626a676c72327a4b634a5762524f5a3733317431717064622f663852497148315537483935526f4c4d4a5a4951474e6772494776304f746d6e38766234357a762f36334c6d4754484c45316e6d375857345252657571695576364f4366443151574a51575678364677736c73765574415a3961373551452b6f35746b4c3341724a6c4c43504d59756f396f787a33484469534b3437446e6c6a75584d643351726461454b43504c5177756331765536747931366a7764476847634474455a5a3369326746425a45586d61437450396533337a4f6b45742b47566f707658625669705756466a4c7637524a394f754b47367479434969726a574d717a5453623645325466514e5673424b4a72463978356359312f446d467753784352574d56346f7836434e6162554b7865642b484e4a4c4c58474a7566786d724d4e5a317157537a492b6b4c45716562364c636d6d4442574b4b63774b52354f456634707250575845624d52326c5776584a466530534155566863524f6f6a68536b53735965524536527158746d436c4378593439735a6e30726545724f2b4733415475464342484d5a6f74525976474454365661774f543877786e6c44587773322b32795874497278556a636f5a7966447a6e7a624647786b4e68557469714a565a53716e39586877733665516f646d5846496458537131654266464d2b44616b724a5a4c527966472b48764b66785a456c4f59652b6e7869534a345667554459694a71314c4a7271685774417254536b3242616e7744685062432b486e634d364e57412f4257344163315065624d657074644b494a654e79734e4665615844454e6a324f597a387662544e4b443346696b4a6a596b59626e4c5442366c573263594b7661396c7773334a347a396a55494439755737627266714270774e4454726a506d7a2b5453736e4b75384f7555386e2f563061536e51353443386a5364786141397a496c754b6b6d314a4f704e6f774d6275446f4b386e442b7343674e73315777785075342f4b4c7652646b3238635456423456613378753077496d694d694a386d736e5067445635594b5a3056484348706b70746c7643523356375549305a4651664334625433545555776c6777656a4b786e37654e74453837396e58374a6334664b645731616e6a674b7930634f616c6d464e7a5448543833496a46785a4d62787a56317456535732462b30446c3049454c57713571695273654e444f3379566967576664426371504a434c4443396f7962456f7038626d4f65504955783265706737665569354a546737624c5442466a36455442793864326669534e6632383433483158754c4c66356435734c3645454f714d79797a514e4e365a516b35797a325a4c4c543170647a7158374b6e456b546f784833447a624763354c504b5337455348756f583765383737346a414543796c6d767a4e536670717a58425a36566a776138542b763572723369784b356e643857486e67346f6876787447484f623362626855704e362b504239614e6730754d574c56476d7866673770536a6d44516a4c44736a74533751597067513375464a33305959676d7457727a635071536831784c67456f636c6c7768386a447753775a547a384c717631473439474b2b4c796f454a6949394a446249657363684f6c5331614d7164536c4a764e6b3963314a70357a694862742f46452f75755a64366f47666570715a486965513532314e597a67764478343874484f3550656a5531766a704b3731424d725379584c38563661303161585656615972393461556d365a454a6955375557524a756d6b4a6a6f7877517546723069615a2f75724f3673396b54693171695a4a6a34576b70583861757774427157457874506a314836352b4f55367149315877544d77755a547a5a4f7154364c59373855312f4a507851494d4642544b4e69696d4b59542f50312b6f50684d3636394e504f4e764f4d782f4d7a51325147444a5456466657554d4b58472f4c6f34306e55622b7947436d766a474b6776596337446d356456675a7a657369672f694d452f375076745037392f6b5542376955486c2b624d444f2f54314c75312b4c66362b31686c59733435554b6573387649566f67457671316e39465144352f384163356943784f7049653138727433735863746b6f6730566e5a6f73634d6f2b344b705351655048444677673639666847436f68336e664a31705657536d437369496f7667636b48374f5a2b432f5664453530512f2b58516d786573505778774c4f2f6250396a316d6e4442436a4471554842395a63434e52693244494947577a736b67714650475a7665316158703430797a7678616e3337426c382b5951622b43486a535751333267745834435868634f714e36506a3334686f4f6c3459645469416e37526e484678624162376f446a6b346568773267445542443736392b55305a4b5762504d456a797430627062485957344d616d534536717251502f47674364534364415965726b4e624f41302f344b495865753676373942734c7a4b614c4a4e62576232384d5378442b6e43366932576d3036476c4b3977495a644f6c345a636e78397570326971306a544c64617931704c625177705a2b367a7934346168486d49486b4d43567571346458412b6f674f2b4535304c73764132763545682f774b6a796330345165415562712f637043346a446f7a3169325a6e593378656a546c4a544659704e6b7654436571426b54384e376633673537714e36595a375558475159554e30366a316a4778716f487150767739635458625348497963694b6b6f6b672f6c4248484c6a786956635773386845514167776242694943735a365776357477367a6d69377779514e4b682f746f374553496a4d6e636361704a715259564d32766156517135534d4869776a7a5471727774644e6138586f6f3276543061557973776c69445976776f65614b2f45736d6e3574424e412b7233304f41734d7658555958474f6f4a436250347862794a6d69447477456f7134714d504566346f4c34464e2f75744d723232447939797a637249535a4c5553676f486d326b35544c72326233734161784f6571325851563339786345553061764f564448595042713943365763725755676670535351474642644779345155796d7a39776c4754722b62564a616d6234727a4a4c62716a5a6e2b726753556b494731546e5870765a4c444b746531634a46534a45477953486e55724b73394d7a4b636f74797734515973585433704c2b486231564536424b6b35323242667a72463065565362594b694e434861312b44573065576143706c5274636445314255727338794a49456a664a726633656f4b383352586a665655356b616c4f35527848662f6a687970476a6a49577878596f6c33735868476f4878364643557a71422f7553677269533150474f2b756e684a6561467557316a6b654f7a306f6964756c6149696f4f4c36697a46515a5a474e477864746c6c6e6856626d5334454a76724137696a454f513750592f65304f33334479596f556c556b6c6d51626255484a476331785a6f66506849494d786d7a574e4d6159524c38647532354f546c39504a793945576576666c6f532b2b464c4e664f374c5a504e706b645061453837466b4578774c71456777426458366c5844717767323639555251515a56644c724375584154636267326c75536746724b3178315837586b596a43464846342f4a4b5a6b736b4d2f513771456f682b534c75616c37744d4e7850687a79577455683253483154344e6e37526b722f2b324d4f5a544f6f36547633597a36566d6648614f544d422f2b612f714967764a574b7256304c514f306c4a694d4e63346f67335973584247693033307a64616e50316976797a654842306c6554504231376a786c5a432b5958537a4a4c346f4b7256553153456337445530546b5071526e766f62625171696c363938626d537153574c4f5979584f342f6c34716f494f2b454b546862724549763968457966574179392f2b2b2f79654630676f6c6f5254724a2f5635393541616b494444356539354a7067702b656e4d6351684565342b5a796d39717a3858747031414a516b726a367862714373573966316443546669466b424f54544c68697950344a335050342f5a323449386c654a6a34682f4134414d384448592f6d45354b65496d306c396f722b373950497058676179694145416d674a49696747736d4141676a6b7664664144594231635944325231477470743545584b424b6e596a436a59535a2b50386f4a6e684e41745047563853484b43414d6f49484a4f4167424344575343424141614d4a444b6867476945436c7357394e4343793163506749444961747a746649446a416d3445454432693436595141596d597051766642327751476f766c49694d442f45452f51514e525a452f52337a7371752b72517465742b536472583062693979572f7573486d64647141317a483936415178416c7167505739756c39754f7942506c782b724d58703866544a63386572697677707854624f72516c797445786774334b446e3762514561486868375245537955684750677858663656792f5564395531485a37365759386f456569316139576c587a36314f4a376c416471712b4e314b34434b4236527433743642593950467861396f5977626c61764e4373505a32386f473279507a5444316d6d4473576942566362466e6a35304d4935665078493761744f736d644f7a51784a4565706961626c59314f474638576a5a357971493963376e4a6a4b4342346572637554617a61675749436253414f49486b614e2b4972693248576436674869484957686e4b685770786657646b734241514930364c6556676e4379766f4f6469466a4b335348304a6f4c4356744f304830336c4d4d6b30324832352b49365467445671384c6c78352b6152697944543132654967414141413d3d27297d3c2f7374796c653e3c7374796c653e40666f6e742d666163657b666f6e742d66616d696c793a27506f7070696e73273b7372633a75726c2827646174613a6170706c69636174696f6e2f666f6e743b6261736536342c643039474d67414241414141414163304141734141414141445477414141626f414151424267414141414141414141414141414141414141414141414141414147783447594143436567714d58496c34415459434a414e59437934414243414668564d4854687669437367656f7964776d795170552b523172775063316d3044394463774536736f4654765142714f77415975323679736276314f2f496e6a3435393764392f3476586d41647a347344576c4d77547a745249464e6f637051565550482f2f392b726d6d794e79444d506866695064632f4e32714d746c72514661576d4d69584d4446317a7133496473436c5a4f374e347a65774142674c4e6939345030597050346f4930454150372f42774241796d7230414a4142756b4e7a414941586234717367524d7041414461504432744774784a776a4132465a5a6779536f742f693244386c4b4b4b756b4130774541326b59504177436469776d6a31617767414142557344526d685152504451623059464142496b534a6b53425a71717839733744713869525a3572372f4c3538356665723430534d6a3638336b47526170776a704959695179525574374849372f50516c554e414136514c63472b67414d6d6b624741476743653367437341664948774139416941704c4a436845475a4343544155366b49627932776c356931463161465965684b596e5356567938395372616a614746305869554c546f33706f47326d52615352714e5657516b3531566766467a732f6a3378346a783136487a69772b50496f394877364e63673837665a574c3831544645694e42494f486e4d61457a7351626f302b50416877444e755a4946504132704d5932532f4435794f6d506d375a68454c4478506a52354375437a694f454f4d767a72725941537338477845524b41453450504c3552414d5631757630684f564737596d3542346e785235477549774e7a5a6a6847653232477276453363324a33444c75677a67362f64676b366432355a704f734b586c324143366b4937586148734a5446667a655934586265324e5a2b36487a747a37525a394e4477474c4a6d79465165394837675743384f3436706c564434754a417278724c796332304e43416e7a5447614a6e753567456c2b5746514d445255437330454a3478577a61524c5547306b48417342383944635347536d2f38514f5a6b356f3849713975756a4a303135734b5135777830645064536741462b303736475034506f5558775067617964775249687954794d5967523771456c68444156354546416f506647485679346634612f2b643943414b624a502f426a672b7177625056752f7847544e4535345a4e6366576d6f584b506d706759364b71493173326873466955384938564452626478636133746756422f4e57754a45306d53705a7a335171646e6466347245543430584b5a6230784459314e70396452647369796438643836674c7670556370355664376358502f496941774e715473694f79625576366a476c396334535933567279492b4d5677324f4c484f524e48483037306665546b324f44676e32363047316e5934364f6a49766f775a4764337275346d70712f2b7541556250663967337a744b645678726c5652326d37686c7354464e7a773071597134747575444a766339696647665a62716c5a7576776f544f79716e414859705650557a5844696c39533353684d426157556a7976495a444f7a5874657962774b674e396850474c6d3061366d6177597471636a67326e4d68482b35763349332f3433316d2f5959596d2f56584c38637555396d70737748742b52794f616d726367507951754c694b7074396554796b77426f585776354a38562f57763346786565766d3873665a2b61394c37376c70587535394c46614675326350417a37334a2f743646465956386579593457552b2f6d4a65596e43744c436835686e7233396d37476d7272733471537149502b537745577447674e506c72666e396b74374f4c4c67557776467257583733344d6e2f43767546507a5049674430642b36794a586d5662567437724f554865456c65374e5353326f4943737161796379767651503171573776624b70666b3553345677777566535539376e383744686a5a704e67334269344f6139526f6832764f676433775342642b444a6a7a367967557268686575584c5665632b625930794e5077626d364972393468556855764479326c7057527457683572684f75574c353835767879615546686552316655463562684663587744744b457a752b42496e6578623368354c7a4e31734c4f365732556b6341744a44327964474b64516f56626b6b7233366f38363271625a326e2b4e4d6f347934546366505455734f4c6845475a414b334e665150742f3176767547344f6e4246574568555531484434734b5737462b65564671563339455a6d5a334f4b2b3761446c634f766a6a344b6a667347756a2f695a39384234664155414b796f53642f3452433365437632686a3241674467786f71317077414162707477547750382f34546c6f7138426f51576477583344466c334d416744415a6c2b566c7a534a4c77446f487279694553777a434a7979454e787a4a62427a47506a5a42714670436c5935434e77556755382b424c333842585a704461486851724b37394b6f556745456452484e575377577a504178426551764763536d5a38456265697731514e696741796e6b5250536632785a522b66416837626b725045663253636b41776c676f49435655446b4a6d70427767463165442b4f697a4e6745484b635143777a476142494851696e614330513067773342415245724e59534d6a7732416d554e765549364978646569784b4b6d745353455269465a3344456a2b537a686458304e4f6b4d706d6b546b6c50553069724b73705539416931536978564b4f6d755970564b7067786b4d6b55536c56686479696954316a496c716b7170757135633063536359584b4c343548536d764c2f45457651556b78746f5343364434504638696e3131316d4656785265416f2b37564a59704a444b566b7147553144436b4368457a4e54594a6f6b6a4a4e464751454246546f654e673057703066474956364e4a476745774a3146475751614557716c516f4731306251553146624b4f6944313158415a5759557772455a41455253652f7161715559796b6a5659745a396c615271625a3179436b307741352f5a334d6f51716678656a58494a2b474b6c43746f7a6f5a39707a2f6c67594c48352b536a6c5032724b69426c367456347a486b74417165783867557a784b54476f494647446366536a496b797059695539634850442f3530347679794d6d6a4e6b784467396e536b7a3569785973754c496d5374507a4b74517a2b58485877413d27297d3c2f7374796c653e3c2f746578743e3c636972636c652063783d273435302e35272063793d273634322e352720723d273330372e31323527207374726f6b653d2775726c28237072656669785f5f7072656669785f5f7072656669785f5f7072656669785f5f7072656669785f5f7061696e74385f6c696e6561725f353032335f313331392927207374726f6b652d77696474683d272e3735272f3e3c746578742064783d27343530272064793d27313137352720646f6d696e616e742d626173656c696e653d2763656e7472616c2720746578742d616e63686f723d276d6964646c6527207374796c653d276865696768743a31303070782720666f6e742d66616d696c793d2748656e6e792050656e6e792720666f6e742d73697a653d273438272066696c6c3d2723666666273e50313220417263616e612040544931313c2f746578743e3c7061746820643d274d343820353737563330613220322030203031322d3268383030613220322030203031322032763534342e354d34382036393876353532633020312e312e3839352032203220326838303063312e313035203020322d2e3920322d32563730392e3527207374726f6b653d2775726c28237072656669785f5f7072656669785f5f7061696e7431305f6c696e6561725f353032335f313333312927207374726f6b652d77696474683d27312e35272f3e3c7061746820643d274d3238203535382e35563530613220322030203031322d3268383430613220322030203031322032763530352e354d32382037323376353037633020312e312e3839352032203220326838343063312e313035203020322d2e3920322d32563732352e3527207374726f6b653d2775726c28237072656669785f5f7072656669785f5f7061696e7431315f6c696e6561725f353032335f313333312927207374726f6b652d77696474683d27312e35272f3e3c7061746820643d274d3338203537312e35563430613220322030203031322d3268383230613220322030203031322032763532384d33382037313176353239633020312e312e3839352032203220326838323063312e313035203020322d2e3920322d32563731362e3527207374726f6b653d2775726c28237072656669785f5f7072656669785f5f7061696e7431325f6c696e6561725f353032335f313333312927207374726f6b652d77696474683d2733272f3e3c7061746820643d274d38383420373433762d32322e3738314c3837372e3834322037313448383834762d32682d382e3133396c2d352e3934312d3648383834762d32682d31362e30366c2d352e3934312d3648383834762d32682d32332e3938326c2d352e3934312d3648383834762d32682d33312e3930336c2d352e3934312d3648383834762d32682d33392e3832356c2d352e3934312d3648383834762d32682d34372e3734366c2d352e3934322d3648383834762d32682d35352e3636386c2d352e3934312d3648383834762d32682d36332e35396c2d352e3934312d3648383834762d32682d37312e3531316c2d352e3934312d3648383834762d32682d37372e3435326c352e3934312d3648383834762d32682d36392e3533316c352e3934312d3648383834762d32682d36312e3630396c352e3934312d3648383834762d32682d35332e3638386c352e3934312d3648383834762d32682d34352e3736366c352e3934312d3648383834762d32682d33372e3834356c352e3934322d3648383834762d32682d32392e3932336c352e3934312d3648383834762d32682d32322e3030316c352e3934312d3648383834762d32682d31342e30386c352e3934312d3648383834762d32682d362e3135386c362e3135382d362e323139563533394c373833203634316c313031203130327a272066696c6c3d2775726c28237072656669785f5f7072656669785f5f7061696e7431335f6c696e6561725f353032335f3133333129272f3e3c7061746820643d274d313620373433762d32322e3738314c32322e31353820373134483136762d3268382e3133396c352e39342d36483136762d326831362e30366c352e3934312d36483136762d326832332e3938326c352e39342d36483136762d326833312e3930336c352e3934312d36483136762d326833392e3832356c352e3934312d36483136762d326834372e3734366c352e3934322d36483136762d326835352e3636386c352e3934312d36483136762d326836332e35396c352e39342d36483136762d326837312e3531316c352e3934312d36483136762d326837372e3435336c2d352e3934322d36483136762d326836392e35336c2d352e39342d36483136762d326836312e36316c2d352e3934322d36483136762d326835332e3638386c2d352e3934312d36483136762d326834352e3736366c2d352e3934312d36483136762d326833372e3834356c2d352e3934322d36483136762d326832392e3932336c2d352e3934312d36483136762d326832322e3030326c2d352e3934322d36483136762d326831342e30386c2d352e3934312d36483136762d3268362e3135384c3136203536312e373831563533396c313031203130324c3136203734337a272066696c6c3d2775726c28237072656669785f5f7072656669785f5f7061696e7431345f6c696e6561725f353032335f3133333129272f3e3c646566733e3c6c696e6561724772616469656e742069643d277072656669785f5f7072656669785f5f7061696e74305f6c696e6561725f353032335f31333331272078313d27343530272079313d2731323830272078323d27343530272079323d273027206772616469656e74556e6974733d277573657253706163654f6e557365273e3c73746f702073746f702d636f6c6f723d2723313531383230272f3e3c73746f70206f66667365743d272e3235272073746f702d636f6c6f723d2723414241454237272f3e3c73746f70206f66667365743d272e35272073746f702d636f6c6f723d2723464446444646272f3e3c73746f70206f66667365743d272e3735272073746f702d636f6c6f723d2723414241454237272f3e3c73746f70206f66667365743d2731272073746f702d636f6c6f723d2723313531383230272f3e3c2f6c696e6561724772616469656e743e3c6c696e6561724772616469656e742069643d277072656669785f5f7072656669785f5f7061696e74315f6c696e6561725f353032335f31333331272078313d27343530272079313d2730272078323d27343530272079323d273132383027206772616469656e74556e6974733d277573657253706163654f6e557365273e3c73746f702073746f702d636f6c6f723d2723453245444638272073746f702d6f7061636974793d272e32272f3e3c73746f70206f66667365743d272e343935272073746f702d636f6c6f723d2723666666272f3e3c73746f70206f66667365743d2731272073746f702d636f6c6f723d2723453245444638272073746f702d6f7061636974793d272e32272f3e3c2f6c696e6561724772616469656e743e3c6c696e6561724772616469656e742069643d277072656669785f5f7072656669785f5f7061696e74325f6c696e6561725f353032335f31333331272078313d27343530272079313d273839272078323d27343530272079323d273239362e3527206772616469656e74556e6974733d277573657253706163654f6e557365273e3c73746f702073746f702d636f6c6f723d2723454346364646272f3e3c73746f70206f66667365743d2731272073746f702d636f6c6f723d2723443645314631272f3e3c2f6c696e6561724772616469656e743e3c6c696e6561724772616469656e742069643d277072656669785f5f7072656669785f5f7061696e74345f6c696e6561725f353032335f31333331272078313d27343530272079313d27343332272078323d27343530272079323d2738353227206772616469656e74556e6974733d277573657253706163654f6e557365273e3c73746f702073746f702d636f6c6f723d2723666666272f3e3c73746f70206f66667365743d2731272073746f702d636f6c6f723d2723343935333542272f3e3c2f6c696e6561724772616469656e743e3c6c696e6561724772616469656e742069643d277072656669785f5f7072656669785f5f7061696e74355f6c696e6561725f353032335f31333331272078313d27343530272079313d27343131272078323d27343530272079323d2738373327206772616469656e74556e6974733d277573657253706163654f6e557365273e3c73746f702073746f702d636f6c6f723d2723666666272f3e3c73746f70206f66667365743d2731272073746f702d636f6c6f723d2723344135343543272f3e3c2f6c696e6561724772616469656e743e3c6c696e6561724772616469656e742069643d277072656669785f5f7072656669785f5f7061696e74365f6c696e6561725f353032335f31333331272078313d27343530272079313d27333838272078323d27343530272079323d2738393627206772616469656e74556e6974733d277573657253706163654f6e557365273e3c73746f702073746f702d636f6c6f723d2723666666272f3e3c73746f70206f66667365743d2731272073746f702d636f6c6f723d2723344135343543272f3e3c2f6c696e6561724772616469656e743e3c6c696e6561724772616469656e742069643d277072656669785f5f7072656669785f5f7061696e74375f6c696e6561725f353032335f31333331272078313d27343530272079313d27333632272078323d27343530272079323d2739323227206772616469656e74556e6974733d277573657253706163654f6e557365273e3c73746f702073746f702d636f6c6f723d2723666666272f3e3c73746f70206f66667365743d2731272073746f702d636f6c6f723d2723344135343543272f3e3c2f6c696e6561724772616469656e743e3c6c696e6561724772616469656e742069643d277072656669785f5f7072656669785f5f7061696e74385f6c696e6561725f353032335f31333331272078313d273435302e35272079313d27333335272078323d273435302e35272079323d2739353027206772616469656e74556e6974733d277573657253706163654f6e557365273e3c73746f702073746f702d636f6c6f723d2723666666272f3e3c73746f70206f66667365743d2731272073746f702d636f6c6f723d2723344135343543272f3e3c2f6c696e6561724772616469656e743e3c6c696e6561724772616469656e742069643d277072656669785f5f7072656669785f5f7061696e74395f6c696e6561725f353032335f31333331272078313d27343530272079313d273536302e3735272078323d27343530272079323d273732332e323527206772616469656e74556e6974733d277573657253706163654f6e557365273e3c73746f702073746f702d636f6c6f723d2723364337373831272f3e3c73746f70206f66667365743d2731272073746f702d636f6c6f723d2723413942374334272f3e3c2f6c696e6561724772616469656e743e3c6c696e6561724772616469656e742069643d277072656669785f5f7072656669785f5f7061696e7431305f6c696e6561725f353032335f31333331272078313d27343530272079313d273238272078323d27343530272079323d273132353227206772616469656e74556e6974733d277573657253706163654f6e557365273e3c73746f702073746f702d636f6c6f723d2723453245444638272073746f702d6f7061636974793d272e32272f3e3c73746f70206f66667365743d272e343935272073746f702d636f6c6f723d2723666666272f3e3c73746f70206f66667365743d2731272073746f702d636f6c6f723d2723453245444638272073746f702d6f7061636974793d272e32272f3e3c2f6c696e6561724772616469656e743e3c6c696e6561724772616469656e742069643d277072656669785f5f7072656669785f5f7061696e7431315f6c696e6561725f353032335f31333331272078313d27343530272079313d273438272078323d27343530272079323d273132333227206772616469656e74556e6974733d277573657253706163654f6e557365273e3c73746f702073746f702d636f6c6f723d2723453245444638272073746f702d6f7061636974793d272e32272f3e3c73746f70206f66667365743d272e343935272073746f702d636f6c6f723d2723666666272f3e3c73746f70206f66667365743d2731272073746f702d636f6c6f723d2723453245444638272073746f702d6f7061636974793d272e32272f3e3c2f6c696e6561724772616469656e743e3c6c696e6561724772616469656e742069643d277072656669785f5f7072656669785f5f7061696e7431325f6c696e6561725f353032335f31333331272078313d27343530272079313d273338272078323d27343530272079323d273132343227206772616469656e74556e6974733d277573657253706163654f6e557365273e3c73746f702073746f702d636f6c6f723d2723383438433943272f3e3c73746f70206f66667365743d272e333936272073746f702d636f6c6f723d2723463846414643272f3e3c73746f70206f66667365743d272e363335272073746f702d636f6c6f723d2723463846414643272f3e3c73746f70206f66667365743d2731272073746f702d636f6c6f723d2723383438433943272f3e3c2f6c696e6561724772616469656e743e3c6c696e6561724772616469656e742069643d277072656669785f5f7072656669785f5f7061696e7431335f6c696e6561725f353032335f31333331272078313d27383834272079313d27363431272078323d27373833272079323d2736343127206772616469656e74556e6974733d277573657253706163654f6e557365273e3c73746f702073746f702d636f6c6f723d2723463946414643272f3e3c73746f70206f66667365743d272e353339272073746f702d636f6c6f723d2723413141354230272f3e3c73746f70206f66667365743d2731272073746f702d636f6c6f723d2723363836443741272f3e3c2f6c696e6561724772616469656e743e3c6c696e6561724772616469656e742069643d277072656669785f5f7072656669785f5f7061696e7431345f6c696e6561725f353032335f31333331272078313d273136272079313d27363431272078323d27313137272079323d2736343127206772616469656e74556e6974733d277573657253706163654f6e557365273e3c73746f702073746f702d636f6c6f723d2723463946414643272f3e3c73746f70206f66667365743d272e353339272073746f702d636f6c6f723d2723413141354230272f3e3c73746f70206f66667365743d2731272073746f702d636f6c6f723d2723363836443741272f3e3c2f6c696e6561724772616469656e743e3c72616469616c4772616469656e742069643d277072656669785f5f7072656669785f5f7061696e74335f72616469616c5f353032335f31333331272063783d2730272063793d27302720723d273127206772616469656e74556e6974733d277573657253706163654f6e55736527206772616469656e745472616e73666f726d3d276d6174726978282d32313020302030202d323130203435302036343229273e3c73746f70206f66667365743d272e303035272073746f702d636f6c6f723d2723463946444646272f3e3c73746f70206f66667365743d272e323931272073746f702d636f6c6f723d2723454646354646272f3e3c73746f70206f66667365743d272e373138272073746f702d636f6c6f723d2723424343304341272f3e3c73746f70206f66667365743d2731272073746f702d636f6c6f723d2723354135463643272f3e3c2f72616469616c4772616469656e743e3c7376672077696474683d2739303027206865696768743d2731323830272066696c6c3d276e6f6e652720786d6c6e733d27687474703a2f2f7777772e77332e6f72672f323030302f737667273e3c7265637420783d27382720793d2738272077696474683d2738383427206865696768743d2731323634272072783d273130272066696c6c3d2775726c28237072656669785f5f7072656669785f5f7072656669785f5f7072656669785f5f7061696e74305f6c696e6561725f353032335f313331392927207374726f6b653d2775726c28237072656669785f5f7072656669785f5f7072656669785f5f7072656669785f5f7061696e74315f6c696e6561725f353032335f313331392927207374726f6b652d77696474683d273136272f3e3c746578742064783d27343530272064793d273133352720646f6d696e616e742d626173656c696e653d2763656e7472616c2720746578742d616e63686f723d276d6964646c6527207374796c653d276865696768743a32343070782720666f6e742d66616d696c793d27506f7070696e732720666f6e742d7765696768743d273730302720746578744c656e6774683d273637352720666f6e742d73697a653d27313132272066696c6c3d2775726c28237072656669785f5f7072656669785f5f7072656669785f5f7072656669785f5f7061696e74325f6c696e6561725f353032335f3133313929273e4d554c5449434153543c2f746578743e3c746578742064783d27343530272064793d273235342720646f6d696e616e742d626173656c696e653d2763656e7472616c2720746578742d616e63686f723d276d6964646c6527207374796c653d276865696768743a31303070782720666f6e742d66616d696c793d27506f7070696e732720746578744c656e6774683d273339302720666f6e742d7765696768743d273730302720666f6e742d73697a653d27313130272066696c6c3d2775726c28237072656669785f5f7072656669785f5f7072656669785f5f7072656669785f5f7061696e74325f6c696e6561725f353032335f3133313929273e564f5445533c2f746578743e2d2d2667743b3c636972636c652063783d27343530272063793d273634322720723d27323037272066696c6c3d2775726c28237072656669785f5f7072656669785f5f7072656669785f5f7072656669785f5f7061696e74335f72616469616c5f353032335f313331392927207374726f6b653d2775726c28237072656669785f5f7072656669785f5f7072656669785f5f7072656669785f5f7061696e74345f6c696e6561725f353032335f313331392927207374726f6b652d77696474683d2736272f3e3c746578742064783d27343530272064793d273634352720646f6d696e616e742d626173656c696e653d2763656e7472616c2720746578742d616e63686f723d276d6964646c652720666f6e742d66616d696c793d27506f7070696e732720666f6e742d7765696768743d273730302720666f6e742d73697a653d27313930272066696c6c3d2775726c28237072656669785f5f7072656669785f5f7061696e74395f6c696e6561725f353032335f3133313929273e3c2f746578743e3c636972636c652063783d27343530272063793d273634322720723d2732323927207374726f6b653d2775726c28237072656669785f5f7072656669785f5f7072656669785f5f7072656669785f5f7061696e74355f6c696e6561725f353032335f313331392927207374726f6b652d77696474683d2734272f3e3c636972636c652063783d27343530272063793d273634322720723d2732353327207374726f6b653d2775726c28237072656669785f5f7072656669785f5f7072656669785f5f7072656669785f5f7061696e74365f6c696e6561725f353032335f313331392927207374726f6b652d77696474683d2732272f3e3c636972636c652063783d27343530272063793d273634322720723d273237392e3527207374726f6b653d2775726c28237072656669785f5f7072656669785f5f7072656669785f5f7072656669785f5f7061696e74375f6c696e6561725f353032335f3133313929272f3e3c636972636c652063783d273435302e35272063793d273634322e352720723d273330372e31323527207374726f6b653d2775726c28237072656669785f5f7072656669785f5f7072656669785f5f7072656669785f5f7061696e74385f6c696e6561725f353032335f313331392927207374726f6b652d77696474683d272e3735272f3e3c746578742064783d27343530272064793d27313137352720646f6d696e616e742d626173656c696e653d2763656e7472616c2720746578742d616e63686f723d276d6964646c6527207374796c653d276865696768743a31303070782720666f6e742d66616d696c793d2748656e6e792050656e6e792720666f6e742d73697a653d273438272066696c6c3d2723464645374142273e50313220417263616e612040544931313c2f746578743e3c7061746820643d274d343820353737563330613220322030203031322d3268383030613220322030203031322032763534342e354d34382036393876353532633020312e312e3839352032203220326838303063312e313035203020322d2e3920322d32563730392e3527207374726f6b653d2775726c28237072656669785f5f7072656669785f5f7072656669785f5f7072656669785f5f7061696e74395f6c696e6561725f353032335f313331392927207374726f6b652d77696474683d27312e35272f3e3c7061746820643d274d3238203535382e35563530613220322030203031322d3268383430613220322030203031322032763530352e354d32382037323376353037633020312e312e3839352032203220326838343063312e313035203020322d2e3920322d32563732352e3527207374726f6b653d2775726c28237072656669785f5f7072656669785f5f7072656669785f5f7072656669785f5f7061696e7431305f6c696e6561725f353032335f313331392927207374726f6b652d77696474683d27312e35272f3e3c7061746820643d274d3338203537312e35563430613220322030203031322d3268383230613220322030203031322032763532384d33382037313176353239633020312e312e3839352032203220326838323063312e313035203020322d2e3920322d32563731362e3527207374726f6b653d2775726c28237072656669785f5f7072656669785f5f7072656669785f5f7072656669785f5f7061696e7431315f6c696e6561725f353032335f313331392927207374726f6b652d77696474683d2733272f3e3c7061746820643d274d38383420373433762d32322e3738314c3837372e3834322037313448383834762d32682d382e3133396c2d352e3934312d3648383834762d32682d31362e30366c2d352e3934312d3648383834762d32682d32332e3938326c2d352e3934312d3648383834762d32682d33312e3930336c2d352e3934312d3648383834762d32682d33392e3832356c2d352e3934312d3648383834762d32682d34372e3734366c2d352e3934322d3648383834762d32682d35352e3636386c2d352e3934312d3648383834762d32682d36332e35396c2d352e3934312d3648383834762d32682d37312e3531316c2d352e3934312d3648383834762d32682d37372e3435326c352e3934312d3648383834762d32682d36392e3533316c352e3934312d3648383834762d32682d36312e3630396c352e3934312d3648383834762d32682d35332e3638386c352e3934312d3648383834762d32682d34352e3736366c352e3934312d3648383834762d32682d33372e3834356c352e3934322d3648383834762d32682d32392e3932336c352e3934312d3648383834762d32682d32322e3030316c352e3934312d3648383834762d32682d31342e30386c352e3934312d3648383834762d32682d362e3135386c362e3135382d362e323139563533394c373833203634316c313031203130327a272066696c6c3d2775726c28237072656669785f5f7072656669785f5f7072656669785f5f7072656669785f5f7061696e7431325f6c696e6561725f353032335f3133313929272f3e3c7061746820643d274d313620373433762d32322e3738314c32322e31353820373134483136762d3268382e3133396c352e39342d36483136762d326831362e30366c352e3934312d36483136762d326832332e3938326c352e39342d36483136762d326833312e3930336c352e3934312d36483136762d326833392e3832356c352e3934312d36483136762d326834372e3734366c352e3934322d36483136762d326835352e3636386c352e3934312d36483136762d326836332e35396c352e39342d36483136762d326837312e3531316c352e3934312d36483136762d326837372e3435336c2d352e3934322d36483136762d326836392e35336c2d352e39342d36483136762d326836312e36316c2d352e3934322d36483136762d326835332e3638386c2d352e3934312d36483136762d326834352e3736366c2d352e3934312d36483136762d326833372e3834356c2d352e3934322d36483136762d326832392e3932336c2d352e3934312d36483136762d326832322e3030326c2d352e3934322d36483136762d326831342e30386c2d352e3934312d36483136762d3268362e3135384c3136203536312e373831563533396c313031203130324c3136203734337a272066696c6c3d2775726c28237072656669785f5f7072656669785f5f7072656669785f5f7072656669785f5f7061696e7431335f6c696e6561725f353032335f3133313929272f3e3c646566733e3c6c696e6561724772616469656e742069643d277072656669785f5f7072656669785f5f7072656669785f5f7072656669785f5f7061696e74305f6c696e6561725f353032335f31333139272078313d27343530272079313d2731323830272078323d27343530272079323d273027206772616469656e74556e6974733d277573657253706163654f6e557365273e3c73746f702073746f702d636f6c6f723d2723343631443042272f3e3c73746f70206f66667365743d272e3235272073746f702d636f6c6f723d2723424239303446272f3e3c73746f70206f66667365743d272e35272073746f702d636f6c6f723d2723464645424135272f3e3c73746f70206f66667365743d272e3735272073746f702d636f6c6f723d2723423737383345272f3e3c73746f70206f66667365743d2731272073746f702d636f6c6f723d2723343631443042272f3e3c2f6c696e6561724772616469656e743e3c6c696e6561724772616469656e742069643d277072656669785f5f7072656669785f5f7072656669785f5f7072656669785f5f7061696e74315f6c696e6561725f353032335f31333139272078313d27343530272079313d2730272078323d27343530272079323d273132383027206772616469656e74556e6974733d277573657253706163654f6e557365273e3c73746f702073746f702d636f6c6f723d2723464643323637272073746f702d6f7061636974793d272e32272f3e3c73746f70206f66667365743d272e343935272073746f702d636f6c6f723d2723464646334235272f3e3c73746f70206f66667365743d2731272073746f702d636f6c6f723d2723464643323637272073746f702d6f7061636974793d272e32272f3e3c2f6c696e6561724772616469656e743e3c6c696e6561724772616469656e742069643d277072656669785f5f7072656669785f5f7072656669785f5f7072656669785f5f7061696e74325f6c696e6561725f353032335f31333139272078313d27343530272079313d273839272078323d27343530272079323d273239362e3527206772616469656e74556e6974733d277573657253706163654f6e557365273e3c73746f702073746f702d636f6c6f723d2723464646334436272f3e3c73746f70206f66667365743d2731272073746f702d636f6c6f723d2723464644383737272f3e3c2f6c696e6561724772616469656e743e3c6c696e6561724772616469656e742069643d277072656669785f5f7072656669785f5f7061696e74395f6c696e6561725f353032335f31333139272078313d27343530272079313d273536302e3735272078323d27343530272079323d273732332e323527206772616469656e74556e6974733d277573657253706163654f6e557365273e3c73746f702073746f702d636f6c6f723d2723373634343238272f3e3c73746f70206f66667365743d2731272073746f702d636f6c6f723d2723424238313442272f3e3c2f6c696e6561724772616469656e743e3c6c696e6561724772616469656e742069643d277072656669785f5f7072656669785f5f7072656669785f5f7072656669785f5f7061696e74345f6c696e6561725f353032335f31333139272078313d27343530272079313d27343332272078323d27343530272079323d2738353227206772616469656e74556e6974733d277573657253706163654f6e557365273e3c73746f702073746f702d636f6c6f723d2723464645324141272f3e3c73746f70206f66667365743d2731272073746f702d636f6c6f723d2723353933313141272f3e3c2f6c696e6561724772616469656e743e3c6c696e6561724772616469656e742069643d277072656669785f5f7072656669785f5f7072656669785f5f7072656669785f5f7061696e74355f6c696e6561725f353032335f31333139272078313d27343530272079313d27343131272078323d27343530272079323d2738373327206772616469656e74556e6974733d277573657253706163654f6e557365273e3c73746f702073746f702d636f6c6f723d2723464645324141272f3e3c73746f70206f66667365743d2731272073746f702d636f6c6f723d2723354233333143272f3e3c2f6c696e6561724772616469656e743e3c6c696e6561724772616469656e742069643d277072656669785f5f7072656669785f5f7072656669785f5f7072656669785f5f7061696e74365f6c696e6561725f353032335f31333139272078313d27343530272079313d27333838272078323d27343530272079323d2738393627206772616469656e74556e6974733d277573657253706163654f6e557365273e3c73746f702073746f702d636f6c6f723d2723464645324141272f3e3c73746f70206f66667365743d2731272073746f702d636f6c6f723d2723354233333143272f3e3c2f6c696e6561724772616469656e743e3c6c696e6561724772616469656e742069643d277072656669785f5f7072656669785f5f7072656669785f5f7072656669785f5f7061696e74375f6c696e6561725f353032335f31333139272078313d27343530272079313d27333632272078323d27343530272079323d2739323227206772616469656e74556e6974733d277573657253706163654f6e557365273e3c73746f702073746f702d636f6c6f723d2723464645324141272f3e3c73746f70206f66667365743d2731272073746f702d636f6c6f723d2723354233333143272f3e3c2f6c696e6561724772616469656e743e3c6c696e6561724772616469656e742069643d277072656669785f5f7072656669785f5f7072656669785f5f7072656669785f5f7061696e74385f6c696e6561725f353032335f31333139272078313d273435302e35272079313d27333335272078323d273435302e35272079323d2739353027206772616469656e74556e6974733d277573657253706163654f6e557365273e3c73746f702073746f702d636f6c6f723d2723464645324141272f3e3c73746f70206f66667365743d2731272073746f702d636f6c6f723d2723354233333143272f3e3c2f6c696e6561724772616469656e743e3c6c696e6561724772616469656e742069643d277072656669785f5f7072656669785f5f7072656669785f5f7072656669785f5f7061696e74395f6c696e6561725f353032335f31333139272078313d273434382e35272079313d273238272078323d273434382e35272079323d273132343627206772616469656e74556e6974733d277573657253706163654f6e557365273e3c73746f702073746f702d636f6c6f723d2723464643323637272073746f702d6f7061636974793d272e32272f3e3c73746f70206f66667365743d272e343935272073746f702d636f6c6f723d2723464646334235272f3e3c73746f70206f66667365743d2731272073746f702d636f6c6f723d2723464643323637272073746f702d6f7061636974793d272e32272f3e3c2f6c696e6561724772616469656e743e3c6c696e6561724772616469656e742069643d277072656669785f5f7072656669785f5f7072656669785f5f7072656669785f5f7061696e7431305f6c696e6561725f353032335f31333139272078313d273434382e35272079313d273238272078323d273434382e35272079323d273132343627206772616469656e74556e6974733d277573657253706163654f6e557365273e3c73746f702073746f702d636f6c6f723d2723464643323637272073746f702d6f7061636974793d272e32272f3e3c73746f70206f66667365743d272e343935272073746f702d636f6c6f723d2723464646334235272f3e3c73746f70206f66667365743d2731272073746f702d636f6c6f723d2723464643323637272073746f702d6f7061636974793d272e32272f3e3c2f6c696e6561724772616469656e743e3c6c696e6561724772616469656e742069643d277072656669785f5f7072656669785f5f7072656669785f5f7072656669785f5f7061696e7431315f6c696e6561725f353032335f31333139272078313d273434382e343633272079313d273338272078323d273434382e343633272079323d27313233362e3127206772616469656e74556e6974733d277573657253706163654f6e557365273e3c73746f702073746f702d636f6c6f723d2723414437343534272f3e3c73746f70206f66667365743d272e343033272073746f702d636f6c6f723d2723464445394136272f3e3c73746f70206f66667365743d272e363331272073746f702d636f6c6f723d2723464445394137272f3e3c73746f70206f66667365743d2731272073746f702d636f6c6f723d2723414437343534272f3e3c2f6c696e6561724772616469656e743e3c6c696e6561724772616469656e742069643d277072656669785f5f7072656669785f5f7072656669785f5f7072656669785f5f7061696e7431325f6c696e6561725f353032335f31333139272078313d27383834272079313d27363431272078323d27373833272079323d2736343127206772616469656e74556e6974733d277573657253706163654f6e557365273e3c73746f702073746f702d636f6c6f723d2723464445394137272f3e3c73746f70206f66667365743d272e353339272073746f702d636f6c6f723d2723424439303443272f3e3c73746f70206f66667365743d2731272073746f702d636f6c6f723d2723383034443244272f3e3c2f6c696e6561724772616469656e743e3c6c696e6561724772616469656e742069643d277072656669785f5f7072656669785f5f7072656669785f5f7072656669785f5f7061696e7431335f6c696e6561725f353032335f31333139272078313d273136272079313d27363431272078323d27313137272079323d2736343127206772616469656e74556e6974733d277573657253706163654f6e557365273e3c73746f702073746f702d636f6c6f723d2723464445394137272f3e3c73746f70206f66667365743d272e353339272073746f702d636f6c6f723d2723424439303443272f3e3c73746f70206f66667365743d2731272073746f702d636f6c6f723d2723383034443244272f3e3c2f6c696e6561724772616469656e743e3c72616469616c4772616469656e742069643d277072656669785f5f7072656669785f5f7072656669785f5f7072656669785f5f7061696e74335f72616469616c5f353032335f31333139272063783d2730272063793d27302720723d273127206772616469656e74556e6974733d277573657253706163654f6e55736527206772616469656e745472616e73666f726d3d276d6174726978282d32313020302030202d323130203435302036343229273e3c73746f702073746f702d636f6c6f723d2723464646463931272f3e3c73746f70206f66667365743d272e323931272073746f702d636f6c6f723d2723464646463938272f3e3c73746f70206f66667365743d272e373138272073746f702d636f6c6f723d2723443138433533272f3e3c73746f70206f66667365743d2731272073746f702d636f6c6f723d2723373134453337272f3e3c2f72616469616c4772616469656e743e3c7376672077696474683d2739303027206865696768743d2731323830272066696c6c3d276e6f6e652720786d6c6e733d27687474703a2f2f7777772e77332e6f72672f323030302f737667273e3c7265637420783d27382720793d2738272077696474683d2738383427206865696768743d2731323634272072783d273130272066696c6c3d2775726c28237072656669785f5f7072656669785f5f7061696e74305f6c696e6561725f353032335f313333312927207374726f6b653d2775726c28237072656669785f5f7072656669785f5f7061696e74315f6c696e6561725f353032335f313333312927207374726f6b652d77696474683d273136272f3e3c746578742064783d27343530272064793d273133352720646f6d696e616e742d626173656c696e653d2763656e7472616c2720746578742d616e63686f723d276d6964646c6527207374796c653d276865696768743a32343070782720666f6e742d66616d696c793d27506f7070696e732720666f6e742d7765696768743d27313030302720746578744c656e6774683d273638352720666f6e742d73697a653d27313132272066696c6c3d2775726c28237072656669785f5f7072656669785f5f7061696e74325f6c696e6561725f353032335f3133333129273e4d554c5449434153543c2f746578743e3c746578742064783d27343530272064793d273235342720646f6d696e616e742d626173656c696e653d2763656e7472616c2720746578742d616e63686f723d276d6964646c6527207374796c653d276865696768743a31303070782720666f6e742d66616d696c793d27506f7070696e732720746578744c656e6774683d273339302720666f6e742d7765696768743d27313030302720666f6e742d73697a653d27313130272066696c6c3d2775726c28237072656669785f5f7072656669785f5f7061696e74325f6c696e6561725f353032335f3133333129273e564f5445533c2f746578743e3c636972636c652063783d27343530272063793d273634322720723d27323037272066696c6c3d2775726c28237072656669785f5f7072656669785f5f7061696e74335f72616469616c5f353032335f313333312927207374726f6b653d2775726c28237072656669785f5f7072656669785f5f7061696e74345f6c696e6561725f353032335f313333312927207374726f6b652d77696474683d2736272f3e3c636972636c652063783d27343530272063793d273634322720723d2732323927207374726f6b653d2775726c28237072656669785f5f7072656669785f5f7061696e74355f6c696e6561725f353032335f313333312927207374726f6b652d77696474683d2734272f3e3c636972636c652063783d27343530272063793d273634322720723d2732353327207374726f6b653d2775726c28237072656669785f5f7072656669785f5f7061696e74365f6c696e6561725f353032335f313333312927207374726f6b652d77696474683d2732272f3e3c636972636c652063783d27343530272063793d273634322720723d273237392e3527207374726f6b653d2775726c28237072656669785f5f7072656669785f5f7061696e74375f6c696e6561725f353032335f3133333129272f3e3c636972636c652063783d273435302e35272063793d273634322e352720723d273330372e31323527207374726f6b653d2775726c28237072656669785f5f7072656669785f5f7061696e74385f6c696e6561725f353032335f313333312927207374726f6b652d77696474683d272e3735272f3e3c636972636c652063783d27343530272063793d273635322720723d27323037272066696c6c3d2775726c28237072656669785f5f7072656669785f5f7072656669785f5f7072656669785f5f7072656669785f5f7061696e74335f72616469616c5f353032335f313331392927207374726f6b653d2775726c28237072656669785f5f7072656669785f5f7072656669785f5f7072656669785f5f7072656669785f5f7061696e74345f6c696e6561725f353032335f313331392927207374726f6b652d77696474683d2736272f3e3c746578742064783d27343530272064793d273634352720646f6d696e616e742d626173656c696e653d2763656e7472616c2720746578742d616e63686f723d276d6964646c652720666f6e742d66616d696c793d27506f7070696e732720666f6e742d7765696768743d27313030302720666f6e742d73697a653d27313930272066696c6c3d2775726c28237072656669785f5f7072656669785f5f7061696e74395f6c696e6561725f353032335f3133333129273ea2646970667358221220d09af13d92127d750a6636c29accec167d50c777e31393c71a77e5cf7d18036e64736f6c63430008110033",
  "devdoc": {
    "kind": "dev",
    "methods": {},
    "version": 1
  },
  "userdoc": {
    "kind": "user",
    "methods": {},
    "version": 1
  },
  "storageLayout": {
    "storage": [],
    "types": null
  }
}