{
  "address": "0xd6731BD90eB77dfC35C05CEBE9B37407f84Ee981",
  "abi": [
    {
      "inputs": [],
      "stateMutability": "nonpayable",
      "type": "constructor"
    },
    {
      "inputs": [],
      "name": "InvalidSigner",
      "type": "error"
    },
    {
      "inputs": [],
      "name": "NotProtectedActivity",
      "type": "error"
    },
    {
      "inputs": [],
      "name": "ProtectedActivity",
      "type": "error"
    },
    {
      "inputs": [],
      "name": "SignatureExpired",
      "type": "error"
    },
    {
      "anonymous": false,
      "inputs": [
        {
          "indexed": false,
          "internalType": "address",
          "name": "previousAdmin",
          "type": "address"
        },
        {
          "indexed": false,
          "internalType": "address",
          "name": "newAdmin",
          "type": "address"
        }
      ],
      "name": "AdminChanged",
      "type": "event"
    },
    {
      "anonymous": false,
      "inputs": [
        {
          "indexed": true,
          "internalType": "address",
          "name": "beacon",
          "type": "address"
        }
      ],
      "name": "BeaconUpgraded",
      "type": "event"
    },
    {
      "anonymous": false,
      "inputs": [
        {
          "indexed": false,
          "internalType": "string",
          "name": "id",
          "type": "string"
        },
        {
          "indexed": false,
          "internalType": "bool",
          "name": "protected",
          "type": "bool"
        }
      ],
      "name": "EvProtectedActivitySet",
      "type": "event"
    },
    {
      "anonymous": false,
      "inputs": [
        {
          "indexed": false,
          "internalType": "address",
          "name": "signer",
          "type": "address"
        },
        {
          "indexed": false,
          "internalType": "bool",
          "name": "valid",
          "type": "bool"
        }
      ],
      "name": "EvSignerSet",
      "type": "event"
    },
    {
      "anonymous": false,
      "inputs": [
        {
          "indexed": false,
          "internalType": "address",
          "name": "user",
          "type": "address"
        },
        {
          "indexed": false,
          "internalType": "string",
          "name": "id",
          "type": "string"
        },
        {
          "indexed": false,
          "internalType": "string",
          "name": "content",
          "type": "string"
        }
      ],
      "name": "EvStampUpdate",
      "type": "event"
    },
    {
      "anonymous": false,
      "inputs": [
        {
          "indexed": false,
          "internalType": "uint8",
          "name": "version",
          "type": "uint8"
        }
      ],
      "name": "Initialized",
      "type": "event"
    },
    {
      "anonymous": false,
      "inputs": [
        {
          "indexed": true,
          "internalType": "address",
          "name": "previousOwner",
          "type": "address"
        },
        {
          "indexed": true,
          "internalType": "address",
          "name": "newOwner",
          "type": "address"
        }
      ],
      "name": "OwnershipTransferred",
      "type": "event"
    },
    {
      "anonymous": false,
      "inputs": [
        {
          "indexed": true,
          "internalType": "address",
          "name": "implementation",
          "type": "address"
        }
      ],
      "name": "Upgraded",
      "type": "event"
    },
    {
      "inputs": [],
      "name": "claimOwnership",
      "outputs": [],
      "stateMutability": "nonpayable",
      "type": "function"
    },
    {
      "inputs": [
        {
          "internalType": "address",
          "name": "newOwner",
          "type": "address"
        }
      ],
      "name": "initialize",
      "outputs": [],
      "stateMutability": "nonpayable",
      "type": "function"
    },
    {
      "inputs": [],
      "name": "owner",
      "outputs": [
        {
          "internalType": "address",
          "name": "",
          "type": "address"
        }
      ],
      "stateMutability": "view",
      "type": "function"
    },
    {
      "inputs": [],
      "name": "pendingOwner",
      "outputs": [
        {
          "internalType": "address",
          "name": "",
          "type": "address"
        }
      ],
      "stateMutability": "view",
      "type": "function"
    },
    {
      "inputs": [],
      "name": "proxiableUUID",
      "outputs": [
        {
          "internalType": "bytes32",
          "name": "",
          "type": "bytes32"
        }
      ],
      "stateMutability": "view",
      "type": "function"
    },
    {
      "inputs": [
        {
          "internalType": "address",
          "name": "user",
          "type": "address"
        },
        {
          "internalType": "string",
          "name": "id",
          "type": "string"
        }
      ],
      "name": "readStamp",
      "outputs": [
        {
          "internalType": "string",
          "name": "content",
          "type": "string"
        }
      ],
      "stateMutability": "view",
      "type": "function"
    },
    {
      "inputs": [],
      "name": "renounceOwnership",
      "outputs": [],
      "stateMutability": "nonpayable",
      "type": "function"
    },
    {
      "inputs": [
        {
          "internalType": "string",
          "name": "id",
          "type": "string"
        },
        {
          "internalType": "string",
          "name": "content",
          "type": "string"
        }
      ],
      "name": "saveStamp",
      "outputs": [],
      "stateMutability": "nonpayable",
      "type": "function"
    },
    {
      "inputs": [
        {
          "internalType": "string",
          "name": "id",
          "type": "string"
        },
        {
          "internalType": "string",
          "name": "content",
          "type": "string"
        },
        {
          "internalType": "uint256",
          "name": "deadline",
          "type": "uint256"
        },
        {
          "internalType": "bytes",
          "name": "signature",
          "type": "bytes"
        }
      ],
      "name": "saveStamp",
      "outputs": [],
      "stateMutability": "nonpayable",
      "type": "function"
    },
    {
      "inputs": [
        {
          "internalType": "string",
          "name": "id",
          "type": "string"
        }
      ],
      "name": "setProtectedActivity",
      "outputs": [],
      "stateMutability": "nonpayable",
      "type": "function"
    },
    {
      "inputs": [
        {
          "internalType": "address",
          "name": "signer",
          "type": "address"
        },
        {
          "internalType": "bool",
          "name": "valid",
          "type": "bool"
        }
      ],
      "name": "setSigner",
      "outputs": [],
      "stateMutability": "nonpayable",
      "type": "function"
    },
    {
      "inputs": [
        {
          "internalType": "address",
          "name": "newOwner",
          "type": "address"
        },
        {
          "internalType": "bool",
          "name": "direct",
          "type": "bool"
        }
      ],
      "name": "transferOwnership",
      "outputs": [],
      "stateMutability": "nonpayable",
      "type": "function"
    },
    {
      "inputs": [
        {
          "internalType": "address",
          "name": "newImplementation",
          "type": "address"
        }
      ],
      "name": "upgradeTo",
      "outputs": [],
      "stateMutability": "nonpayable",
      "type": "function"
    },
    {
      "inputs": [
        {
          "internalType": "address",
          "name": "newImplementation",
          "type": "address"
        },
        {
          "internalType": "bytes",
          "name": "data",
          "type": "bytes"
        }
      ],
      "name": "upgradeToAndCall",
      "outputs": [],
      "stateMutability": "payable",
      "type": "function"
    }
  ],
  "transactionHash": "0xbd12a302c008be4e0f4bfcd65580d234406848371d2004f78179d84493ab7f56",
  "args": [],
  "numDeployments": 1,
  "solcInputHash": "470637022c2e8d3e8a92e9d434d490a2",
  "bytecode": "0x60a0604052306080523480156200001557600080fd5b50603254610100900460ff1615808015620000375750603254600160ff909116105b8062000067575062000054306200014160201b62000f631760201c565b15801562000067575060325460ff166001145b620000cf5760405162461bcd60e51b815260206004820152602e60248201527f496e697469616c697a61626c653a20636f6e747261637420697320616c72656160448201526d191e481a5b9a5d1a585b1a5e995960921b606482015260840160405180910390fd5b6032805460ff191660011790558015620000f3576032805461ff0019166101001790555b80156200013a576032805461ff0019169055604051600181527f7f26b83ff96e1f2b6a682f133852f6798a09c465da95921460cefb38474024989060200160405180910390a15b5062000150565b6001600160a01b03163b151590565b6080516120556200018860003960008181610372015281816104080152818161057301528181610609015261070401526120556000f3fe6080604052600436106100dd5760003560e01c80637284f7e31161007f578063c4d66de811610059578063c4d66de814610228578063c4f440db14610248578063d802a0bf14610268578063e30c39781461028857600080fd5b80637284f7e3146101b65780638da5cb5b146101d6578063b242e5341461020857600080fd5b80634f1ef286116100bb5780634f1ef2861461013957806352d1902d1461014c578063635f246314610174578063715018a6146101a157600080fd5b806331cb6105146100e25780633659cfe6146101045780634e71e0c814610124575b600080fd5b3480156100ee57600080fd5b506101026100fd366004611a54565b6102a6565b005b34801561011057600080fd5b5061010261011f366004611a90565b610368565b34801561013057600080fd5b50610102610505565b610102610147366004611ac1565b610569565b34801561015857600080fd5b506101616106f7565b6040519081526020015b60405180910390f35b34801561018057600080fd5b5061019461018f366004611bc5565b6107bc565b60405161016b9190611c3c565b3480156101ad57600080fd5b50610102610892565b3480156101c257600080fd5b506101026101d1366004611c6f565b6108f6565b3480156101e257600080fd5b506065546001600160a01b03165b6040516001600160a01b03909116815260200161016b565b34801561021457600080fd5b50610102610223366004611a54565b6109b6565b34801561023457600080fd5b50610102610243366004611a90565b610aa1565b34801561025457600080fd5b50610102610263366004611cb1565b610c2f565b34801561027457600080fd5b50610102610283366004611d1d565b610d10565b34801561029457600080fd5b506066546001600160a01b03166101f0565b6065546001600160a01b031633146103055760405162461bcd60e51b815260206004820152601d60248201527f536166654f776e61626c653a2063616c6c6572206e6f74206f776e657200000060448201526064015b60405180910390fd5b6001600160a01b038216600081815260026020908152604091829020805460ff191685151517905581519283526001908301527fae3065dfb293df5c5746fed04a0649f1a0f63f1ebed220313b6622059c5e9c7f91015b60405180910390a15050565b6001600160a01b037f00000000000000000000000000000000000000000000000000000000000000001630036104065760405162461bcd60e51b815260206004820152602c60248201527f46756e6374696f6e206d7573742062652063616c6c6564207468726f7567682060448201527f64656c656761746563616c6c000000000000000000000000000000000000000060648201526084016102fc565b7f00000000000000000000000000000000000000000000000000000000000000006001600160a01b03166104617f360894a13ba1a3210667c828492db98dca3e2076cc3735a920a3ca505d382bbc546001600160a01b031690565b6001600160a01b0316146104dd5760405162461bcd60e51b815260206004820152602c60248201527f46756e6374696f6e206d7573742062652063616c6c6564207468726f7567682060448201527f6163746976652070726f7879000000000000000000000000000000000000000060648201526084016102fc565b6104e681610f72565b6040805160008082526020820190925261050291839190610fcc565b50565b6066546001600160a01b0316331461055f5760405162461bcd60e51b815260206004820152601e60248201527f536166654f776e61626c653a2063616c6c657220213d2070656e64696e67000060448201526064016102fc565b610567611171565b565b6001600160a01b037f00000000000000000000000000000000000000000000000000000000000000001630036106075760405162461bcd60e51b815260206004820152602c60248201527f46756e6374696f6e206d7573742062652063616c6c6564207468726f7567682060448201527f64656c656761746563616c6c000000000000000000000000000000000000000060648201526084016102fc565b7f00000000000000000000000000000000000000000000000000000000000000006001600160a01b03166106627f360894a13ba1a3210667c828492db98dca3e2076cc3735a920a3ca505d382bbc546001600160a01b031690565b6001600160a01b0316146106de5760405162461bcd60e51b815260206004820152602c60248201527f46756e6374696f6e206d7573742062652063616c6c6564207468726f7567682060448201527f6163746976652070726f7879000000000000000000000000000000000000000060648201526084016102fc565b6106e782610f72565b6106f382826001610fcc565b5050565b6000306001600160a01b037f000000000000000000000000000000000000000000000000000000000000000016146107975760405162461bcd60e51b815260206004820152603860248201527f555550535570677261646561626c653a206d757374206e6f742062652063616c60448201527f6c6564207468726f7567682064656c656761746563616c6c000000000000000060648201526084016102fc565b507f360894a13ba1a3210667c828492db98dca3e2076cc3735a920a3ca505d382bbc90565b6060600080856001600160a01b03166001600160a01b0316815260200190815260200160002083836040516107f2929190611dc1565b9081526020016040518091039020805461080b90611dd1565b80601f016020809104026020016040519081016040528092919081815260200182805461083790611dd1565b80156108845780601f1061085957610100808354040283529160200191610884565b820191906000526020600020905b81548152906001019060200180831161086757829003601f168201915b505050505090509392505050565b6065546001600160a01b031633146108ec5760405162461bcd60e51b815260206004820152601d60248201527f536166654f776e61626c653a2063616c6c6572206e6f74206f776e657200000060448201526064016102fc565b61056760006111e7565b6065546001600160a01b031633146109505760405162461bcd60e51b815260206004820152601d60248201527f536166654f776e61626c653a2063616c6c6572206e6f74206f776e657200000060448201526064016102fc565b6001808383604051610963929190611dc1565b908152604051908190036020018120805492151560ff19909316929092179091557f794b259f43cc839e22226be1fde01759ea4422909602cf4d98ab8f3866275fe19061035c9084908490600190611e36565b6065546001600160a01b03163314610a105760405162461bcd60e51b815260206004820152601d60248201527f536166654f776e61626c653a2063616c6c6572206e6f74206f776e657200000060448201526064016102fc565b6001600160a01b038216610a665760405162461bcd60e51b815260206004820152601b60248201527f536166654f776e61626c653a206e6577206f776e65722069732030000000000060448201526064016102fc565b8015610a75576106f3826111e7565b6066805473ffffffffffffffffffffffffffffffffffffffff19166001600160a01b0384161790555050565b603254610100900460ff1615808015610ac15750603254600160ff909116105b80610adb5750303b158015610adb575060325460ff166001145b610b4d5760405162461bcd60e51b815260206004820152602e60248201527f496e697469616c697a61626c653a20636f6e747261637420697320616c72656160448201527f647920696e697469616c697a656400000000000000000000000000000000000060648201526084016102fc565b6032805460ff191660011790558015610b70576032805461ff0019166101001790555b610b798261126a565b610bed6040518060400160405280600a81526020017f50313220436f6c6c6162000000000000000000000000000000000000000000008152506040518060400160405280600681526020017f76302e302e3100000000000000000000000000000000000000000000000000008152506112f0565b80156106f3576032805461ff0019169055604051600181527f7f26b83ff96e1f2b6a682f133852f6798a09c465da95921460cefb38474024989060200161035c565b60018484604051610c41929190611dc1565b9081526040519081900360200190205460ff1615610c8b576040517f5fab199700000000000000000000000000000000000000000000000000000000815260040160405180910390fd5b3360009081526020819052604090819020905183918391610caf9088908890611dc1565b90815260200160405180910390209182610cca929190611eaa565b507f22023f2d9cea5c2e66b086211ee4f35a2088617968453b3d5413f322f16b289b3385858585604051610d02959493929190611f6b565b60405180910390a150505050565b60018787604051610d22929190611dc1565b9081526040519081900360200190205460ff16610d6b576040517f0a11f6a100000000000000000000000000000000000000000000000000000000815260040160405180910390fd5b82421115610da5576040517f0819bdcd00000000000000000000000000000000000000000000000000000000815260040160405180910390fd5b6000610e8583838080601f01602080910402602001604051908101604052809392919081815260200183838082843760009201919091525050604051610e7f92507f2a27bb1285fd706ece06482d1b67c5eda966b473b6d7925e0ec94ab9471d5f6191503390610e1b908e908e90602001611dc1565b6040516020818303038152906040528051906020012089604051602001610e6494939291909384526001600160a01b039290921660208401526040830152606082015260800190565b60405160208183030381529060405280519060200120611387565b906113f6565b6001600160a01b03811660009081526002602052604090205490915060ff16610eda576040517f815e1d6400000000000000000000000000000000000000000000000000000000815260040160405180910390fd5b3360009081526020819052604090819020905187918791610efe908c908c90611dc1565b90815260200160405180910390209182610f19929190611eaa565b507f22023f2d9cea5c2e66b086211ee4f35a2088617968453b3d5413f322f16b289b3389898989604051610f51959493929190611f6b565b60405180910390a15050505050505050565b6001600160a01b03163b151590565b6065546001600160a01b031633146105025760405162461bcd60e51b815260206004820152601d60248201527f536166654f776e61626c653a2063616c6c6572206e6f74206f776e657200000060448201526064016102fc565b7f4910fdfa16fed3260ed0e7147f7cc6da11a60208b5b9406d12a635614ffd91435460ff161561100457610fff8361141a565b505050565b826001600160a01b03166352d1902d6040518163ffffffff1660e01b8152600401602060405180830381865afa92505050801561105e575060408051601f3d908101601f1916820190925261105b91810190611fad565b60015b6110d05760405162461bcd60e51b815260206004820152602e60248201527f45524331393637557067726164653a206e657720696d706c656d656e7461746960448201527f6f6e206973206e6f74205555505300000000000000000000000000000000000060648201526084016102fc565b7f360894a13ba1a3210667c828492db98dca3e2076cc3735a920a3ca505d382bbc81146111655760405162461bcd60e51b815260206004820152602960248201527f45524331393637557067726164653a20756e737570706f727465642070726f7860448201527f6961626c6555554944000000000000000000000000000000000000000000000060648201526084016102fc565b50610fff8383836114e5565b6065546066546040516001600160a01b03928316929091169082907f8be0079c531659141344cd1fd0a4f28419497f9722a3daafe3b4186f6b6457e090600090a350606680546065805473ffffffffffffffffffffffffffffffffffffffff199081166001600160a01b03841617909155169055565b7fb53127684a568b3173ae13b9f8a6016e243e63b6e8ee1178d6a717850b5d6103819055606580546001600160a01b0380841673ffffffffffffffffffffffffffffffffffffffff19831681179093556040519116919082907f8be0079c531659141344cd1fd0a4f28419497f9722a3daafe3b4186f6b6457e090600090a35050565b603254610100900460ff166112e75760405162461bcd60e51b815260206004820152602b60248201527f496e697469616c697a61626c653a20636f6e7472616374206973206e6f74206960448201527f6e697469616c697a696e6700000000000000000000000000000000000000000060648201526084016102fc565b610502816111e7565b603254610100900460ff1661136d5760405162461bcd60e51b815260206004820152602b60248201527f496e697469616c697a61626c653a20636f6e7472616374206973206e6f74206960448201527f6e697469616c697a696e6700000000000000000000000000000000000000000060648201526084016102fc565b81516020928301208151919092012060fb9190915560fc55565b60006113f0611394611510565b836040517f19010000000000000000000000000000000000000000000000000000000000006020820152602281018390526042810182905260009060620160405160208183030381529060405280519060200120905092915050565b92915050565b6000806000611405858561154c565b9150915061141281611591565b509392505050565b6001600160a01b0381163b6114975760405162461bcd60e51b815260206004820152602d60248201527f455243313936373a206e657720696d706c656d656e746174696f6e206973206e60448201527f6f74206120636f6e74726163740000000000000000000000000000000000000060648201526084016102fc565b7f360894a13ba1a3210667c828492db98dca3e2076cc3735a920a3ca505d382bbc805473ffffffffffffffffffffffffffffffffffffffff19166001600160a01b0392909216919091179055565b6114ee8361177d565b6000825111806114fb5750805b15610fff5761150a83836117bd565b50505050565b60006115477f8b73c3c69bb8fe3d512ecc4cf759cc79239f7b179b0ffacaa9a75d522b39400f61153f60fb5490565b60fc546118c8565b905090565b60008082516041036115825760208301516040840151606085015160001a61157687828585611912565b9450945050505061158a565b506000905060025b9250929050565b60008160048111156115a5576115a5611fc6565b036115ad5750565b60018160048111156115c1576115c1611fc6565b0361160e5760405162461bcd60e51b815260206004820152601860248201527f45434453413a20696e76616c6964207369676e6174757265000000000000000060448201526064016102fc565b600281600481111561162257611622611fc6565b0361166f5760405162461bcd60e51b815260206004820152601f60248201527f45434453413a20696e76616c6964207369676e6174757265206c656e6774680060448201526064016102fc565b600381600481111561168357611683611fc6565b036116f65760405162461bcd60e51b815260206004820152602260248201527f45434453413a20696e76616c6964207369676e6174757265202773272076616c60448201527f756500000000000000000000000000000000000000000000000000000000000060648201526084016102fc565b600481600481111561170a5761170a611fc6565b036105025760405162461bcd60e51b815260206004820152602260248201527f45434453413a20696e76616c6964207369676e6174757265202776272076616c60448201527f756500000000000000000000000000000000000000000000000000000000000060648201526084016102fc565b6117868161141a565b6040516001600160a01b038216907fbc7cd75a20ee27fd9adebab32041f755214dbc6bffa90cc0225b39da2e5c2d3b90600090a250565b60606001600160a01b0383163b61183c5760405162461bcd60e51b815260206004820152602660248201527f416464726573733a2064656c65676174652063616c6c20746f206e6f6e2d636f60448201527f6e7472616374000000000000000000000000000000000000000000000000000060648201526084016102fc565b600080846001600160a01b0316846040516118579190611fdc565b600060405180830381855af49150503d8060008114611892576040519150601f19603f3d011682016040523d82523d6000602084013e611897565b606091505b50915091506118bf8282604051806060016040528060278152602001611ff9602791396119ff565b95945050505050565b6040805160208101859052908101839052606081018290524660808201523060a082015260009060c0016040516020818303038152906040528051906020012090505b9392505050565b6000807f7fffffffffffffffffffffffffffffff5d576e7357a4501ddfe92f46681b20a083111561194957506000905060036119f6565b8460ff16601b1415801561196157508460ff16601c14155b1561197257506000905060046119f6565b6040805160008082526020820180845289905260ff881692820192909252606081018690526080810185905260019060a0016020604051602081039080840390855afa1580156119c6573d6000803e3d6000fd5b5050604051601f1901519150506001600160a01b0381166119ef576000600192509250506119f6565b9150600090505b94509492505050565b60608315611a0e57508161190b565b825115611a1e5782518084602001fd5b8160405162461bcd60e51b81526004016102fc9190611c3c565b80356001600160a01b0381168114611a4f57600080fd5b919050565b60008060408385031215611a6757600080fd5b611a7083611a38565b915060208301358015158114611a8557600080fd5b809150509250929050565b600060208284031215611aa257600080fd5b61190b82611a38565b634e487b7160e01b600052604160045260246000fd5b60008060408385031215611ad457600080fd5b611add83611a38565b9150602083013567ffffffffffffffff80821115611afa57600080fd5b818501915085601f830112611b0e57600080fd5b813581811115611b2057611b20611aab565b604051601f8201601f19908116603f01168101908382118183101715611b4857611b48611aab565b81604052828152886020848701011115611b6157600080fd5b8260208601602083013760006020848301015280955050505050509250929050565b60008083601f840112611b9557600080fd5b50813567ffffffffffffffff811115611bad57600080fd5b60208301915083602082850101111561158a57600080fd5b600080600060408486031215611bda57600080fd5b611be384611a38565b9250602084013567ffffffffffffffff811115611bff57600080fd5b611c0b86828701611b83565b9497909650939450505050565b60005b83811015611c33578181015183820152602001611c1b565b50506000910152565b6020815260008251806020840152611c5b816040850160208701611c18565b601f01601f19169190910160400192915050565b60008060208385031215611c8257600080fd5b823567ffffffffffffffff811115611c9957600080fd5b611ca585828601611b83565b90969095509350505050565b60008060008060408587031215611cc757600080fd5b843567ffffffffffffffff80821115611cdf57600080fd5b611ceb88838901611b83565b90965094506020870135915080821115611d0457600080fd5b50611d1187828801611b83565b95989497509550505050565b60008060008060008060006080888a031215611d3857600080fd5b873567ffffffffffffffff80821115611d5057600080fd5b611d5c8b838c01611b83565b909950975060208a0135915080821115611d7557600080fd5b611d818b838c01611b83565b909750955060408a0135945060608a0135915080821115611da157600080fd5b50611dae8a828b01611b83565b989b979a50959850939692959293505050565b8183823760009101908152919050565b600181811c90821680611de557607f821691505b602082108103611e0557634e487b7160e01b600052602260045260246000fd5b50919050565b818352818160208501375060006020828401015260006020601f19601f840116840101905092915050565b604081526000611e4a604083018587611e0b565b90508215156020830152949350505050565b601f821115610fff57600081815260208120601f850160051c81016020861015611e835750805b601f850160051c820191505b81811015611ea257828155600101611e8f565b505050505050565b67ffffffffffffffff831115611ec257611ec2611aab565b611ed683611ed08354611dd1565b83611e5c565b6000601f841160018114611f0a5760008515611ef25750838201355b600019600387901b1c1916600186901b178355611f64565b600083815260209020601f19861690835b82811015611f3b5786850135825560209485019460019092019101611f1b565b5086821015611f585760001960f88860031b161c19848701351681555b505060018560011b0183555b5050505050565b6001600160a01b0386168152606060208201526000611f8e606083018688611e0b565b8281036040840152611fa1818587611e0b565b98975050505050505050565b600060208284031215611fbf57600080fd5b5051919050565b634e487b7160e01b600052602160045260246000fd5b60008251611fee818460208701611c18565b919091019291505056fe416464726573733a206c6f772d6c6576656c2064656c65676174652063616c6c206661696c6564a264697066735822122006a9fec35813a27d1dde27dfda2f1b4ed16da54ee54878459fd2b7bf22c8b1af64736f6c63430008110033",
  "devdoc": {
    "kind": "dev",
    "methods": {
      "claimOwnership()": {
        "details": "pending owner call this function to claim ownership"
      },
      "owner()": {
        "details": "Returns the address of the current owner."
      },
      "pendingOwner()": {
        "details": "Return the address of the pending owner"
      },
      "proxiableUUID()": {
        "details": "Implementation of the ERC1822 {proxiableUUID} function. This returns the storage slot used by the implementation. It is used to validate that the this implementation remains valid after an upgrade. IMPORTANT: A proxy pointing at a proxiable contract should not be considered proxiable itself, because this risks bricking a proxy that upgrades to it, by delegating to itself until out of gas. Thus it is critical that this function revert if invoked through a proxy. This is guaranteed by the `notDelegated` modifier."
      },
      "readStamp(address,string)": {
        "details": "read user on-chain stamp",
        "params": {
          "id": "activity id",
          "user": "user address"
        },
        "returns": {
          "content": "content ipfs url string"
        }
      },
      "renounceOwnership()": {
        "details": "Leaves the contract without owner. It will not be possible to call `onlyOwner` functions anymore. Can only be called by the current owner. NOTE: Renouncing ownership will leave the contract without an owner, thereby removing any functionality that is only available to the owner."
      },
      "saveStamp(string,string)": {
        "details": "save content on chain",
        "params": {
          "content": "ipfs uri string of content",
          "id": "activity id"
        }
      },
      "saveStamp(string,string,uint256,bytes)": {
        "details": "save content on chain",
        "params": {
          "content": "ipfs uri string of content",
          "deadline": "signature deadline",
          "id": "activity id",
          "signature": "signature for authentication"
        }
      },
      "setProtectedActivity(string)": {
        "details": "mark activity id as protected",
        "params": {
          "id": "activity id"
        }
      },
      "setSigner(address,bool)": {
        "details": "set signer address as valid or invalid",
        "params": {
          "signer": "signer address",
          "valid": "validity"
        }
      },
      "transferOwnership(address,bool)": {
        "details": "Transfers ownership of the contract to a new account (`newOwner`). Can only be called by the current owner. Note If direct is false, it will set an pending owner and the OwnerShipTransferring only happens when the pending owner claim the ownership"
      },
      "upgradeTo(address)": {
        "details": "Upgrade the implementation of the proxy to `newImplementation`. Calls {_authorizeUpgrade}. Emits an {Upgraded} event."
      },
      "upgradeToAndCall(address,bytes)": {
        "details": "Upgrade the implementation of the proxy to `newImplementation`, and subsequently execute the function call encoded in `data`. Calls {_authorizeUpgrade}. Emits an {Upgraded} event."
      }
    },
    "version": 1
  },
  "userdoc": {
    "kind": "user",
    "methods": {},
    "version": 1
  },
  "storageLayout": {
    "storage": [
      {
        "astId": 6466,
        "contract": "contracts/CollabUpgradable.sol:CollabUpgradable",
        "label": "_stamp",
        "offset": 0,
        "slot": "0",
        "type": "t_mapping(t_address,t_mapping(t_string_memory_ptr,t_string_storage))"
      },
      {
        "astId": 6470,
        "contract": "contracts/CollabUpgradable.sol:CollabUpgradable",
        "label": "_protectedActivities",
        "offset": 0,
        "slot": "1",
        "type": "t_mapping(t_string_memory_ptr,t_bool)"
      },
      {
        "astId": 6474,
        "contract": "contracts/CollabUpgradable.sol:CollabUpgradable",
        "label": "_signers",
        "offset": 0,
        "slot": "2",
        "type": "t_mapping(t_address,t_bool)"
      },
      {
        "astId": 6478,
        "contract": "contracts/CollabUpgradable.sol:CollabUpgradable",
        "label": "_gap",
        "offset": 0,
        "slot": "3",
        "type": "t_array(t_string_storage)47_storage"
      },
      {
        "astId": 482,
        "contract": "contracts/CollabUpgradable.sol:CollabUpgradable",
        "label": "_initialized",
        "offset": 0,
        "slot": "50",
        "type": "t_uint8"
      },
      {
        "astId": 485,
        "contract": "contracts/CollabUpgradable.sol:CollabUpgradable",
        "label": "_initializing",
        "offset": 1,
        "slot": "50",
        "type": "t_bool"
      },
      {
        "astId": 2099,
        "contract": "contracts/CollabUpgradable.sol:CollabUpgradable",
        "label": "__gap",
        "offset": 0,
        "slot": "51",
        "type": "t_array(t_uint256)50_storage"
      },
      {
        "astId": 7604,
        "contract": "contracts/CollabUpgradable.sol:CollabUpgradable",
        "label": "_owner",
        "offset": 0,
        "slot": "101",
        "type": "t_address"
      },
      {
        "astId": 7606,
        "contract": "contracts/CollabUpgradable.sol:CollabUpgradable",
        "label": "_pendingOwner",
        "offset": 0,
        "slot": "102",
        "type": "t_address"
      },
      {
        "astId": 7794,
        "contract": "contracts/CollabUpgradable.sol:CollabUpgradable",
        "label": "__gap",
        "offset": 0,
        "slot": "103",
        "type": "t_array(t_uint256)48_storage"
      },
      {
        "astId": 464,
        "contract": "contracts/CollabUpgradable.sol:CollabUpgradable",
        "label": "__gap",
        "offset": 0,
        "slot": "151",
        "type": "t_array(t_uint256)50_storage"
      },
      {
        "astId": 761,
        "contract": "contracts/CollabUpgradable.sol:CollabUpgradable",
        "label": "__gap",
        "offset": 0,
        "slot": "201",
        "type": "t_array(t_uint256)50_storage"
      },
      {
        "astId": 2783,
        "contract": "contracts/CollabUpgradable.sol:CollabUpgradable",
        "label": "_HASHED_NAME",
        "offset": 0,
        "slot": "251",
        "type": "t_bytes32"
      },
      {
        "astId": 2785,
        "contract": "contracts/CollabUpgradable.sol:CollabUpgradable",
        "label": "_HASHED_VERSION",
        "offset": 0,
        "slot": "252",
        "type": "t_bytes32"
      },
      {
        "astId": 2923,
        "contract": "contracts/CollabUpgradable.sol:CollabUpgradable",
        "label": "__gap",
        "offset": 0,
        "slot": "253",
        "type": "t_array(t_uint256)50_storage"
      }
    ],
    "types": {
      "t_address": {
        "encoding": "inplace",
        "label": "address",
        "numberOfBytes": "20"
      },
      "t_array(t_string_storage)47_storage": {
        "base": "t_string_storage",
        "encoding": "inplace",
        "label": "string[47]",
        "numberOfBytes": "1504"
      },
      "t_array(t_uint256)48_storage": {
        "base": "t_uint256",
        "encoding": "inplace",
        "label": "uint256[48]",
        "numberOfBytes": "1536"
      },
      "t_array(t_uint256)50_storage": {
        "base": "t_uint256",
        "encoding": "inplace",
        "label": "uint256[50]",
        "numberOfBytes": "1600"
      },
      "t_bool": {
        "encoding": "inplace",
        "label": "bool",
        "numberOfBytes": "1"
      },
      "t_bytes32": {
        "encoding": "inplace",
        "label": "bytes32",
        "numberOfBytes": "32"
      },
      "t_mapping(t_address,t_bool)": {
        "encoding": "mapping",
        "key": "t_address",
        "label": "mapping(address => bool)",
        "numberOfBytes": "32",
        "value": "t_bool"
      },
      "t_mapping(t_address,t_mapping(t_string_memory_ptr,t_string_storage))": {
        "encoding": "mapping",
        "key": "t_address",
        "label": "mapping(address => mapping(string => string))",
        "numberOfBytes": "32",
        "value": "t_mapping(t_string_memory_ptr,t_string_storage)"
      },
      "t_mapping(t_string_memory_ptr,t_bool)": {
        "encoding": "mapping",
        "key": "t_string_memory_ptr",
        "label": "mapping(string => bool)",
        "numberOfBytes": "32",
        "value": "t_bool"
      },
      "t_mapping(t_string_memory_ptr,t_string_storage)": {
        "encoding": "mapping",
        "key": "t_string_memory_ptr",
        "label": "mapping(string => string)",
        "numberOfBytes": "32",
        "value": "t_string_storage"
      },
      "t_string_memory_ptr": {
        "encoding": "bytes",
        "label": "string",
        "numberOfBytes": "32"
      },
      "t_string_storage": {
        "encoding": "bytes",
        "label": "string",
        "numberOfBytes": "32"
      },
      "t_uint256": {
        "encoding": "inplace",
        "label": "uint256",
        "numberOfBytes": "32"
      },
      "t_uint8": {
        "encoding": "inplace",
        "label": "uint8",
        "numberOfBytes": "1"
      }
    }
  }
}