{
  "address": "0x1bf4eaa4E164bB5189777b307fb4a62FbAe37510",
  "abi": [
    {
      "inputs": [
        {
          "internalType": "contract IERC20",
          "name": "rewardToken_",
          "type": "address"
        }
      ],
      "stateMutability": "nonpayable",
      "type": "constructor"
    },
    {
      "anonymous": false,
      "inputs": [
        {
          "indexed": true,
          "internalType": "address",
          "name": "claimant",
          "type": "address"
        },
        {
          "indexed": false,
          "internalType": "uint256",
          "name": "amount",
          "type": "uint256"
        }
      ],
      "name": "Claim",
      "type": "event"
    },
    {
      "anonymous": false,
      "inputs": [
        {
          "indexed": false,
          "internalType": "uint256",
          "name": "claimPeriodEnds",
          "type": "uint256"
        }
      ],
      "name": "ClaimPeriodEndsChanged",
      "type": "event"
    },
    {
      "anonymous": false,
      "inputs": [
        {
          "indexed": false,
          "internalType": "bytes32",
          "name": "merkleRoot",
          "type": "bytes32"
        }
      ],
      "name": "MerkleRootChanged",
      "type": "event"
    },
    {
      "anonymous": false,
      "inputs": [
        {
          "indexed": true,
          "internalType": "address",
          "name": "previousOwner",
          "type": "address"
        },
        {
          "indexed": true,
          "internalType": "address",
          "name": "newOwner",
          "type": "address"
        }
      ],
      "name": "OwnershipTransferred",
      "type": "event"
    },
    {
      "anonymous": false,
      "inputs": [
        {
          "indexed": false,
          "internalType": "address",
          "name": "dest",
          "type": "address"
        },
        {
          "indexed": false,
          "internalType": "uint256",
          "name": "amount",
          "type": "uint256"
        }
      ],
      "name": "WithDrawn",
      "type": "event"
    },
    {
      "inputs": [],
      "name": "claimOwnership",
      "outputs": [],
      "stateMutability": "nonpayable",
      "type": "function"
    },
    {
      "inputs": [],
      "name": "claimPeriodEnds",
      "outputs": [
        {
          "internalType": "uint256",
          "name": "",
          "type": "uint256"
        }
      ],
      "stateMutability": "view",
      "type": "function"
    },
    {
      "inputs": [
        {
          "internalType": "uint256",
          "name": "amount",
          "type": "uint256"
        },
        {
          "internalType": "bytes32[]",
          "name": "merkleProof",
          "type": "bytes32[]"
        }
      ],
      "name": "claimTokens",
      "outputs": [],
      "stateMutability": "nonpayable",
      "type": "function"
    },
    {
      "inputs": [
        {
          "internalType": "uint256",
          "name": "amount",
          "type": "uint256"
        }
      ],
      "name": "deposit",
      "outputs": [],
      "stateMutability": "nonpayable",
      "type": "function"
    },
    {
      "inputs": [
        {
          "internalType": "uint256",
          "name": "index",
          "type": "uint256"
        }
      ],
      "name": "isClaimed",
      "outputs": [
        {
          "internalType": "bool",
          "name": "",
          "type": "bool"
        }
      ],
      "stateMutability": "view",
      "type": "function"
    },
    {
      "inputs": [],
      "name": "merkleRoot",
      "outputs": [
        {
          "internalType": "bytes32",
          "name": "",
          "type": "bytes32"
        }
      ],
      "stateMutability": "view",
      "type": "function"
    },
    {
      "inputs": [],
      "name": "owner",
      "outputs": [
        {
          "internalType": "address",
          "name": "",
          "type": "address"
        }
      ],
      "stateMutability": "view",
      "type": "function"
    },
    {
      "inputs": [],
      "name": "pendingOwner",
      "outputs": [
        {
          "internalType": "address",
          "name": "",
          "type": "address"
        }
      ],
      "stateMutability": "view",
      "type": "function"
    },
    {
      "inputs": [],
      "name": "renounceOwnership",
      "outputs": [],
      "stateMutability": "nonpayable",
      "type": "function"
    },
    {
      "inputs": [],
      "name": "rewardToken",
      "outputs": [
        {
          "internalType": "contract IERC20",
          "name": "",
          "type": "address"
        }
      ],
      "stateMutability": "view",
      "type": "function"
    },
    {
      "inputs": [
        {
          "internalType": "uint256",
          "name": "claimPeriodEnds_",
          "type": "uint256"
        }
      ],
      "name": "setClaimPeriodEnds",
      "outputs": [],
      "stateMutability": "nonpayable",
      "type": "function"
    },
    {
      "inputs": [
        {
          "internalType": "bytes32",
          "name": "newMerkleRoot",
          "type": "bytes32"
        }
      ],
      "name": "setMerkleRoot",
      "outputs": [],
      "stateMutability": "nonpayable",
      "type": "function"
    },
    {
      "inputs": [
        {
          "internalType": "address",
          "name": "newOwner",
          "type": "address"
        },
        {
          "internalType": "bool",
          "name": "direct",
          "type": "bool"
        }
      ],
      "name": "transferOwnership",
      "outputs": [],
      "stateMutability": "nonpayable",
      "type": "function"
    },
    {
      "inputs": [],
      "name": "withdraw",
      "outputs": [],
      "stateMutability": "nonpayable",
      "type": "function"
    }
  ],
  "transactionHash": "0x088451c266135edfdea4d0a44d0b87a26f0cddb31414823f42dd2b0d4178ada3",
  "args": [
    "0xed24fc36d5ee211ea25a80239fb8c4cfd80f12ee"
  ],
  "numDeployments": 1,
  "solcInputHash": "3499b4c5e47c1d5f19d27d6b967f4c2d",
  "bytecode": "0x608060405234801561001057600080fd5b506040516111f73803806111f783398101604081905261002f916100ad565b6100383361005d565b600380546001600160a01b0319166001600160a01b03929092169190911790556100dd565b600080546001600160a01b038381166001600160a01b0319831681178455604051919092169283917f8be0079c531659141344cd1fd0a4f28419497f9722a3daafe3b4186f6b6457e09190a35050565b6000602082840312156100bf57600080fd5b81516001600160a01b03811681146100d657600080fd5b9392505050565b61110b806100ec6000396000f3fe608060405234801561001057600080fd5b50600436106100ea5760003560e01c80638da5cb5b1161008c578063b242e53411610066578063b242e534146101ce578063b6b55f25146101e1578063e30c3978146101f4578063f7c618c11461020557600080fd5b80638da5cb5b146101545780639a114cb2146101795780639e34070f1461018c57600080fd5b80634e71e0c8116100c85780634e71e0c81461012857806366deac4714610130578063715018a6146101395780637cb647591461014157600080fd5b80632503c057146100ef5780632eb4a7ab146101045780633ccfd60b14610120575b600080fd5b6101026100fd366004610eb3565b610218565b005b61010d60025481565b6040519081526020015b60405180910390f35b6101026102b3565b61010261040b565b61010d60045481565b61010261046f565b61010261014f366004610eb3565b6104d3565b6000546001600160a01b03165b6040516001600160a01b039091168152602001610117565b610102610187366004610ecc565b6105b2565b6101be61019a366004610eb3565b600881901c600090815260056020526040812054600160ff84161b16151592915050565b6040519015158152602001610117565b6101026101dc366004610f59565b6108c4565b6101026101ef366004610eb3565b6109b3565b6001546001600160a01b0316610161565b600354610161906001600160a01b031681565b6000546001600160a01b031633146102775760405162461bcd60e51b815260206004820152601d60248201527f536166654f776e61626c653a2063616c6c6572206e6f74206f776e657200000060448201526064015b60405180910390fd5b60048190556040518181527f15671967934582a50a78abf9731094ac6d395d1f9a63f2f4675748b1b121882b906020015b60405180910390a150565b6000546001600160a01b0316331461030d5760405162461bcd60e51b815260206004820152601d60248201527f536166654f776e61626c653a2063616c6c6572206e6f74206f776e6572000000604482015260640161026e565b6003546040517f70a082310000000000000000000000000000000000000000000000000000000081523060048201526000916001600160a01b0316906370a0823190602401602060405180830381865afa15801561036f573d6000803e3d6000fd5b505050506040513d601f19601f820116820180604052508101906103939190610f9e565b6003549091506103c1906001600160a01b031673618bb5466c13747049af8f3b237f929c95de5d7e836109ce565b6040805173618bb5466c13747049af8f3b237f929c95de5d7e8152602081018390527fec02563a2a279255d98a8379169a934c5dd4fb9f242313e6dd68269cf2d7046891016102a8565b6001546001600160a01b031633146104655760405162461bcd60e51b815260206004820152601e60248201527f536166654f776e61626c653a2063616c6c657220213d2070656e64696e670000604482015260640161026e565b61046d610a7c565b565b6000546001600160a01b031633146104c95760405162461bcd60e51b815260206004820152601d60248201527f536166654f776e61626c653a2063616c6c6572206e6f74206f776e6572000000604482015260640161026e565b61046d6000610af1565b6000546001600160a01b0316331461052d5760405162461bcd60e51b815260206004820152601d60248201527f536166654f776e61626c653a2063616c6c6572206e6f74206f776e6572000000604482015260640161026e565b6002541561057d5760405162461bcd60e51b815260206004820181905260248201527f503132417263616e613a2063616e6e6f742073657420726f6f74207477696365604482015260640161026e565b60028190556040518181527f1b930366dfeaa7eb3b325021e4ae81e36527063452ee55b86c95f85b36f4c31c906020016102a8565b60045442106106035760405162461bcd60e51b815260206004820152601c60248201527f503132417263616e613a206e6f742074696d6520746f20636c61696d00000000604482015260640161026e565b6003546040517f70a082310000000000000000000000000000000000000000000000000000000081523060048201526001600160a01b03909116906370a0823190602401602060405180830381865afa158015610664573d6000803e3d6000fd5b505050506040513d601f19601f820116820180604052508101906106889190610f9e565b8311156106d75760405162461bcd60e51b815260206004820152601a60248201527f503132417263616e613a20657863656564732062616c616e6365000000000000604482015260640161026e565b6040517fffffffffffffffffffffffffffffffffffffffff0000000000000000000000003360601b16602082015260348101849052600090605401604051602081830303815290604052805190602001209050600061076d848480806020026020016040519081016040528093929190818152602001838360200280828437600092019190915250506002549150859050610b4e565b9050806107bc5760405162461bcd60e51b815260206004820152601860248201527f503132417263616e613a20696e76616c69642070726f6f660000000000000000604482015260640161026e565b6107e433600881901c600090815260056020526040812054600160ff84161b16151592915050565b156108315760405162461bcd60e51b815260206004820152601a60248201527f503132417263616e613a20616c726561647920636c61696d6564000000000000604482015260640161026e565b6108713372ffffffffffffffffffffffffffffffffffffff600882901c1660009081526005602052604090208054600160ff9093169290921b9091179055565b600354610888906001600160a01b031633876109ce565b60405185815233907f47cee97cb7acd717b3c0aa1435d004cd5b3c8c57d70dbceb4e4458bbd60e39d49060200160405180910390a25050505050565b6000546001600160a01b0316331461091e5760405162461bcd60e51b815260206004820152601d60248201527f536166654f776e61626c653a2063616c6c6572206e6f74206f776e6572000000604482015260640161026e565b6001600160a01b0382166109745760405162461bcd60e51b815260206004820152601b60248201527f536166654f776e61626c653a206e6577206f776e657220697320300000000000604482015260640161026e565b80156109875761098382610af1565b5050565b6001805473ffffffffffffffffffffffffffffffffffffffff19166001600160a01b0384161790555050565b6003546109cb906001600160a01b0316333084610b66565b50565b6040516001600160a01b038316602482015260448101829052610a779084907fa9059cbb00000000000000000000000000000000000000000000000000000000906064015b60408051601f198184030181529190526020810180517bffffffffffffffffffffffffffffffffffffffffffffffffffffffff167fffffffff0000000000000000000000000000000000000000000000000000000090931692909217909152610bbd565b505050565b600080546001546040516001600160a01b0392831693919092169183917f8be0079c531659141344cd1fd0a4f28419497f9722a3daafe3b4186f6b6457e091a350600180546000805473ffffffffffffffffffffffffffffffffffffffff199081166001600160a01b03841617909155169055565b600080546001600160a01b0383811673ffffffffffffffffffffffffffffffffffffffff19831681178455604051919092169283917f8be0079c531659141344cd1fd0a4f28419497f9722a3daafe3b4186f6b6457e09190a35050565b600082610b5b8584610ca2565b1490505b9392505050565b6040516001600160a01b0380851660248301528316604482015260648101829052610bb79085907f23b872dd0000000000000000000000000000000000000000000000000000000090608401610a13565b50505050565b6000610c12826040518060400160405280602081526020017f5361666545524332303a206c6f772d6c6576656c2063616c6c206661696c6564815250856001600160a01b0316610cef9092919063ffffffff16565b805190915015610a775780806020019051810190610c309190610fb7565b610a775760405162461bcd60e51b815260206004820152602a60248201527f5361666545524332303a204552433230206f7065726174696f6e20646964206e60448201527f6f74207375636365656400000000000000000000000000000000000000000000606482015260840161026e565b600081815b8451811015610ce757610cd382868381518110610cc657610cc6610fd4565b6020026020010151610d06565b915080610cdf81611003565b915050610ca7565b509392505050565b6060610cfe8484600085610d32565b949350505050565b6000818310610d22576000828152602084905260409020610b5f565b5060009182526020526040902090565b606082471015610daa5760405162461bcd60e51b815260206004820152602660248201527f416464726573733a20696e73756666696369656e742062616c616e636520666f60448201527f722063616c6c0000000000000000000000000000000000000000000000000000606482015260840161026e565b6001600160a01b0385163b610e015760405162461bcd60e51b815260206004820152601d60248201527f416464726573733a2063616c6c20746f206e6f6e2d636f6e7472616374000000604482015260640161026e565b600080866001600160a01b03168587604051610e1d9190611086565b60006040518083038185875af1925050503d8060008114610e5a576040519150601f19603f3d011682016040523d82523d6000602084013e610e5f565b606091505b5091509150610e6f828286610e7a565b979650505050505050565b60608315610e89575081610b5f565b825115610e995782518084602001fd5b8160405162461bcd60e51b815260040161026e91906110a2565b600060208284031215610ec557600080fd5b5035919050565b600080600060408486031215610ee157600080fd5b83359250602084013567ffffffffffffffff80821115610f0057600080fd5b818601915086601f830112610f1457600080fd5b813581811115610f2357600080fd5b8760208260051b8501011115610f3857600080fd5b6020830194508093505050509250925092565b80151581146109cb57600080fd5b60008060408385031215610f6c57600080fd5b82356001600160a01b0381168114610f8357600080fd5b91506020830135610f9381610f4b565b809150509250929050565b600060208284031215610fb057600080fd5b5051919050565b600060208284031215610fc957600080fd5b8151610b5f81610f4b565b7f4e487b7100000000000000000000000000000000000000000000000000000000600052603260045260246000fd5b60007fffffffffffffffffffffffffffffffffffffffffffffffffffffffffffffffff820361105b577f4e487b7100000000000000000000000000000000000000000000000000000000600052601160045260246000fd5b5060010190565b60005b8381101561107d578181015183820152602001611065565b50506000910152565b60008251611098818460208701611062565b9190910192915050565b60208152600082518060208401526110c1816040850160208701611062565b601f01601f1916919091016040019291505056fea264697066735822122009b7f2b3e530dc74c9cc7b70e4089c99919e5cc1a9dcd0550288d1f2d5a0e3c164736f6c63430008110033",
  "devdoc": {
    "kind": "dev",
    "methods": {
      "claimOwnership()": {
        "details": "pending owner call this function to claim ownership"
      },
      "claimTokens(uint256,bytes32[])": {
        "details": "Claims airdropped tokens.",
        "params": {
          "amount": "The amount of the claim being made.",
          "merkleProof": "A merkle proof proving the claim is valid."
        }
      },
      "deposit(uint256)": {
        "details": "deposit token via this function, in case of send wrong token",
        "params": {
          "amount": "amount to deposit"
        }
      },
      "isClaimed(uint256)": {
        "details": "Returns true if the claim at the given index in the merkle tree has already been made.",
        "params": {
          "index": "The index into the merkle tree."
        }
      },
      "owner()": {
        "details": "Returns the address of the current owner."
      },
      "pendingOwner()": {
        "details": "Return the address of the pending owner"
      },
      "renounceOwnership()": {
        "details": "Leaves the contract without owner. It will not be possible to call `onlyOwner` functions anymore. Can only be called by the current owner. NOTE: Renouncing ownership will leave the contract without an owner, thereby removing any functionality that is only available to the owner."
      },
      "setClaimPeriodEnds(uint256)": {
        "details": "Sets the claim period ends.",
        "params": {
          "claimPeriodEnds_": "The merkle root to set."
        }
      },
      "setMerkleRoot(bytes32)": {
        "details": "Sets the merkle root.",
        "params": {
          "newMerkleRoot": "The merkle root to set."
        }
      },
      "transferOwnership(address,bool)": {
        "details": "Transfers ownership of the contract to a new account (`newOwner`). Can only be called by the current owner. Note If direct is false, it will set an pending owner and the OwnerShipTransferring only happens when the pending owner claim the ownership"
      },
      "withdraw()": {
        "details": "withdraw remaining tokens."
      }
    },
    "version": 1
  },
  "userdoc": {
    "kind": "user",
    "methods": {},
    "version": 1
  },
  "storageLayout": {
    "storage": [
      {
        "astId": 1969,
        "contract": "contracts/RewardDistributor.sol:RewardDistributor",
        "label": "_owner",
        "offset": 0,
        "slot": "0",
        "type": "t_address"
      },
      {
        "astId": 1971,
        "contract": "contracts/RewardDistributor.sol:RewardDistributor",
        "label": "_pendingOwner",
        "offset": 0,
        "slot": "1",
        "type": "t_address"
      },
      {
        "astId": 2161,
        "contract": "contracts/RewardDistributor.sol:RewardDistributor",
        "label": "merkleRoot",
        "offset": 0,
        "slot": "2",
        "type": "t_bytes32"
      },
      {
        "astId": 2164,
        "contract": "contracts/RewardDistributor.sol:RewardDistributor",
        "label": "rewardToken",
        "offset": 0,
        "slot": "3",
        "type": "t_contract(IERC20)663"
      },
      {
        "astId": 2166,
        "contract": "contracts/RewardDistributor.sol:RewardDistributor",
        "label": "claimPeriodEnds",
        "offset": 0,
        "slot": "4",
        "type": "t_uint256"
      },
      {
        "astId": 2169,
        "contract": "contracts/RewardDistributor.sol:RewardDistributor",
        "label": "claimed",
        "offset": 0,
        "slot": "5",
        "type": "t_struct(BitMap)1832_storage"
      }
    ],
    "types": {
      "t_address": {
        "encoding": "inplace",
        "label": "address",
        "numberOfBytes": "20"
      },
      "t_bytes32": {
        "encoding": "inplace",
        "label": "bytes32",
        "numberOfBytes": "32"
      },
      "t_contract(IERC20)663": {
        "encoding": "inplace",
        "label": "contract IERC20",
        "numberOfBytes": "20"
      },
      "t_mapping(t_uint256,t_uint256)": {
        "encoding": "mapping",
        "key": "t_uint256",
        "label": "mapping(uint256 => uint256)",
        "numberOfBytes": "32",
        "value": "t_uint256"
      },
      "t_struct(BitMap)1832_storage": {
        "encoding": "inplace",
        "label": "struct BitMaps.BitMap",
        "members": [
          {
            "astId": 1831,
            "contract": "contracts/RewardDistributor.sol:RewardDistributor",
            "label": "_data",
            "offset": 0,
            "slot": "0",
            "type": "t_mapping(t_uint256,t_uint256)"
          }
        ],
        "numberOfBytes": "32"
      },
      "t_uint256": {
        "encoding": "inplace",
        "label": "uint256",
        "numberOfBytes": "32"
      }
    }
  }
}