{
  "address": "0xf7ba8733955468e97761733CE3EdFeC459AC5633",
  "abi": [
    {
      "inputs": [
        {
          "internalType": "address",
          "name": "forwarder_",
          "type": "address"
        }
      ],
      "stateMutability": "nonpayable",
      "type": "constructor"
    },
    {
      "anonymous": false,
      "inputs": [
        {
          "indexed": false,
          "internalType": "address",
          "name": "previousAdmin",
          "type": "address"
        },
        {
          "indexed": false,
          "internalType": "address",
          "name": "newAdmin",
          "type": "address"
        }
      ],
      "name": "AdminChanged",
      "type": "event"
    },
    {
      "anonymous": false,
      "inputs": [
        {
          "indexed": false,
          "internalType": "uint256",
          "name": "tokenId",
          "type": "uint256"
        },
        {
          "indexed": false,
          "internalType": "string",
          "name": "uri",
          "type": "string"
        }
      ],
      "name": "AnswerUriUpdate",
      "type": "event"
    },
    {
      "anonymous": false,
      "inputs": [
        {
          "indexed": true,
          "internalType": "address",
          "name": "owner",
          "type": "address"
        },
        {
          "indexed": true,
          "internalType": "address",
          "name": "approved",
          "type": "address"
        },
        {
          "indexed": true,
          "internalType": "uint256",
          "name": "tokenId",
          "type": "uint256"
        }
      ],
      "name": "Approval",
      "type": "event"
    },
    {
      "anonymous": false,
      "inputs": [
        {
          "indexed": true,
          "internalType": "address",
          "name": "owner",
          "type": "address"
        },
        {
          "indexed": true,
          "internalType": "address",
          "name": "operator",
          "type": "address"
        },
        {
          "indexed": false,
          "internalType": "bool",
          "name": "approved",
          "type": "bool"
        }
      ],
      "name": "ApprovalForAll",
      "type": "event"
    },
    {
      "anonymous": false,
      "inputs": [
        {
          "indexed": true,
          "internalType": "address",
          "name": "beacon",
          "type": "address"
        }
      ],
      "name": "BeaconUpgraded",
      "type": "event"
    },
    {
      "anonymous": false,
      "inputs": [
        {
          "indexed": false,
          "internalType": "uint8",
          "name": "version",
          "type": "uint8"
        }
      ],
      "name": "Initialized",
      "type": "event"
    },
    {
      "anonymous": false,
      "inputs": [
        {
          "indexed": false,
          "internalType": "bool",
          "name": "lock",
          "type": "bool"
        }
      ],
      "name": "LockSet",
      "type": "event"
    },
    {
      "anonymous": false,
      "inputs": [
        {
          "indexed": true,
          "internalType": "address",
          "name": "previousOwner",
          "type": "address"
        },
        {
          "indexed": true,
          "internalType": "address",
          "name": "newOwner",
          "type": "address"
        }
      ],
      "name": "OwnershipTransferred",
      "type": "event"
    },
    {
      "anonymous": false,
      "inputs": [
        {
          "indexed": false,
          "internalType": "uint256",
          "name": "tokenId",
          "type": "uint256"
        },
        {
          "indexed": false,
          "internalType": "uint256",
          "name": "power",
          "type": "uint256"
        }
      ],
      "name": "PowerUpdate",
      "type": "event"
    },
    {
      "anonymous": false,
      "inputs": [
        {
          "indexed": false,
          "internalType": "address",
          "name": "renderEngin",
          "type": "address"
        }
      ],
      "name": "RenderEngineSet",
      "type": "event"
    },
    {
      "anonymous": false,
      "inputs": [
        {
          "indexed": false,
          "internalType": "address",
          "name": "signer",
          "type": "address"
        },
        {
          "indexed": false,
          "internalType": "bool",
          "name": "valid",
          "type": "bool"
        }
      ],
      "name": "SignerSet",
      "type": "event"
    },
    {
      "anonymous": false,
      "inputs": [
        {
          "indexed": true,
          "internalType": "address",
          "name": "from",
          "type": "address"
        },
        {
          "indexed": true,
          "internalType": "address",
          "name": "to",
          "type": "address"
        },
        {
          "indexed": true,
          "internalType": "uint256",
          "name": "tokenId",
          "type": "uint256"
        }
      ],
      "name": "Transfer",
      "type": "event"
    },
    {
      "anonymous": false,
      "inputs": [
        {
          "indexed": true,
          "internalType": "address",
          "name": "implementation",
          "type": "address"
        }
      ],
      "name": "Upgraded",
      "type": "event"
    },
    {
      "inputs": [
        {
          "internalType": "uint256",
          "name": "",
          "type": "uint256"
        }
      ],
      "name": "answersUri",
      "outputs": [
        {
          "internalType": "string",
          "name": "",
          "type": "string"
        }
      ],
      "stateMutability": "view",
      "type": "function"
    },
    {
      "inputs": [
        {
          "internalType": "address",
          "name": "to",
          "type": "address"
        },
        {
          "internalType": "uint256",
          "name": "tokenId",
          "type": "uint256"
        }
      ],
      "name": "approve",
      "outputs": [],
      "stateMutability": "nonpayable",
      "type": "function"
    },
    {
      "inputs": [
        {
          "internalType": "address",
          "name": "owner",
          "type": "address"
        }
      ],
      "name": "balanceOf",
      "outputs": [
        {
          "internalType": "uint256",
          "name": "",
          "type": "uint256"
        }
      ],
      "stateMutability": "view",
      "type": "function"
    },
    {
      "inputs": [],
      "name": "claimOwnership",
      "outputs": [],
      "stateMutability": "nonpayable",
      "type": "function"
    },
    {
      "inputs": [
        {
          "internalType": "uint256",
          "name": "tokenId",
          "type": "uint256"
        }
      ],
      "name": "getApproved",
      "outputs": [
        {
          "internalType": "address",
          "name": "",
          "type": "address"
        }
      ],
      "stateMutability": "view",
      "type": "function"
    },
    {
      "inputs": [],
      "name": "getBattlePass",
      "outputs": [],
      "stateMutability": "nonpayable",
      "type": "function"
    },
    {
      "inputs": [
        {
          "internalType": "address",
          "name": "user",
          "type": "address"
        }
      ],
      "name": "getBattlePass",
      "outputs": [],
      "stateMutability": "nonpayable",
      "type": "function"
    },
    {
      "inputs": [
        {
          "internalType": "uint256",
          "name": "tokenId",
          "type": "uint256"
        }
      ],
      "name": "getVotingPower",
      "outputs": [
        {
          "internalType": "uint256",
          "name": "",
          "type": "uint256"
        }
      ],
      "stateMutability": "view",
      "type": "function"
    },
    {
      "inputs": [
        {
          "internalType": "string",
          "name": "name_",
          "type": "string"
        },
        {
          "internalType": "string",
          "name": "symbol_",
          "type": "string"
        },
        {
          "internalType": "string",
          "name": "version_",
          "type": "string"
        },
        {
          "internalType": "string",
          "name": "description_",
          "type": "string"
        }
      ],
      "name": "initialize",
      "outputs": [],
      "stateMutability": "nonpayable",
      "type": "function"
    },
    {
      "inputs": [
        {
          "internalType": "address",
          "name": "owner",
          "type": "address"
        },
        {
          "internalType": "address",
          "name": "operator",
          "type": "address"
        }
      ],
      "name": "isApprovedForAll",
      "outputs": [
        {
          "internalType": "bool",
          "name": "",
          "type": "bool"
        }
      ],
      "stateMutability": "view",
      "type": "function"
    },
    {
      "inputs": [
        {
          "internalType": "address",
          "name": "forwarder",
          "type": "address"
        }
      ],
      "name": "isTrustedForwarder",
      "outputs": [
        {
          "internalType": "bool",
          "name": "",
          "type": "bool"
        }
      ],
      "stateMutability": "view",
      "type": "function"
    },
    {
      "inputs": [],
      "name": "name",
      "outputs": [
        {
          "internalType": "string",
          "name": "",
          "type": "string"
        }
      ],
      "stateMutability": "view",
      "type": "function"
    },
    {
      "inputs": [],
      "name": "owner",
      "outputs": [
        {
          "internalType": "address",
          "name": "",
          "type": "address"
        }
      ],
      "stateMutability": "view",
      "type": "function"
    },
    {
      "inputs": [
        {
          "internalType": "uint256",
          "name": "tokenId",
          "type": "uint256"
        }
      ],
      "name": "ownerOf",
      "outputs": [
        {
          "internalType": "address",
          "name": "",
          "type": "address"
        }
      ],
      "stateMutability": "view",
      "type": "function"
    },
    {
      "inputs": [],
      "name": "pendingOwner",
      "outputs": [
        {
          "internalType": "address",
          "name": "",
          "type": "address"
        }
      ],
      "stateMutability": "view",
      "type": "function"
    },
    {
      "inputs": [],
      "name": "proxiableUUID",
      "outputs": [
        {
          "internalType": "bytes32",
          "name": "",
          "type": "bytes32"
        }
      ],
      "stateMutability": "view",
      "type": "function"
    },
    {
      "inputs": [],
      "name": "renderEngine",
      "outputs": [
        {
          "internalType": "address",
          "name": "",
          "type": "address"
        }
      ],
      "stateMutability": "view",
      "type": "function"
    },
    {
      "inputs": [],
      "name": "renounceOwnership",
      "outputs": [],
      "stateMutability": "nonpayable",
      "type": "function"
    },
    {
      "inputs": [
        {
          "internalType": "address",
          "name": "from",
          "type": "address"
        },
        {
          "internalType": "address",
          "name": "to",
          "type": "address"
        },
        {
          "internalType": "uint256",
          "name": "tokenId",
          "type": "uint256"
        }
      ],
      "name": "safeTransferFrom",
      "outputs": [],
      "stateMutability": "nonpayable",
      "type": "function"
    },
    {
      "inputs": [
        {
          "internalType": "address",
          "name": "from",
          "type": "address"
        },
        {
          "internalType": "address",
          "name": "to",
          "type": "address"
        },
        {
          "internalType": "uint256",
          "name": "tokenId",
          "type": "uint256"
        },
        {
          "internalType": "bytes",
          "name": "data",
          "type": "bytes"
        }
      ],
      "name": "safeTransferFrom",
      "outputs": [],
      "stateMutability": "nonpayable",
      "type": "function"
    },
    {
      "inputs": [
        {
          "internalType": "address",
          "name": "operator",
          "type": "address"
        },
        {
          "internalType": "bool",
          "name": "approved",
          "type": "bool"
        }
      ],
      "name": "setApprovalForAll",
      "outputs": [],
      "stateMutability": "nonpayable",
      "type": "function"
    },
    {
      "inputs": [
        {
          "internalType": "bool",
          "name": "lock_",
          "type": "bool"
        }
      ],
      "name": "setLock",
      "outputs": [],
      "stateMutability": "nonpayable",
      "type": "function"
    },
    {
      "inputs": [
        {
          "internalType": "address",
          "name": "newEngine",
          "type": "address"
        }
      ],
      "name": "setRenderEngin",
      "outputs": [],
      "stateMutability": "nonpayable",
      "type": "function"
    },
    {
      "inputs": [
        {
          "internalType": "address",
          "name": "signer",
          "type": "address"
        },
        {
          "internalType": "bool",
          "name": "valid",
          "type": "bool"
        }
      ],
      "name": "setSigner",
      "outputs": [],
      "stateMutability": "nonpayable",
      "type": "function"
    },
    {
      "inputs": [
        {
          "internalType": "bytes32",
          "name": "",
          "type": "bytes32"
        }
      ],
      "name": "signatureUsed",
      "outputs": [
        {
          "internalType": "bool",
          "name": "",
          "type": "bool"
        }
      ],
      "stateMutability": "view",
      "type": "function"
    },
    {
      "inputs": [
        {
          "internalType": "address",
          "name": "",
          "type": "address"
        }
      ],
      "name": "signers",
      "outputs": [
        {
          "internalType": "bool",
          "name": "",
          "type": "bool"
        }
      ],
      "stateMutability": "view",
      "type": "function"
    },
    {
      "inputs": [
        {
          "internalType": "bytes4",
          "name": "interfaceId",
          "type": "bytes4"
        }
      ],
      "name": "supportsInterface",
      "outputs": [
        {
          "internalType": "bool",
          "name": "",
          "type": "bool"
        }
      ],
      "stateMutability": "view",
      "type": "function"
    },
    {
      "inputs": [],
      "name": "symbol",
      "outputs": [
        {
          "internalType": "string",
          "name": "",
          "type": "string"
        }
      ],
      "stateMutability": "view",
      "type": "function"
    },
    {
      "inputs": [
        {
          "internalType": "uint256",
          "name": "tokenId",
          "type": "uint256"
        }
      ],
      "name": "tokenURI",
      "outputs": [
        {
          "internalType": "string",
          "name": "",
          "type": "string"
        }
      ],
      "stateMutability": "view",
      "type": "function"
    },
    {
      "inputs": [
        {
          "internalType": "address",
          "name": "from",
          "type": "address"
        },
        {
          "internalType": "address",
          "name": "to",
          "type": "address"
        },
        {
          "internalType": "uint256",
          "name": "tokenId",
          "type": "uint256"
        }
      ],
      "name": "transferFrom",
      "outputs": [],
      "stateMutability": "nonpayable",
      "type": "function"
    },
    {
      "inputs": [
        {
          "internalType": "address",
          "name": "newOwner",
          "type": "address"
        },
        {
          "internalType": "bool",
          "name": "direct",
          "type": "bool"
        }
      ],
      "name": "transferOwnership",
      "outputs": [],
      "stateMutability": "nonpayable",
      "type": "function"
    },
    {
      "inputs": [
        {
          "internalType": "uint256",
          "name": "tokenId",
          "type": "uint256"
        },
        {
          "internalType": "string",
          "name": "uri",
          "type": "string"
        }
      ],
      "name": "updateAnswerUri",
      "outputs": [],
      "stateMutability": "nonpayable",
      "type": "function"
    },
    {
      "inputs": [
        {
          "internalType": "uint256",
          "name": "tokenId",
          "type": "uint256"
        },
        {
          "internalType": "uint256",
          "name": "power",
          "type": "uint256"
        },
        {
          "internalType": "uint256",
          "name": "deadline",
          "type": "uint256"
        },
        {
          "internalType": "bytes",
          "name": "signature",
          "type": "bytes"
        }
      ],
      "name": "updatePower",
      "outputs": [],
      "stateMutability": "nonpayable",
      "type": "function"
    },
    {
      "inputs": [
        {
          "internalType": "uint256",
          "name": "tokenId",
          "type": "uint256"
        },
        {
          "internalType": "uint256",
          "name": "power",
          "type": "uint256"
        },
        {
          "internalType": "uint256",
          "name": "deadline",
          "type": "uint256"
        }
      ],
      "name": "updatePower",
      "outputs": [],
      "stateMutability": "nonpayable",
      "type": "function"
    },
    {
      "inputs": [
        {
          "internalType": "address",
          "name": "newImplementation",
          "type": "address"
        }
      ],
      "name": "upgradeTo",
      "outputs": [],
      "stateMutability": "nonpayable",
      "type": "function"
    },
    {
      "inputs": [
        {
          "internalType": "address",
          "name": "newImplementation",
          "type": "address"
        },
        {
          "internalType": "bytes",
          "name": "data",
          "type": "bytes"
        }
      ],
      "name": "upgradeToAndCall",
      "outputs": [],
      "stateMutability": "payable",
      "type": "function"
    }
  ],
  "transactionHash": "0x742fa5a5f1efc730a216e7d5f392a019fa218d958f10bbe98c2b673de361538d",
  "args": [
    "0xdA4abcDda3bd90297C26B09c2075619535805062"
  ],
  "numDeployments": 2,
  "solcInputHash": "aeaec7012e2ce1fa3fcda4c2b725a678",
  "bytecode": "0x60c06040523060a0523480156200001557600080fd5b506040516200433138038062004331833981016040819052620000389162000180565b6001600160a01b038116608052600054610100900460ff1615808015620000665750600054600160ff909116105b8062000096575062000083306200017160201b62001dde1760201c565b15801562000096575060005460ff166001145b620000fe5760405162461bcd60e51b815260206004820152602e60248201527f496e697469616c697a61626c653a20636f6e747261637420697320616c72656160448201526d191e481a5b9a5d1a585b1a5e995960921b606482015260840160405180910390fd5b6000805460ff19166001179055801562000122576000805461ff0019166101001790555b801562000169576000805461ff0019169055604051600181527f7f26b83ff96e1f2b6a682f133852f6798a09c465da95921460cefb38474024989060200160405180910390a15b5050620001b2565b6001600160a01b03163b151590565b6000602082840312156200019357600080fd5b81516001600160a01b0381168114620001ab57600080fd5b9392505050565b60805160a051614136620001fb60003960008181610e8401528181610f1a0152818161117c01528181611212015261130d01526000818161046e0152612aa001526141366000f3fe60806040526004361061024f5760003560e01c806370a0823111610138578063b88d4fde116100b0578063ce56d14b1161007f578063e307fb3111610064578063e307fb31146106ba578063e30c3978146106eb578063e985e9c51461070957600080fd5b8063ce56d14b1461067a578063d84a500a1461069a57600080fd5b8063b88d4fde14610605578063ba93f88914610625578063bab4dde01461063a578063c87b56dd1461065a57600080fd5b806395d89b4111610107578063a22cb465116100ec578063a22cb465146105a5578063a523d35e146105c5578063b242e534146105e557600080fd5b806395d89b41146105625780639c6d29761461057757600080fd5b806370a08231146104de578063715018a6146104fe578063736c0d5b146105135780638da5cb5b1461054457600080fd5b80633659cfe6116101cb5780634f1ef2861161019a578063572b6c051161017f578063572b6c0514610451578063619d51941461049e5780636352211e146104be57600080fd5b80634f1ef2861461041b57806352d1902d1461042e57600080fd5b80633659cfe6146103a657806342842e0e146103c657806348c7ac94146103e65780634e71e0c81461040657600080fd5b80631ab518831161022257806323b872dd1161020757806323b872dd146103465780632432d4131461036657806331cb61051461038657600080fd5b80631ab51883146103055780631ee0df901461032657600080fd5b806301ffc9a71461025457806306fdde0314610289578063081812fc146102ab578063095ea7b3146102e3575b600080fd5b34801561026057600080fd5b5061027461026f36600461350e565b610753565b60405190151581526020015b60405180910390f35b34801561029557600080fd5b5061029e610838565b604051610280919061357b565b3480156102b757600080fd5b506102cb6102c636600461358e565b6108cb565b6040516001600160a01b039091168152602001610280565b3480156102ef57600080fd5b506103036102fe3660046135c3565b6108f3565b005b34801561031157600080fd5b50610193546102cb906001600160a01b031681565b34801561033257600080fd5b5061030361034136600461362f565b610a3b565b34801561035257600080fd5b50610303610361366004613690565b610c74565b34801561037257600080fd5b5061029e61038136600461358e565b610d02565b34801561039257600080fd5b506103036103a13660046136dc565b610d9d565b3480156103b257600080fd5b506103036103c136600461370f565b610e7a565b3480156103d257600080fd5b506103036103e1366004613690565b611017565b3480156103f257600080fd5b5061030361040136600461370f565b611032565b34801561041257600080fd5b5061030361110e565b6103036104293660046137ef565b611172565b34801561043a57600080fd5b50610443611300565b604051908152602001610280565b34801561045d57600080fd5b5061027461046c36600461370f565b7f00000000000000000000000000000000000000000000000000000000000000006001600160a01b0390811691161490565b3480156104aa57600080fd5b506103036104b936600461383d565b6113c5565b3480156104ca57600080fd5b506102cb6104d936600461358e565b611480565b3480156104ea57600080fd5b506104436104f936600461370f565b6114e6565b34801561050a57600080fd5b50610303611581565b34801561051f57600080fd5b5061027461052e36600461370f565b6101966020526000908152604090205460ff1681565b34801561055057600080fd5b506065546001600160a01b03166102cb565b34801561056e57600080fd5b5061029e611604565b34801561058357600080fd5b5061044361059236600461358e565b6000908152610197602052604090205490565b3480156105b157600080fd5b506103036105c03660046136dc565b611614565b3480156105d157600080fd5b506103036105e0366004613858565b611626565b3480156105f157600080fd5b506103036106003660046136dc565b611843565b34801561061157600080fd5b5061030361062036600461391c565b61194d565b34801561063157600080fd5b506103036119e2565b34801561064657600080fd5b50610303610655366004613984565b611a5b565b34801561066657600080fd5b5061029e61067536600461358e565b611b39565b34801561068657600080fd5b506103036106953660046139b0565b611c56565b3480156106a657600080fd5b506103036106b536600461370f565b611d75565b3480156106c657600080fd5b506102746106d536600461358e565b6101996020526000908152604090205460ff1681565b3480156106f757600080fd5b506066546001600160a01b03166102cb565b34801561071557600080fd5b506102746107243660046139fc565b6001600160a01b0391821660009081526101326020908152604080832093909416825291909152205460ff1690565b60007fffffffff0000000000000000000000000000000000000000000000000000000082167f80ac58cd0000000000000000000000000000000000000000000000000000000014806107e657507fffffffff0000000000000000000000000000000000000000000000000000000082167f5b5e139f00000000000000000000000000000000000000000000000000000000145b8061083257507f01ffc9a7000000000000000000000000000000000000000000000000000000007fffffffff000000000000000000000000000000000000000000000000000000008316145b92915050565b606061012d805461084890613a26565b80601f016020809104026020016040519081016040528092919081815260200182805461087490613a26565b80156108c15780601f10610896576101008083540402835291602001916108c1565b820191906000526020600020905b8154815290600101906020018083116108a457829003601f168201915b5050505050905090565b60006108d682611ded565b50600090815261013160205260409020546001600160a01b031690565b60006108fe82611480565b9050806001600160a01b0316836001600160a01b03160361098c5760405162461bcd60e51b815260206004820152602160248201527f4552433732313a20617070726f76616c20746f2063757272656e74206f776e6560448201527f720000000000000000000000000000000000000000000000000000000000000060648201526084015b60405180910390fd5b806001600160a01b031661099e611e52565b6001600160a01b031614806109ba57506109ba81610724611e52565b610a2c5760405162461bcd60e51b815260206004820152603e60248201527f4552433732313a20617070726f76652063616c6c6572206973206e6f7420746f60448201527f6b656e206f776e6572206e6f7220617070726f76656420666f7220616c6c00006064820152608401610983565b610a368383611e61565b505050565b61019960008383604051610a50929190613a60565b604080519182900390912082526020820192909252016000205460ff1615610aba5760405162461bcd60e51b815260206004820152601b60248201527f503132417263616e613a2073696720616c7265616479207573656400000000006044820152606401610983565b428311610b095760405162461bcd60e51b815260206004820152601760248201527f503132417263616e613a206f75746461746564207369670000000000000000006044820152606401610983565b6000610bab83838080601f01602080910402602001604051908101604052809392919081815260200183838082843760009201919091525050604080517f3cfb1c50437bb2e0aaf2c6e1cc667ef8281e73877eb4a30d99a348b424d2281860208201529081018b9052606081018a905260808101899052610ba5925060a001905060405160208183030381529060405280519060200120611edd565b90611f46565b6001600160a01b0381166000908152610196602052604090205490915060ff16610c175760405162461bcd60e51b815260206004820152601e60248201527f503132417263616e613a20736967206e6f742066726f6d207369676e657200006044820152606401610983565b600086815261019760205260408082208790555160019161019991610c3f9087908790613a60565b6040518091039020815260200190815260200160002060006101000a81548160ff021916908315150217905550505050505050565b610c85610c7f611e52565b82611f6a565b610cf75760405162461bcd60e51b815260206004820152602e60248201527f4552433732313a2063616c6c6572206973206e6f7420746f6b656e206f776e6560448201527f72206e6f7220617070726f7665640000000000000000000000000000000000006064820152608401610983565b610a36838383611fea565b6101986020526000908152604090208054610d1c90613a26565b80601f0160208091040260200160405190810160405280929190818152602001828054610d4890613a26565b8015610d955780601f10610d6a57610100808354040283529160200191610d95565b820191906000526020600020905b815481529060010190602001808311610d7857829003601f168201915b505050505081565b610da5611e52565b6001600160a01b0316610dc06065546001600160a01b031690565b6001600160a01b031614610e165760405162461bcd60e51b815260206004820152601d60248201527f536166654f776e61626c653a2063616c6c6572206e6f74206f776e65720000006044820152606401610983565b6001600160a01b03821660008181526101966020908152604091829020805460ff19168515159081179091558251938452908301527ffc4acb499491cd850a8a21ab98c7f128850c0f0e5f1a875a62b7fa055c2ecf19910160405180910390a15050565b6001600160a01b037f0000000000000000000000000000000000000000000000000000000000000000163003610f185760405162461bcd60e51b815260206004820152602c60248201527f46756e6374696f6e206d7573742062652063616c6c6564207468726f7567682060448201527f64656c656761746563616c6c00000000000000000000000000000000000000006064820152608401610983565b7f00000000000000000000000000000000000000000000000000000000000000006001600160a01b0316610f737f360894a13ba1a3210667c828492db98dca3e2076cc3735a920a3ca505d382bbc546001600160a01b031690565b6001600160a01b031614610fef5760405162461bcd60e51b815260206004820152602c60248201527f46756e6374696f6e206d7573742062652063616c6c6564207468726f7567682060448201527f6163746976652070726f787900000000000000000000000000000000000000006064820152608401610983565b610ff8816121d2565b604080516000808252602082019092526110149183919061224b565b50565b610a368383836040518060200160405280600081525061194d565b61103a611e52565b6001600160a01b03166110556065546001600160a01b031690565b6001600160a01b0316146110ab5760405162461bcd60e51b815260206004820152601d60248201527f536166654f776e61626c653a2063616c6c6572206e6f74206f776e65720000006044820152606401610983565b610193805473ffffffffffffffffffffffffffffffffffffffff19166001600160a01b0383169081179091556040519081527fe04606c9c9b231af3ea9318df0be4801bce1f4814a450baf600600ac4b857fae906020015b60405180910390a150565b6066546001600160a01b031633146111685760405162461bcd60e51b815260206004820152601e60248201527f536166654f776e61626c653a2063616c6c657220213d2070656e64696e6700006044820152606401610983565b6111706123eb565b565b6001600160a01b037f00000000000000000000000000000000000000000000000000000000000000001630036112105760405162461bcd60e51b815260206004820152602c60248201527f46756e6374696f6e206d7573742062652063616c6c6564207468726f7567682060448201527f64656c656761746563616c6c00000000000000000000000000000000000000006064820152608401610983565b7f00000000000000000000000000000000000000000000000000000000000000006001600160a01b031661126b7f360894a13ba1a3210667c828492db98dca3e2076cc3735a920a3ca505d382bbc546001600160a01b031690565b6001600160a01b0316146112e75760405162461bcd60e51b815260206004820152602c60248201527f46756e6374696f6e206d7573742062652063616c6c6564207468726f7567682060448201527f6163746976652070726f787900000000000000000000000000000000000000006064820152608401610983565b6112f0826121d2565b6112fc8282600161224b565b5050565b6000306001600160a01b037f000000000000000000000000000000000000000000000000000000000000000016146113a05760405162461bcd60e51b815260206004820152603860248201527f555550535570677261646561626c653a206d757374206e6f742062652063616c60448201527f6c6564207468726f7567682064656c656761746563616c6c00000000000000006064820152608401610983565b507f360894a13ba1a3210667c828492db98dca3e2076cc3735a920a3ca505d382bbc90565b6113cd611e52565b6001600160a01b03166113e86065546001600160a01b031690565b6001600160a01b03161461143e5760405162461bcd60e51b815260206004820152601d60248201527f536166654f776e61626c653a2063616c6c6572206e6f74206f776e65720000006044820152606401610983565b610195805460ff19168215159081179091556040519081527f504bad97b429ba8801a2ae8e780de5f2f9a21c088094829ab3054a0aa66c00a290602001611103565b600081815261012f60205260408120546001600160a01b0316806108325760405162461bcd60e51b815260206004820152601860248201527f4552433732313a20696e76616c696420746f6b656e20494400000000000000006044820152606401610983565b60006001600160a01b0382166115645760405162461bcd60e51b815260206004820152602960248201527f4552433732313a2061646472657373207a65726f206973206e6f74206120766160448201527f6c6964206f776e657200000000000000000000000000000000000000000000006064820152608401610983565b506001600160a01b03166000908152610130602052604090205490565b611589611e52565b6001600160a01b03166115a46065546001600160a01b031690565b6001600160a01b0316146115fa5760405162461bcd60e51b815260206004820152601d60248201527f536166654f776e61626c653a2063616c6c6572206e6f74206f776e65720000006044820152606401610983565b6111706000612461565b606061012e805461084890613a26565b6112fc61161f611e52565b83836124e4565b600054610100900460ff16158080156116465750600054600160ff909116105b806116605750303b158015611660575060005460ff166001145b6116d25760405162461bcd60e51b815260206004820152602e60248201527f496e697469616c697a61626c653a20636f6e747261637420697320616c72656160448201527f647920696e697469616c697a65640000000000000000000000000000000000006064820152608401610983565b6000805460ff1916600117905580156116f5576000805461ff0019166101001790555b610194611703838583613abe565b5061170c6125b3565b61177f89898080601f01602080910402602001604051908101604052809392919081815260200183838082843760009201919091525050604080516020601f8d018190048102820181019092528b815292508b91508a908190840183828082843760009201919091525061264092505050565b6117f289898080601f01602080910402602001604051908101604052809392919081815260200183838082843760009201919091525050604080516020601f8b0181900481028201810190925289815292508991508890819084018382808284376000920191909152506126d892505050565b8015611838576000805461ff0019169055604051600181527f7f26b83ff96e1f2b6a682f133852f6798a09c465da95921460cefb38474024989060200160405180910390a15b505050505050505050565b61184b611e52565b6001600160a01b03166118666065546001600160a01b031690565b6001600160a01b0316146118bc5760405162461bcd60e51b815260206004820152601d60248201527f536166654f776e61626c653a2063616c6c6572206e6f74206f776e65720000006044820152606401610983565b6001600160a01b0382166119125760405162461bcd60e51b815260206004820152601b60248201527f536166654f776e61626c653a206e6577206f776e6572206973203000000000006044820152606401610983565b8015611921576112fc82612461565b6066805473ffffffffffffffffffffffffffffffffffffffff19166001600160a01b0384161790555050565b61195e611958611e52565b83611f6a565b6119d05760405162461bcd60e51b815260206004820152602e60248201527f4552433732313a2063616c6c6572206973206e6f7420746f6b656e206f776e6560448201527f72206e6f7220617070726f7665640000000000000000000000000000000000006064820152608401610983565b6119dc84848484612771565b50505050565b6119ed6104f9611e52565b15611a3a5760405162461bcd60e51b815260206004820152601c60248201527f503132417263616e613a20616c726561647920686176652070617373000000006044820152606401610983565b611170611a45611e52565b611a4d611e52565b6001600160a01b03166127fa565b6101966000611a68611e52565b6001600160a01b0316815260208101919091526040016000205460ff161515600114611ad65760405162461bcd60e51b815260206004820152601560248201527f503132417263616e613a206e6f74207369676e657200000000000000000000006044820152606401610983565b428111611b255760405162461bcd60e51b815260206004820152601b60248201527f503132417263616e613a206f75746461746564207265717565737400000000006044820152606401610983565b506000918252610197602052604090912055565b6060611b4482611ded565b610193546040517fa2d6c6da000000000000000000000000000000000000000000000000000000008152600481018490526000916001600160a01b03169063a2d6c6da90602401600060405180830381865afa158015611ba8573d6000803e3d6000fd5b505050506040513d6000823e601f3d908101601f19168201604052611bd09190810190613b7f565b90506000611c2b611bdf610838565b610194611beb85612814565b60008881526101976020526040902054611c0490612967565b604051602001611c179493929190613c09565b604051602081830303815290604052612814565b905080604051602001611c3e9190613df9565b60405160208183030381529060405292505050919050565b6101955460ff1615611caa5760405162461bcd60e51b815260206004820152601160248201527f503132417263616e613a206c6f636b65640000000000000000000000000000006044820152606401610983565b611cb2611e52565b6001600160a01b0316611cc484611480565b6001600160a01b031614611d1a5760405162461bcd60e51b815260206004820152601a60248201527f503132417263616e613a206e6f7420746f6b656e206f776e65720000000000006044820152606401610983565b600083815261019860205260409020611d34828483613abe565b507fd807c77e694131b13efb4e48d526bb9799344e7780a6c18320806c49bed73d30838383604051611d6893929190613e3e565b60405180910390a1505050565b611d7e816114e6565b15611dcb5760405162461bcd60e51b815260206004820152601c60248201527f503132417263616e613a20616c726561647920686176652070617373000000006044820152606401610983565b61101481826001600160a01b03166127fa565b6001600160a01b03163b151590565b600081815261012f60205260409020546001600160a01b03166110145760405162461bcd60e51b815260206004820152601860248201527f4552433732313a20696e76616c696420746f6b656e20494400000000000000006044820152606401610983565b6000611e5c612a9c565b905090565b600081815261013160205260409020805473ffffffffffffffffffffffffffffffffffffffff19166001600160a01b0384169081179091558190611ea482611480565b6001600160a01b03167f8c5be1e5ebec7d5bd14f71427d1e84f3dd0314c0f7b2291e5b200ac8c7c3b92560405160405180910390a45050565b6000610832611eea612afe565b836040517f19010000000000000000000000000000000000000000000000000000000000006020820152602281018390526042810182905260009060620160405160208183030381529060405280519060200120905092915050565b6000806000611f558585612b37565b91509150611f6281612b7c565b509392505050565b600080611f7683611480565b9050806001600160a01b0316846001600160a01b03161480611fbe57506001600160a01b038082166000908152610132602090815260408083209388168352929052205460ff165b80611fe25750836001600160a01b0316611fd7846108cb565b6001600160a01b0316145b949350505050565b826001600160a01b0316611ffd82611480565b6001600160a01b0316146120795760405162461bcd60e51b815260206004820152602560248201527f4552433732313a207472616e736665722066726f6d20696e636f72726563742060448201527f6f776e65720000000000000000000000000000000000000000000000000000006064820152608401610983565b6001600160a01b0382166120f45760405162461bcd60e51b8152602060048201526024808201527f4552433732313a207472616e7366657220746f20746865207a65726f2061646460448201527f72657373000000000000000000000000000000000000000000000000000000006064820152608401610983565b6120ff838383612d68565b61210a600082611e61565b6001600160a01b038316600090815261013060205260408120805460019290612134908490613e8a565b90915550506001600160a01b038216600090815261013060205260408120805460019290612163908490613e9d565b9091555050600081815261012f6020526040808220805473ffffffffffffffffffffffffffffffffffffffff19166001600160a01b0386811691821790925591518493918716917fddf252ad1be2c89b69c2b068fc378daa952ba7f163c4a11628f55a4df523b3ef91a4505050565b6121da611e52565b6001600160a01b03166121f56065546001600160a01b031690565b6001600160a01b0316146110145760405162461bcd60e51b815260206004820152601d60248201527f536166654f776e61626c653a2063616c6c6572206e6f74206f776e65720000006044820152606401610983565b7f4910fdfa16fed3260ed0e7147f7cc6da11a60208b5b9406d12a635614ffd91435460ff161561227e57610a3683612dbf565b826001600160a01b03166352d1902d6040518163ffffffff1660e01b8152600401602060405180830381865afa9250505080156122d8575060408051601f3d908101601f191682019092526122d591810190613eb0565b60015b61234a5760405162461bcd60e51b815260206004820152602e60248201527f45524331393637557067726164653a206e657720696d706c656d656e7461746960448201527f6f6e206973206e6f7420555550530000000000000000000000000000000000006064820152608401610983565b7f360894a13ba1a3210667c828492db98dca3e2076cc3735a920a3ca505d382bbc81146123df5760405162461bcd60e51b815260206004820152602960248201527f45524331393637557067726164653a20756e737570706f727465642070726f7860448201527f6961626c655555494400000000000000000000000000000000000000000000006064820152608401610983565b50610a36838383612e8a565b6065546066546040516001600160a01b03928316929091169082907f8be0079c531659141344cd1fd0a4f28419497f9722a3daafe3b4186f6b6457e090600090a350606680546065805473ffffffffffffffffffffffffffffffffffffffff199081166001600160a01b03841617909155169055565b7fb53127684a568b3173ae13b9f8a6016e243e63b6e8ee1178d6a717850b5d6103819055606580546001600160a01b0380841673ffffffffffffffffffffffffffffffffffffffff19831681179093556040519116919082907f8be0079c531659141344cd1fd0a4f28419497f9722a3daafe3b4186f6b6457e090600090a35050565b816001600160a01b0316836001600160a01b0316036125455760405162461bcd60e51b815260206004820152601960248201527f4552433732313a20617070726f766520746f2063616c6c6572000000000000006044820152606401610983565b6001600160a01b0383811660008181526101326020908152604080832094871680845294825291829020805460ff191686151590811790915591519182527f17307eab39ab6107e8899845ad3d59bd9653f200f220920489ca2b5937696c31910160405180910390a3505050565b600054610100900460ff166126305760405162461bcd60e51b815260206004820152602b60248201527f496e697469616c697a61626c653a20636f6e7472616374206973206e6f74206960448201527f6e697469616c697a696e670000000000000000000000000000000000000000006064820152608401610983565b61117061263b611e52565b612461565b600054610100900460ff166126bd5760405162461bcd60e51b815260206004820152602b60248201527f496e697469616c697a61626c653a20636f6e7472616374206973206e6f74206960448201527f6e697469616c697a696e670000000000000000000000000000000000000000006064820152608401610983565b61012d6126ca8382613ec9565b5061012e610a368282613ec9565b600054610100900460ff166127555760405162461bcd60e51b815260206004820152602b60248201527f496e697469616c697a61626c653a20636f6e7472616374206973206e6f74206960448201527f6e697469616c697a696e670000000000000000000000000000000000000000006064820152608401610983565b81516020928301208151919092012061015f9190915561016055565b61277c848484611fea565b61278884848484612eaf565b6119dc5760405162461bcd60e51b815260206004820152603260248201527f4552433732313a207472616e7366657220746f206e6f6e20455243373231526560448201527f63656976657220696d706c656d656e74657200000000000000000000000000006064820152608401610983565b6112fc82826040518060200160405280600081525061303e565b6060815160000361283357505060408051602081019091526000815290565b600060405180606001604052806040815260200161409a60409139905060006003845160026128629190613e9d565b61286c9190613f9f565b612877906004613fb3565b67ffffffffffffffff81111561288f5761288f61372a565b6040519080825280601f01601f1916602001820160405280156128b9576020820181803683370190505b509050600182016020820185865187015b80821015612925576003820191508151603f8160121c168501518453600184019350603f81600c1c168501518453600184019350603f8160061c168501518453600184019350603f81168501518453506001830192506128ca565b505060038651066001811461294157600281146129545761295c565b603d6001830353603d600283035361295c565b603d60018303535b509195945050505050565b6060816000036129aa57505060408051808201909152600181527f3000000000000000000000000000000000000000000000000000000000000000602082015290565b8160005b81156129d457806129be81613fca565b91506129cd9050600a83613f9f565b91506129ae565b60008167ffffffffffffffff8111156129ef576129ef61372a565b6040519080825280601f01601f191660200182016040528015612a19576020820181803683370190505b5090505b8415611fe257612a2e600183613e8a565b9150612a3b600a86613fe4565b612a46906030613e9d565b60f81b818381518110612a5b57612a5b613ff8565b60200101907effffffffffffffffffffffffffffffffffffffffffffffffffffffffffffff1916908160001a905350612a95600a86613f9f565b9450612a1d565b60007f00000000000000000000000000000000000000000000000000000000000000006001600160a01b03163303612af957507fffffffffffffffffffffffffffffffffffffffffffffffffffffffffffffffec36013560601c90565b503390565b6000611e5c7f8b73c3c69bb8fe3d512ecc4cf759cc79239f7b179b0ffacaa9a75d522b39400f612b2e61015f5490565b610160546130c7565b6000808251604103612b6d5760208301516040840151606085015160001a612b6187828585613111565b94509450505050612b75565b506000905060025b9250929050565b6000816004811115612b9057612b9061400e565b03612b985750565b6001816004811115612bac57612bac61400e565b03612bf95760405162461bcd60e51b815260206004820152601860248201527f45434453413a20696e76616c6964207369676e617475726500000000000000006044820152606401610983565b6002816004811115612c0d57612c0d61400e565b03612c5a5760405162461bcd60e51b815260206004820152601f60248201527f45434453413a20696e76616c6964207369676e6174757265206c656e677468006044820152606401610983565b6003816004811115612c6e57612c6e61400e565b03612ce15760405162461bcd60e51b815260206004820152602260248201527f45434453413a20696e76616c6964207369676e6174757265202773272076616c60448201527f75650000000000000000000000000000000000000000000000000000000000006064820152608401610983565b6004816004811115612cf557612cf561400e565b036110145760405162461bcd60e51b815260206004820152602260248201527f45434453413a20696e76616c6964207369676e6174757265202776272076616c60448201527f75650000000000000000000000000000000000000000000000000000000000006064820152608401610983565b6001600160a01b03831615610a365760405162461bcd60e51b815260206004820152601b60248201527f503132417263616e613a2063616e206e6f74207472616e7366657200000000006044820152606401610983565b6001600160a01b0381163b612e3c5760405162461bcd60e51b815260206004820152602d60248201527f455243313936373a206e657720696d706c656d656e746174696f6e206973206e60448201527f6f74206120636f6e7472616374000000000000000000000000000000000000006064820152608401610983565b7f360894a13ba1a3210667c828492db98dca3e2076cc3735a920a3ca505d382bbc805473ffffffffffffffffffffffffffffffffffffffff19166001600160a01b0392909216919091179055565b612e93836131fe565b600082511180612ea05750805b15610a36576119dc838361323e565b60006001600160a01b0384163b1561303357836001600160a01b031663150b7a02612ed8611e52565b8786866040518563ffffffff1660e01b8152600401612efa9493929190614024565b6020604051808303816000875af1925050508015612f35575060408051601f3d908101601f19168201909252612f3291810190614060565b60015b612fe8573d808015612f63576040519150601f19603f3d011682016040523d82523d6000602084013e612f68565b606091505b508051600003612fe05760405162461bcd60e51b815260206004820152603260248201527f4552433732313a207472616e7366657220746f206e6f6e20455243373231526560448201527f63656976657220696d706c656d656e74657200000000000000000000000000006064820152608401610983565b805181602001fd5b7fffffffff00000000000000000000000000000000000000000000000000000000167f150b7a0200000000000000000000000000000000000000000000000000000000149050611fe2565b506001949350505050565b6130488383613349565b6130556000848484612eaf565b610a365760405162461bcd60e51b815260206004820152603260248201527f4552433732313a207472616e7366657220746f206e6f6e20455243373231526560448201527f63656976657220696d706c656d656e74657200000000000000000000000000006064820152608401610983565b6040805160208101859052908101839052606081018290524660808201523060a082015260009060c0016040516020818303038152906040528051906020012090505b9392505050565b6000807f7fffffffffffffffffffffffffffffff5d576e7357a4501ddfe92f46681b20a083111561314857506000905060036131f5565b8460ff16601b1415801561316057508460ff16601c14155b1561317157506000905060046131f5565b6040805160008082526020820180845289905260ff881692820192909252606081018690526080810185905260019060a0016020604051602081039080840390855afa1580156131c5573d6000803e3d6000fd5b5050604051601f1901519150506001600160a01b0381166131ee576000600192509250506131f5565b9150600090505b94509492505050565b61320781612dbf565b6040516001600160a01b038216907fbc7cd75a20ee27fd9adebab32041f755214dbc6bffa90cc0225b39da2e5c2d3b90600090a250565b60606001600160a01b0383163b6132bd5760405162461bcd60e51b815260206004820152602660248201527f416464726573733a2064656c65676174652063616c6c20746f206e6f6e2d636f60448201527f6e747261637400000000000000000000000000000000000000000000000000006064820152608401610983565b600080846001600160a01b0316846040516132d8919061407d565b600060405180830381855af49150503d8060008114613313576040519150601f19603f3d011682016040523d82523d6000602084013e613318565b606091505b509150915061334082826040518060600160405280602781526020016140da602791396134a7565b95945050505050565b6001600160a01b03821661339f5760405162461bcd60e51b815260206004820181905260248201527f4552433732313a206d696e7420746f20746865207a65726f20616464726573736044820152606401610983565b600081815261012f60205260409020546001600160a01b0316156134055760405162461bcd60e51b815260206004820152601c60248201527f4552433732313a20746f6b656e20616c7265616479206d696e746564000000006044820152606401610983565b61341160008383612d68565b6001600160a01b03821660009081526101306020526040812080546001929061343b908490613e9d565b9091555050600081815261012f6020526040808220805473ffffffffffffffffffffffffffffffffffffffff19166001600160a01b03861690811790915590518392907fddf252ad1be2c89b69c2b068fc378daa952ba7f163c4a11628f55a4df523b3ef908290a45050565b606083156134b657508161310a565b8251156134c65782518084602001fd5b8160405162461bcd60e51b8152600401610983919061357b565b7fffffffff000000000000000000000000000000000000000000000000000000008116811461101457600080fd5b60006020828403121561352057600080fd5b813561310a816134e0565b60005b8381101561354657818101518382015260200161352e565b50506000910152565b6000815180845261356781602086016020860161352b565b601f01601f19169290920160200192915050565b60208152600061310a602083018461354f565b6000602082840312156135a057600080fd5b5035919050565b80356001600160a01b03811681146135be57600080fd5b919050565b600080604083850312156135d657600080fd5b6135df836135a7565b946020939093013593505050565b60008083601f8401126135ff57600080fd5b50813567ffffffffffffffff81111561361757600080fd5b602083019150836020828501011115612b7557600080fd5b60008060008060006080868803121561364757600080fd5b853594506020860135935060408601359250606086013567ffffffffffffffff81111561367357600080fd5b61367f888289016135ed565b969995985093965092949392505050565b6000806000606084860312156136a557600080fd5b6136ae846135a7565b92506136bc602085016135a7565b9150604084013590509250925092565b803580151581146135be57600080fd5b600080604083850312156136ef57600080fd5b6136f8836135a7565b9150613706602084016136cc565b90509250929050565b60006020828403121561372157600080fd5b61310a826135a7565b634e487b7160e01b600052604160045260246000fd5b604051601f8201601f1916810167ffffffffffffffff811182821017156137695761376961372a565b604052919050565b600067ffffffffffffffff82111561378b5761378b61372a565b50601f01601f191660200190565b600082601f8301126137aa57600080fd5b81356137bd6137b882613771565b613740565b8181528460208386010111156137d257600080fd5b816020850160208301376000918101602001919091529392505050565b6000806040838503121561380257600080fd5b61380b836135a7565b9150602083013567ffffffffffffffff81111561382757600080fd5b61383385828601613799565b9150509250929050565b60006020828403121561384f57600080fd5b61310a826136cc565b6000806000806000806000806080898b03121561387457600080fd5b883567ffffffffffffffff8082111561388c57600080fd5b6138988c838d016135ed565b909a50985060208b01359150808211156138b157600080fd5b6138bd8c838d016135ed565b909850965060408b01359150808211156138d657600080fd5b6138e28c838d016135ed565b909650945060608b01359150808211156138fb57600080fd5b506139088b828c016135ed565b999c989b5096995094979396929594505050565b6000806000806080858703121561393257600080fd5b61393b856135a7565b9350613949602086016135a7565b925060408501359150606085013567ffffffffffffffff81111561396c57600080fd5b61397887828801613799565b91505092959194509250565b60008060006060848603121561399957600080fd5b505081359360208301359350604090920135919050565b6000806000604084860312156139c557600080fd5b83359250602084013567ffffffffffffffff8111156139e357600080fd5b6139ef868287016135ed565b9497909650939450505050565b60008060408385031215613a0f57600080fd5b613a18836135a7565b9150613706602084016135a7565b600181811c90821680613a3a57607f821691505b602082108103613a5a57634e487b7160e01b600052602260045260246000fd5b50919050565b8183823760009101908152919050565b601f821115610a3657600081815260208120601f850160051c81016020861015613a975750805b601f850160051c820191505b81811015613ab657828155600101613aa3565b505050505050565b67ffffffffffffffff831115613ad657613ad661372a565b613aea83613ae48354613a26565b83613a70565b6000601f841160018114613b1e5760008515613b065750838201355b600019600387901b1c1916600186901b178355613b78565b600083815260209020601f19861690835b82811015613b4f5786850135825560209485019460019092019101613b2f565b5086821015613b6c5760001960f88860031b161c19848701351681555b505060018560011b0183555b5050505050565b600060208284031215613b9157600080fd5b815167ffffffffffffffff811115613ba857600080fd5b8201601f81018413613bb957600080fd5b8051613bc76137b882613771565b818152856020838501011115613bdc57600080fd5b61334082602083016020860161352b565b60008151613bff81856020860161352b565b9290920192915050565b7f7b226e616d65223a2022000000000000000000000000000000000000000000008152600085516020613c4282600a8601838b0161352b565b81840191507f222c226465736372697074696f6e223a22000000000000000000000000000000600a830152601b60008854613c7c81613a26565b60018281168015613c945760018114613cad57613cdd565b60ff198416868901528583151584028901019450613cdd565b8c6000528660002060005b84811015613cd35781548a8201890152908301908801613cb8565b5050858389010194505b50505050613d0a817f222c22696d616765223a220000000000000000000000000000000000000000009052565b7f646174613a696d6167652f7376672b786d6c3b6261736536342c000000000000600b820152613dbe613db8613d43602584018b613bed565b7f222c2261747472696275746573223a205b7b22646973706c61795f747970652281527f3a20226e756d626572222c2274726169745f74797065223a2022706f7765722260208201527f2c2276616c7565223a20000000000000000000000000000000000000000000006040820152604a0190565b88613bed565b9350505050613dec817f7d5d7d00000000000000000000000000000000000000000000000000000000009052565b6003019695505050505050565b7f646174613a6170706c69636174696f6e2f6a736f6e3b6261736536342c000000815260008251613e3181601d85016020870161352b565b91909101601d0192915050565b83815260406020820152816040820152818360608301376000818301606090810191909152601f909201601f1916010192915050565b634e487b7160e01b600052601160045260246000fd5b8181038181111561083257610832613e74565b8082018082111561083257610832613e74565b600060208284031215613ec257600080fd5b5051919050565b815167ffffffffffffffff811115613ee357613ee361372a565b613ef781613ef18454613a26565b84613a70565b602080601f831160018114613f2c5760008415613f145750858301515b600019600386901b1c1916600185901b178555613ab6565b600085815260208120601f198616915b82811015613f5b57888601518255948401946001909101908401613f3c565b5085821015613f795787850151600019600388901b60f8161c191681555b5050505050600190811b01905550565b634e487b7160e01b600052601260045260246000fd5b600082613fae57613fae613f89565b500490565b808202811582820484141761083257610832613e74565b60006000198203613fdd57613fdd613e74565b5060010190565b600082613ff357613ff3613f89565b500690565b634e487b7160e01b600052603260045260246000fd5b634e487b7160e01b600052602160045260246000fd5b60006001600160a01b03808716835280861660208401525083604083015260806060830152614056608083018461354f565b9695505050505050565b60006020828403121561407257600080fd5b815161310a816134e0565b6000825161408f81846020870161352b565b919091019291505056fe4142434445464748494a4b4c4d4e4f505152535455565758595a6162636465666768696a6b6c6d6e6f707172737475767778797a303132333435363738392b2f416464726573733a206c6f772d6c6576656c2064656c65676174652063616c6c206661696c6564a26469706673582212200657ffc447f5d11dd55221023ce061a7ee6d33918c130416b28b492215e430d664736f6c63430008110033",
  "devdoc": {
    "kind": "dev",
    "methods": {
      "approve(address,uint256)": {
        "details": "See {IERC721-approve}."
      },
      "balanceOf(address)": {
        "details": "See {IERC721-balanceOf}."
      },
      "claimOwnership()": {
        "details": "pending owner call this function to claim ownership"
      },
      "getApproved(uint256)": {
        "details": "See {IERC721-getApproved}."
      },
      "isApprovedForAll(address,address)": {
        "details": "See {IERC721-isApprovedForAll}."
      },
      "name()": {
        "details": "See {IERC721Metadata-name}."
      },
      "owner()": {
        "details": "Returns the address of the current owner."
      },
      "ownerOf(uint256)": {
        "details": "See {IERC721-ownerOf}."
      },
      "pendingOwner()": {
        "details": "Return the address of the pending owner"
      },
      "proxiableUUID()": {
        "details": "Implementation of the ERC1822 {proxiableUUID} function. This returns the storage slot used by the implementation. It is used to validate that the this implementation remains valid after an upgrade. IMPORTANT: A proxy pointing at a proxiable contract should not be considered proxiable itself, because this risks bricking a proxy that upgrades to it, by delegating to itself until out of gas. Thus it is critical that this function revert if invoked through a proxy. This is guaranteed by the `notDelegated` modifier."
      },
      "renounceOwnership()": {
        "details": "Leaves the contract without owner. It will not be possible to call `onlyOwner` functions anymore. Can only be called by the current owner. NOTE: Renouncing ownership will leave the contract without an owner, thereby removing any functionality that is only available to the owner."
      },
      "safeTransferFrom(address,address,uint256)": {
        "details": "See {IERC721-safeTransferFrom}."
      },
      "safeTransferFrom(address,address,uint256,bytes)": {
        "details": "See {IERC721-safeTransferFrom}."
      },
      "setApprovalForAll(address,bool)": {
        "details": "See {IERC721-setApprovalForAll}."
      },
      "supportsInterface(bytes4)": {
        "details": "See {IERC165-supportsInterface}."
      },
      "symbol()": {
        "details": "See {IERC721Metadata-symbol}."
      },
      "tokenURI(uint256)": {
        "details": "See {IERC721Metadata-tokenURI}."
      },
      "transferFrom(address,address,uint256)": {
        "details": "See {IERC721-transferFrom}."
      },
      "transferOwnership(address,bool)": {
        "details": "Transfers ownership of the contract to a new account (`newOwner`). Can only be called by the current owner. Note If direct is false, it will set an pending owner and the OwnerShipTransferring only happens when the pending owner claim the ownership"
      },
      "upgradeTo(address)": {
        "details": "Upgrade the implementation of the proxy to `newImplementation`. Calls {_authorizeUpgrade}. Emits an {Upgraded} event."
      },
      "upgradeToAndCall(address,bytes)": {
        "details": "Upgrade the implementation of the proxy to `newImplementation`, and subsequently execute the function call encoded in `data`. Calls {_authorizeUpgrade}. Emits an {Upgraded} event."
      }
    },
    "version": 1
  },
  "userdoc": {
    "kind": "user",
    "methods": {},
    "version": 1
  },
  "storageLayout": {
    "storage": [
      {
        "astId": 482,
        "contract": "contracts/P12ArcanaUpgradable.sol:P12ArcanaUpgradable",
        "label": "_initialized",
        "offset": 0,
        "slot": "0",
        "type": "t_uint8"
      },
      {
        "astId": 485,
        "contract": "contracts/P12ArcanaUpgradable.sol:P12ArcanaUpgradable",
        "label": "_initializing",
        "offset": 1,
        "slot": "0",
        "type": "t_bool"
      },
      {
        "astId": 2099,
        "contract": "contracts/P12ArcanaUpgradable.sol:P12ArcanaUpgradable",
        "label": "__gap",
        "offset": 0,
        "slot": "1",
        "type": "t_array(t_uint256)50_storage"
      },
      {
        "astId": 95,
        "contract": "contracts/P12ArcanaUpgradable.sol:P12ArcanaUpgradable",
        "label": "__gap",
        "offset": 0,
        "slot": "51",
        "type": "t_array(t_uint256)50_storage"
      },
      {
        "astId": 3980,
        "contract": "contracts/P12ArcanaUpgradable.sol:P12ArcanaUpgradable",
        "label": "_owner",
        "offset": 0,
        "slot": "101",
        "type": "t_address"
      },
      {
        "astId": 3982,
        "contract": "contracts/P12ArcanaUpgradable.sol:P12ArcanaUpgradable",
        "label": "_pendingOwner",
        "offset": 0,
        "slot": "102",
        "type": "t_address"
      },
      {
        "astId": 4166,
        "contract": "contracts/P12ArcanaUpgradable.sol:P12ArcanaUpgradable",
        "label": "__gap",
        "offset": 0,
        "slot": "103",
        "type": "t_array(t_uint256)48_storage"
      },
      {
        "astId": 464,
        "contract": "contracts/P12ArcanaUpgradable.sol:P12ArcanaUpgradable",
        "label": "__gap",
        "offset": 0,
        "slot": "151",
        "type": "t_array(t_uint256)50_storage"
      },
      {
        "astId": 761,
        "contract": "contracts/P12ArcanaUpgradable.sol:P12ArcanaUpgradable",
        "label": "__gap",
        "offset": 0,
        "slot": "201",
        "type": "t_array(t_uint256)50_storage"
      },
      {
        "astId": 2967,
        "contract": "contracts/P12ArcanaUpgradable.sol:P12ArcanaUpgradable",
        "label": "__gap",
        "offset": 0,
        "slot": "251",
        "type": "t_array(t_uint256)50_storage"
      },
      {
        "astId": 791,
        "contract": "contracts/P12ArcanaUpgradable.sol:P12ArcanaUpgradable",
        "label": "_name",
        "offset": 0,
        "slot": "301",
        "type": "t_string_storage"
      },
      {
        "astId": 793,
        "contract": "contracts/P12ArcanaUpgradable.sol:P12ArcanaUpgradable",
        "label": "_symbol",
        "offset": 0,
        "slot": "302",
        "type": "t_string_storage"
      },
      {
        "astId": 797,
        "contract": "contracts/P12ArcanaUpgradable.sol:P12ArcanaUpgradable",
        "label": "_owners",
        "offset": 0,
        "slot": "303",
        "type": "t_mapping(t_uint256,t_address)"
      },
      {
        "astId": 801,
        "contract": "contracts/P12ArcanaUpgradable.sol:P12ArcanaUpgradable",
        "label": "_balances",
        "offset": 0,
        "slot": "304",
        "type": "t_mapping(t_address,t_uint256)"
      },
      {
        "astId": 805,
        "contract": "contracts/P12ArcanaUpgradable.sol:P12ArcanaUpgradable",
        "label": "_tokenApprovals",
        "offset": 0,
        "slot": "305",
        "type": "t_mapping(t_uint256,t_address)"
      },
      {
        "astId": 811,
        "contract": "contracts/P12ArcanaUpgradable.sol:P12ArcanaUpgradable",
        "label": "_operatorApprovals",
        "offset": 0,
        "slot": "306",
        "type": "t_mapping(t_address,t_mapping(t_address,t_bool))"
      },
      {
        "astId": 1653,
        "contract": "contracts/P12ArcanaUpgradable.sol:P12ArcanaUpgradable",
        "label": "__gap",
        "offset": 0,
        "slot": "307",
        "type": "t_array(t_uint256)44_storage"
      },
      {
        "astId": 2783,
        "contract": "contracts/P12ArcanaUpgradable.sol:P12ArcanaUpgradable",
        "label": "_HASHED_NAME",
        "offset": 0,
        "slot": "351",
        "type": "t_bytes32"
      },
      {
        "astId": 2785,
        "contract": "contracts/P12ArcanaUpgradable.sol:P12ArcanaUpgradable",
        "label": "_HASHED_VERSION",
        "offset": 0,
        "slot": "352",
        "type": "t_bytes32"
      },
      {
        "astId": 2923,
        "contract": "contracts/P12ArcanaUpgradable.sol:P12ArcanaUpgradable",
        "label": "__gap",
        "offset": 0,
        "slot": "353",
        "type": "t_array(t_uint256)50_storage"
      },
      {
        "astId": 4207,
        "contract": "contracts/P12ArcanaUpgradable.sol:P12ArcanaUpgradable",
        "label": "renderEngine",
        "offset": 0,
        "slot": "403",
        "type": "t_address"
      },
      {
        "astId": 4209,
        "contract": "contracts/P12ArcanaUpgradable.sol:P12ArcanaUpgradable",
        "label": "_description",
        "offset": 0,
        "slot": "404",
        "type": "t_string_storage"
      },
      {
        "astId": 4211,
        "contract": "contracts/P12ArcanaUpgradable.sol:P12ArcanaUpgradable",
        "label": "_lock",
        "offset": 0,
        "slot": "405",
        "type": "t_bool"
      },
      {
        "astId": 4215,
        "contract": "contracts/P12ArcanaUpgradable.sol:P12ArcanaUpgradable",
        "label": "signers",
        "offset": 0,
        "slot": "406",
        "type": "t_mapping(t_address,t_bool)"
      },
      {
        "astId": 4219,
        "contract": "contracts/P12ArcanaUpgradable.sol:P12ArcanaUpgradable",
        "label": "_powers",
        "offset": 0,
        "slot": "407",
        "type": "t_mapping(t_uint256,t_uint256)"
      },
      {
        "astId": 4223,
        "contract": "contracts/P12ArcanaUpgradable.sol:P12ArcanaUpgradable",
        "label": "answersUri",
        "offset": 0,
        "slot": "408",
        "type": "t_mapping(t_uint256,t_string_storage)"
      },
      {
        "astId": 4227,
        "contract": "contracts/P12ArcanaUpgradable.sol:P12ArcanaUpgradable",
        "label": "signatureUsed",
        "offset": 0,
        "slot": "409",
        "type": "t_mapping(t_bytes32,t_bool)"
      }
    ],
    "types": {
      "t_address": {
        "encoding": "inplace",
        "label": "address",
        "numberOfBytes": "20"
      },
      "t_array(t_uint256)44_storage": {
        "base": "t_uint256",
        "encoding": "inplace",
        "label": "uint256[44]",
        "numberOfBytes": "1408"
      },
      "t_array(t_uint256)48_storage": {
        "base": "t_uint256",
        "encoding": "inplace",
        "label": "uint256[48]",
        "numberOfBytes": "1536"
      },
      "t_array(t_uint256)50_storage": {
        "base": "t_uint256",
        "encoding": "inplace",
        "label": "uint256[50]",
        "numberOfBytes": "1600"
      },
      "t_bool": {
        "encoding": "inplace",
        "label": "bool",
        "numberOfBytes": "1"
      },
      "t_bytes32": {
        "encoding": "inplace",
        "label": "bytes32",
        "numberOfBytes": "32"
      },
      "t_mapping(t_address,t_bool)": {
        "encoding": "mapping",
        "key": "t_address",
        "label": "mapping(address => bool)",
        "numberOfBytes": "32",
        "value": "t_bool"
      },
      "t_mapping(t_address,t_mapping(t_address,t_bool))": {
        "encoding": "mapping",
        "key": "t_address",
        "label": "mapping(address => mapping(address => bool))",
        "numberOfBytes": "32",
        "value": "t_mapping(t_address,t_bool)"
      },
      "t_mapping(t_address,t_uint256)": {
        "encoding": "mapping",
        "key": "t_address",
        "label": "mapping(address => uint256)",
        "numberOfBytes": "32",
        "value": "t_uint256"
      },
      "t_mapping(t_bytes32,t_bool)": {
        "encoding": "mapping",
        "key": "t_bytes32",
        "label": "mapping(bytes32 => bool)",
        "numberOfBytes": "32",
        "value": "t_bool"
      },
      "t_mapping(t_uint256,t_address)": {
        "encoding": "mapping",
        "key": "t_uint256",
        "label": "mapping(uint256 => address)",
        "numberOfBytes": "32",
        "value": "t_address"
      },
      "t_mapping(t_uint256,t_string_storage)": {
        "encoding": "mapping",
        "key": "t_uint256",
        "label": "mapping(uint256 => string)",
        "numberOfBytes": "32",
        "value": "t_string_storage"
      },
      "t_mapping(t_uint256,t_uint256)": {
        "encoding": "mapping",
        "key": "t_uint256",
        "label": "mapping(uint256 => uint256)",
        "numberOfBytes": "32",
        "value": "t_uint256"
      },
      "t_string_storage": {
        "encoding": "bytes",
        "label": "string",
        "numberOfBytes": "32"
      },
      "t_uint256": {
        "encoding": "inplace",
        "label": "uint256",
        "numberOfBytes": "32"
      },
      "t_uint8": {
        "encoding": "inplace",
        "label": "uint8",
        "numberOfBytes": "1"
      }
    }
  }
}