{
  "address": "0xFE657a3B05eABb062C9dF2d34f1bb2001425730d",
  "abi": [
    {
      "inputs": [
        {
          "internalType": "address",
          "name": "owner_",
          "type": "address"
        }
      ],
      "stateMutability": "nonpayable",
      "type": "constructor"
    },
    {
      "anonymous": false,
      "inputs": [
        {
          "indexed": true,
          "internalType": "address",
          "name": "claimant",
          "type": "address"
        },
        {
          "indexed": false,
          "internalType": "uint256",
          "name": "amount",
          "type": "uint256"
        }
      ],
      "name": "Claim",
      "type": "event"
    },
    {
      "anonymous": false,
      "inputs": [
        {
          "indexed": false,
          "internalType": "uint256",
          "name": "claimPeriodEnds",
          "type": "uint256"
        }
      ],
      "name": "ClaimPeriodEndsChanged",
      "type": "event"
    },
    {
      "anonymous": false,
      "inputs": [
        {
          "indexed": false,
          "internalType": "uint8",
          "name": "version",
          "type": "uint8"
        }
      ],
      "name": "Initialized",
      "type": "event"
    },
    {
      "anonymous": false,
      "inputs": [
        {
          "indexed": false,
          "internalType": "bytes32",
          "name": "merkleRoot",
          "type": "bytes32"
        }
      ],
      "name": "MerkleRootChanged",
      "type": "event"
    },
    {
      "anonymous": false,
      "inputs": [
        {
          "indexed": true,
          "internalType": "address",
          "name": "previousOwner",
          "type": "address"
        },
        {
          "indexed": true,
          "internalType": "address",
          "name": "newOwner",
          "type": "address"
        }
      ],
      "name": "OwnershipTransferred",
      "type": "event"
    },
    {
      "anonymous": false,
      "inputs": [
        {
          "indexed": false,
          "internalType": "contract IERC20",
          "name": "rewardToken",
          "type": "address"
        }
      ],
      "name": "RewardTokenSet",
      "type": "event"
    },
    {
      "anonymous": false,
      "inputs": [
        {
          "indexed": false,
          "internalType": "address",
          "name": "dest",
          "type": "address"
        },
        {
          "indexed": false,
          "internalType": "uint256",
          "name": "amount",
          "type": "uint256"
        }
      ],
      "name": "WithDrawn",
      "type": "event"
    },
    {
      "inputs": [],
      "name": "claimOwnership",
      "outputs": [],
      "stateMutability": "nonpayable",
      "type": "function"
    },
    {
      "inputs": [],
      "name": "claimPeriodEnds",
      "outputs": [
        {
          "internalType": "uint256",
          "name": "",
          "type": "uint256"
        }
      ],
      "stateMutability": "view",
      "type": "function"
    },
    {
      "inputs": [
        {
          "internalType": "uint256",
          "name": "amount",
          "type": "uint256"
        },
        {
          "internalType": "bytes32[]",
          "name": "merkleProof",
          "type": "bytes32[]"
        }
      ],
      "name": "claimTokens",
      "outputs": [],
      "stateMutability": "nonpayable",
      "type": "function"
    },
    {
      "inputs": [
        {
          "internalType": "uint256",
          "name": "amount",
          "type": "uint256"
        }
      ],
      "name": "deposit",
      "outputs": [],
      "stateMutability": "nonpayable",
      "type": "function"
    },
    {
      "inputs": [
        {
          "internalType": "contract IERC20",
          "name": "rewardToken_",
          "type": "address"
        }
      ],
      "name": "initialize",
      "outputs": [],
      "stateMutability": "nonpayable",
      "type": "function"
    },
    {
      "inputs": [
        {
          "internalType": "uint256",
          "name": "index",
          "type": "uint256"
        }
      ],
      "name": "isClaimed",
      "outputs": [
        {
          "internalType": "bool",
          "name": "",
          "type": "bool"
        }
      ],
      "stateMutability": "view",
      "type": "function"
    },
    {
      "inputs": [],
      "name": "merkleRoot",
      "outputs": [
        {
          "internalType": "bytes32",
          "name": "",
          "type": "bytes32"
        }
      ],
      "stateMutability": "view",
      "type": "function"
    },
    {
      "inputs": [],
      "name": "owner",
      "outputs": [
        {
          "internalType": "address",
          "name": "",
          "type": "address"
        }
      ],
      "stateMutability": "view",
      "type": "function"
    },
    {
      "inputs": [],
      "name": "pendingOwner",
      "outputs": [
        {
          "internalType": "address",
          "name": "",
          "type": "address"
        }
      ],
      "stateMutability": "view",
      "type": "function"
    },
    {
      "inputs": [],
      "name": "renounceOwnership",
      "outputs": [],
      "stateMutability": "nonpayable",
      "type": "function"
    },
    {
      "inputs": [],
      "name": "rewardToken",
      "outputs": [
        {
          "internalType": "contract IERC20",
          "name": "",
          "type": "address"
        }
      ],
      "stateMutability": "view",
      "type": "function"
    },
    {
      "inputs": [
        {
          "internalType": "uint256",
          "name": "claimPeriodEnds_",
          "type": "uint256"
        }
      ],
      "name": "setClaimPeriodEnds",
      "outputs": [],
      "stateMutability": "nonpayable",
      "type": "function"
    },
    {
      "inputs": [
        {
          "internalType": "bytes32",
          "name": "newMerkleRoot",
          "type": "bytes32"
        }
      ],
      "name": "setMerkleRoot",
      "outputs": [],
      "stateMutability": "nonpayable",
      "type": "function"
    },
    {
      "inputs": [
        {
          "internalType": "address",
          "name": "newOwner",
          "type": "address"
        },
        {
          "internalType": "bool",
          "name": "direct",
          "type": "bool"
        }
      ],
      "name": "transferOwnership",
      "outputs": [],
      "stateMutability": "nonpayable",
      "type": "function"
    },
    {
      "inputs": [],
      "name": "withdraw",
      "outputs": [],
      "stateMutability": "nonpayable",
      "type": "function"
    }
  ],
  "transactionHash": "0xc87eb9e7ff81820cb03e8ce24263af0a1e8c035d9c8e20f70f8800db5bf28af4",
  "args": [
    "0xe0B4c9C36f5A5D0Ff3A547FeaBB6BC9Ba65805F2"
  ],
  "numDeployments": 2,
  "solcInputHash": "cf13e5c50d962dce9012a762756d63b1",
  "bytecode": "0x608060405234801561001057600080fd5b506040516114b43803806114b483398101604081905261002f91610097565b61003833610047565b61004181610047565b506100c7565b600080546001600160a01b038381166001600160a01b0319831681178455604051919092169283917f8be0079c531659141344cd1fd0a4f28419497f9722a3daafe3b4186f6b6457e09190a35050565b6000602082840312156100a957600080fd5b81516001600160a01b03811681146100c057600080fd5b9392505050565b6113de806100d66000396000f3fe608060405234801561001057600080fd5b50600436106100f55760003560e01c80638da5cb5b11610097578063b6b55f2511610066578063b6b55f25146101ec578063c4d66de8146101ff578063e30c397814610212578063f7c618c11461022357600080fd5b80638da5cb5b1461015f5780639a114cb2146101845780639e34070f14610197578063b242e534146101d957600080fd5b80634e71e0c8116100d35780634e71e0c81461013357806366deac471461013b578063715018a6146101445780637cb647591461014c57600080fd5b80632503c057146100fa5780632eb4a7ab1461010f5780633ccfd60b1461012b575b600080fd5b61010d610108366004611160565b610236565b005b61011860025481565b6040519081526020015b60405180910390f35b61010d6102d1565b61010d610429565b61011860045481565b61010d61048d565b61010d61015a366004611160565b6104f1565b6000546001600160a01b03165b6040516001600160a01b039091168152602001610122565b61010d610192366004611179565b6105d0565b6101c96101a5366004611160565b600881901c600090815260056020526040812054600160ff84161b16151592915050565b6040519015158152602001610122565b61010d6101e736600461121b565b6108e2565b61010d6101fa366004611160565b6109d1565b61010d61020d366004611254565b6109ec565b6001546001600160a01b031661016c565b60035461016c906001600160a01b031681565b6000546001600160a01b031633146102955760405162461bcd60e51b815260206004820152601d60248201527f536166654f776e61626c653a2063616c6c6572206e6f74206f776e657200000060448201526064015b60405180910390fd5b60048190556040518181527f15671967934582a50a78abf9731094ac6d395d1f9a63f2f4675748b1b121882b906020015b60405180910390a150565b6000546001600160a01b0316331461032b5760405162461bcd60e51b815260206004820152601d60248201527f536166654f776e61626c653a2063616c6c6572206e6f74206f776e6572000000604482015260640161028c565b6003546040517f70a082310000000000000000000000000000000000000000000000000000000081523060048201526000916001600160a01b0316906370a0823190602401602060405180830381865afa15801561038d573d6000803e3d6000fd5b505050506040513d601f19601f820116820180604052508101906103b19190611271565b6003549091506103df906001600160a01b031673618bb5466c13747049af8f3b237f929c95de5d7e83610c7b565b6040805173618bb5466c13747049af8f3b237f929c95de5d7e8152602081018390527fec02563a2a279255d98a8379169a934c5dd4fb9f242313e6dd68269cf2d7046891016102c6565b6001546001600160a01b031633146104835760405162461bcd60e51b815260206004820152601e60248201527f536166654f776e61626c653a2063616c6c657220213d2070656e64696e670000604482015260640161028c565b61048b610d29565b565b6000546001600160a01b031633146104e75760405162461bcd60e51b815260206004820152601d60248201527f536166654f776e61626c653a2063616c6c6572206e6f74206f776e6572000000604482015260640161028c565b61048b6000610d9e565b6000546001600160a01b0316331461054b5760405162461bcd60e51b815260206004820152601d60248201527f536166654f776e61626c653a2063616c6c6572206e6f74206f776e6572000000604482015260640161028c565b6002541561059b5760405162461bcd60e51b815260206004820181905260248201527f503132417263616e613a2063616e6e6f742073657420726f6f74207477696365604482015260640161028c565b60028190556040518181527f1b930366dfeaa7eb3b325021e4ae81e36527063452ee55b86c95f85b36f4c31c906020016102c6565b60045442106106215760405162461bcd60e51b815260206004820152601c60248201527f503132417263616e613a206e6f742074696d6520746f20636c61696d00000000604482015260640161028c565b6003546040517f70a082310000000000000000000000000000000000000000000000000000000081523060048201526001600160a01b03909116906370a0823190602401602060405180830381865afa158015610682573d6000803e3d6000fd5b505050506040513d601f19601f820116820180604052508101906106a69190611271565b8311156106f55760405162461bcd60e51b815260206004820152601a60248201527f503132417263616e613a20657863656564732062616c616e6365000000000000604482015260640161028c565b6040517fffffffffffffffffffffffffffffffffffffffff0000000000000000000000003360601b16602082015260348101849052600090605401604051602081830303815290604052805190602001209050600061078b848480806020026020016040519081016040528093929190818152602001838360200280828437600092019190915250506002549150859050610dfb565b9050806107da5760405162461bcd60e51b815260206004820152601860248201527f503132417263616e613a20696e76616c69642070726f6f660000000000000000604482015260640161028c565b61080233600881901c600090815260056020526040812054600160ff84161b16151592915050565b1561084f5760405162461bcd60e51b815260206004820152601a60248201527f503132417263616e613a20616c726561647920636c61696d6564000000000000604482015260640161028c565b61088f3372ffffffffffffffffffffffffffffffffffffff600882901c1660009081526005602052604090208054600160ff9093169290921b9091179055565b6003546108a6906001600160a01b03163387610c7b565b60405185815233907f47cee97cb7acd717b3c0aa1435d004cd5b3c8c57d70dbceb4e4458bbd60e39d49060200160405180910390a25050505050565b6000546001600160a01b0316331461093c5760405162461bcd60e51b815260206004820152601d60248201527f536166654f776e61626c653a2063616c6c6572206e6f74206f776e6572000000604482015260640161028c565b6001600160a01b0382166109925760405162461bcd60e51b815260206004820152601b60248201527f536166654f776e61626c653a206e6577206f776e657220697320300000000000604482015260640161028c565b80156109a5576109a182610d9e565b5050565b6001805473ffffffffffffffffffffffffffffffffffffffff19166001600160a01b0384161790555050565b6003546109e9906001600160a01b0316333084610e13565b50565b6001547501000000000000000000000000000000000000000000900460ff1615808015610a3557506001805474010000000000000000000000000000000000000000900460ff16105b80610a665750303b158015610a6657506001805474010000000000000000000000000000000000000000900460ff16145b610ad85760405162461bcd60e51b815260206004820152602e60248201527f496e697469616c697a61626c653a20636f6e747261637420697320616c72656160448201527f647920696e697469616c697a6564000000000000000000000000000000000000606482015260840161028c565b600180547fffffffffffffffffffffff00ffffffffffffffffffffffffffffffffffffffff16740100000000000000000000000000000000000000001790558015610b5e57600180547fffffffffffffffffffff00ffffffffffffffffffffffffffffffffffffffffff1675010000000000000000000000000000000000000000001790555b6000546001600160a01b03163314610bb85760405162461bcd60e51b815260206004820152601d60248201527f536166654f776e61626c653a2063616c6c6572206e6f74206f776e6572000000604482015260640161028c565b6003805473ffffffffffffffffffffffffffffffffffffffff19166001600160a01b0384169081179091556040519081527f2d6b04df9b7d358407d1a014f1114b064add34c19d63d395db155a7e533e967a9060200160405180910390a180156109a157600180547fffffffffffffffffffff00ffffffffffffffffffffffffffffffffffffffffff1681556040519081527f7f26b83ff96e1f2b6a682f133852f6798a09c465da95921460cefb38474024989060200160405180910390a15050565b6040516001600160a01b038316602482015260448101829052610d249084907fa9059cbb00000000000000000000000000000000000000000000000000000000906064015b60408051601f198184030181529190526020810180517bffffffffffffffffffffffffffffffffffffffffffffffffffffffff167fffffffff0000000000000000000000000000000000000000000000000000000090931692909217909152610e6a565b505050565b600080546001546040516001600160a01b0392831693919092169183917f8be0079c531659141344cd1fd0a4f28419497f9722a3daafe3b4186f6b6457e091a350600180546000805473ffffffffffffffffffffffffffffffffffffffff199081166001600160a01b03841617909155169055565b600080546001600160a01b0383811673ffffffffffffffffffffffffffffffffffffffff19831681178455604051919092169283917f8be0079c531659141344cd1fd0a4f28419497f9722a3daafe3b4186f6b6457e09190a35050565b600082610e088584610f4f565b1490505b9392505050565b6040516001600160a01b0380851660248301528316604482015260648101829052610e649085907f23b872dd0000000000000000000000000000000000000000000000000000000090608401610cc0565b50505050565b6000610ebf826040518060400160405280602081526020017f5361666545524332303a206c6f772d6c6576656c2063616c6c206661696c6564815250856001600160a01b0316610f9c9092919063ffffffff16565b805190915015610d245780806020019051810190610edd919061128a565b610d245760405162461bcd60e51b815260206004820152602a60248201527f5361666545524332303a204552433230206f7065726174696f6e20646964206e60448201527f6f74207375636365656400000000000000000000000000000000000000000000606482015260840161028c565b600081815b8451811015610f9457610f8082868381518110610f7357610f736112a7565b6020026020010151610fb3565b915080610f8c816112d6565b915050610f54565b509392505050565b6060610fab8484600085610fdf565b949350505050565b6000818310610fcf576000828152602084905260409020610e0c565b5060009182526020526040902090565b6060824710156110575760405162461bcd60e51b815260206004820152602660248201527f416464726573733a20696e73756666696369656e742062616c616e636520666f60448201527f722063616c6c0000000000000000000000000000000000000000000000000000606482015260840161028c565b6001600160a01b0385163b6110ae5760405162461bcd60e51b815260206004820152601d60248201527f416464726573733a2063616c6c20746f206e6f6e2d636f6e7472616374000000604482015260640161028c565b600080866001600160a01b031685876040516110ca9190611359565b60006040518083038185875af1925050503d8060008114611107576040519150601f19603f3d011682016040523d82523d6000602084013e61110c565b606091505b509150915061111c828286611127565b979650505050505050565b60608315611136575081610e0c565b8251156111465782518084602001fd5b8160405162461bcd60e51b815260040161028c9190611375565b60006020828403121561117257600080fd5b5035919050565b60008060006040848603121561118e57600080fd5b83359250602084013567ffffffffffffffff808211156111ad57600080fd5b818601915086601f8301126111c157600080fd5b8135818111156111d057600080fd5b8760208260051b85010111156111e557600080fd5b6020830194508093505050509250925092565b6001600160a01b03811681146109e957600080fd5b80151581146109e957600080fd5b6000806040838503121561122e57600080fd5b8235611239816111f8565b915060208301356112498161120d565b809150509250929050565b60006020828403121561126657600080fd5b8135610e0c816111f8565b60006020828403121561128357600080fd5b5051919050565b60006020828403121561129c57600080fd5b8151610e0c8161120d565b7f4e487b7100000000000000000000000000000000000000000000000000000000600052603260045260246000fd5b60007fffffffffffffffffffffffffffffffffffffffffffffffffffffffffffffffff820361132e577f4e487b7100000000000000000000000000000000000000000000000000000000600052601160045260246000fd5b5060010190565b60005b83811015611350578181015183820152602001611338565b50506000910152565b6000825161136b818460208701611335565b9190910192915050565b6020815260008251806020840152611394816040850160208701611335565b601f01601f1916919091016040019291505056fea26469706673582212208febe747c0ed6da672603a8fd7f6b68b236b1b07c4534d01ffb89c3e3904176164736f6c63430008110033",
  "devdoc": {
    "kind": "dev",
    "methods": {
      "claimOwnership()": {
        "details": "pending owner call this function to claim ownership"
      },
      "claimTokens(uint256,bytes32[])": {
        "details": "Claims airdropped tokens.",
        "params": {
          "amount": "The amount of the claim being made.",
          "merkleProof": "A merkle proof proving the claim is valid."
        }
      },
      "deposit(uint256)": {
        "details": "deposit token via this function, in case of send wrong token",
        "params": {
          "amount": "amount to deposit"
        }
      },
      "initialize(address)": {
        "details": "set reward token manually, can only be called once"
      },
      "isClaimed(uint256)": {
        "details": "Returns true if the claim at the given index in the merkle tree has already been made.",
        "params": {
          "index": "The index into the merkle tree."
        }
      },
      "owner()": {
        "details": "Returns the address of the current owner."
      },
      "pendingOwner()": {
        "details": "Return the address of the pending owner"
      },
      "renounceOwnership()": {
        "details": "Leaves the contract without owner. It will not be possible to call `onlyOwner` functions anymore. Can only be called by the current owner. NOTE: Renouncing ownership will leave the contract without an owner, thereby removing any functionality that is only available to the owner."
      },
      "setClaimPeriodEnds(uint256)": {
        "details": "Sets the claim period ends.",
        "params": {
          "claimPeriodEnds_": "The merkle root to set."
        }
      },
      "setMerkleRoot(bytes32)": {
        "details": "Sets the merkle root.",
        "params": {
          "newMerkleRoot": "The merkle root to set."
        }
      },
      "transferOwnership(address,bool)": {
        "details": "Transfers ownership of the contract to a new account (`newOwner`). Can only be called by the current owner. Note If direct is false, it will set an pending owner and the OwnerShipTransferring only happens when the pending owner claim the ownership"
      },
      "withdraw()": {
        "details": "withdraw remaining tokens."
      }
    },
    "version": 1
  },
  "userdoc": {
    "kind": "user",
    "methods": {},
    "version": 1
  },
  "storageLayout": {
    "storage": [
      {
        "astId": 2120,
        "contract": "contracts/RewardDistributor.sol:RewardDistributor",
        "label": "_owner",
        "offset": 0,
        "slot": "0",
        "type": "t_address"
      },
      {
        "astId": 2122,
        "contract": "contracts/RewardDistributor.sol:RewardDistributor",
        "label": "_pendingOwner",
        "offset": 0,
        "slot": "1",
        "type": "t_address"
      },
      {
        "astId": 6,
        "contract": "contracts/RewardDistributor.sol:RewardDistributor",
        "label": "_initialized",
        "offset": 20,
        "slot": "1",
        "type": "t_uint8"
      },
      {
        "astId": 9,
        "contract": "contracts/RewardDistributor.sol:RewardDistributor",
        "label": "_initializing",
        "offset": 21,
        "slot": "1",
        "type": "t_bool"
      },
      {
        "astId": 2315,
        "contract": "contracts/RewardDistributor.sol:RewardDistributor",
        "label": "merkleRoot",
        "offset": 0,
        "slot": "2",
        "type": "t_bytes32"
      },
      {
        "astId": 2318,
        "contract": "contracts/RewardDistributor.sol:RewardDistributor",
        "label": "rewardToken",
        "offset": 0,
        "slot": "3",
        "type": "t_contract(IERC20)814"
      },
      {
        "astId": 2320,
        "contract": "contracts/RewardDistributor.sol:RewardDistributor",
        "label": "claimPeriodEnds",
        "offset": 0,
        "slot": "4",
        "type": "t_uint256"
      },
      {
        "astId": 2323,
        "contract": "contracts/RewardDistributor.sol:RewardDistributor",
        "label": "claimed",
        "offset": 0,
        "slot": "5",
        "type": "t_struct(BitMap)1983_storage"
      }
    ],
    "types": {
      "t_address": {
        "encoding": "inplace",
        "label": "address",
        "numberOfBytes": "20"
      },
      "t_bool": {
        "encoding": "inplace",
        "label": "bool",
        "numberOfBytes": "1"
      },
      "t_bytes32": {
        "encoding": "inplace",
        "label": "bytes32",
        "numberOfBytes": "32"
      },
      "t_contract(IERC20)814": {
        "encoding": "inplace",
        "label": "contract IERC20",
        "numberOfBytes": "20"
      },
      "t_mapping(t_uint256,t_uint256)": {
        "encoding": "mapping",
        "key": "t_uint256",
        "label": "mapping(uint256 => uint256)",
        "numberOfBytes": "32",
        "value": "t_uint256"
      },
      "t_struct(BitMap)1983_storage": {
        "encoding": "inplace",
        "label": "struct BitMaps.BitMap",
        "members": [
          {
            "astId": 1982,
            "contract": "contracts/RewardDistributor.sol:RewardDistributor",
            "label": "_data",
            "offset": 0,
            "slot": "0",
            "type": "t_mapping(t_uint256,t_uint256)"
          }
        ],
        "numberOfBytes": "32"
      },
      "t_uint256": {
        "encoding": "inplace",
        "label": "uint256",
        "numberOfBytes": "32"
      },
      "t_uint8": {
        "encoding": "inplace",
        "label": "uint8",
        "numberOfBytes": "1"
      }
    }
  }
}